{
  "contractName": "CakeStakingPool",
  "abi": [
    {
      "inputs": [
        {
          "internalType": "address",
          "name": "_cakeMasterChef",
          "type": "address"
        },
        {
          "internalType": "address",
          "name": "_thothToken",
          "type": "address"
        },
        {
          "internalType": "address",
          "name": "_adminAddress",
          "type": "address"
        },
        {
          "internalType": "address",
          "name": "_pancake",
          "type": "address"
        },
        {
          "internalType": "uint256",
          "name": "_apy",
          "type": "uint256"
        }
      ],
      "stateMutability": "nonpayable",
      "type": "constructor"
    },
    {
      "anonymous": false,
      "inputs": [
        {
          "indexed": true,
          "internalType": "address",
          "name": "owner",
          "type": "address"
        },
        {
          "indexed": true,
          "internalType": "address",
          "name": "spender",
          "type": "address"
        },
        {
          "indexed": false,
          "internalType": "uint256",
          "name": "value",
          "type": "uint256"
        }
      ],
      "name": "Approval",
      "type": "event"
    },
    {
      "anonymous": false,
      "inputs": [
        {
          "indexed": true,
          "internalType": "address",
          "name": "previousOwner",
          "type": "address"
        },
        {
          "indexed": true,
          "internalType": "address",
          "name": "newOwner",
          "type": "address"
        }
      ],
      "name": "OwnershipTransferred",
      "type": "event"
    },
    {
      "anonymous": false,
      "inputs": [
        {
          "indexed": true,
          "internalType": "address",
          "name": "from",
          "type": "address"
        },
        {
          "indexed": true,
          "internalType": "address",
          "name": "to",
          "type": "address"
        },
        {
          "indexed": false,
          "internalType": "uint256",
          "name": "value",
          "type": "uint256"
        }
      ],
      "name": "Transfer",
      "type": "event"
    },
    {
      "inputs": [],
      "name": "APY",
      "outputs": [
        {
          "internalType": "uint256",
          "name": "",
          "type": "uint256"
        }
      ],
      "stateMutability": "view",
      "type": "function"
    },
    {
      "inputs": [],
      "name": "CAKE",
      "outputs": [
        {
          "internalType": "contract IERC20",
          "name": "",
          "type": "address"
        }
      ],
      "stateMutability": "view",
      "type": "function"
    },
    {
      "inputs": [],
      "name": "CAKE_MASTER_CHEF",
      "outputs": [
        {
          "internalType": "contract IMasterChef",
          "name": "",
          "type": "address"
        }
      ],
      "stateMutability": "view",
      "type": "function"
    },
    {
      "inputs": [],
      "name": "adminAddress",
      "outputs": [
        {
          "internalType": "address",
          "name": "",
          "type": "address"
        }
      ],
      "stateMutability": "view",
      "type": "function"
    },
    {
      "inputs": [
        {
          "internalType": "address",
          "name": "owner",
          "type": "address"
        },
        {
          "internalType": "address",
          "name": "spender",
          "type": "address"
        }
      ],
      "name": "allowance",
      "outputs": [
        {
          "internalType": "uint256",
          "name": "",
          "type": "uint256"
        }
      ],
      "stateMutability": "view",
      "type": "function"
    },
    {
      "inputs": [
        {
          "internalType": "address",
          "name": "spender",
          "type": "address"
        },
        {
          "internalType": "uint256",
          "name": "amount",
          "type": "uint256"
        }
      ],
      "name": "approve",
      "outputs": [
        {
          "internalType": "bool",
          "name": "",
          "type": "bool"
        }
      ],
      "stateMutability": "nonpayable",
      "type": "function"
    },
    {
      "inputs": [
        {
          "internalType": "address",
          "name": "account",
          "type": "address"
        }
      ],
      "name": "balanceOf",
      "outputs": [
        {
          "internalType": "uint256",
          "name": "",
          "type": "uint256"
        }
      ],
      "stateMutability": "view",
      "type": "function"
    },
    {
      "inputs": [
        {
          "internalType": "address",
          "name": "",
          "type": "address"
        }
      ],
      "name": "checkpoints",
      "outputs": [
        {
          "internalType": "uint256",
          "name": "",
          "type": "uint256"
        }
      ],
      "stateMutability": "view",
      "type": "function"
    },
    {
      "inputs": [],
      "name": "decimals",
      "outputs": [
        {
          "internalType": "uint8",
          "name": "",
          "type": "uint8"
        }
      ],
      "stateMutability": "view",
      "type": "function"
    },
    {
      "inputs": [
        {
          "internalType": "address",
          "name": "spender",
          "type": "address"
        },
        {
          "internalType": "uint256",
          "name": "subtractedValue",
          "type": "uint256"
        }
      ],
      "name": "decreaseAllowance",
      "outputs": [
        {
          "internalType": "bool",
          "name": "",
          "type": "bool"
        }
      ],
      "stateMutability": "nonpayable",
      "type": "function"
    },
    {
      "inputs": [
        {
          "internalType": "address",
          "name": "",
          "type": "address"
        }
      ],
      "name": "hasStaked",
      "outputs": [
        {
          "internalType": "bool",
          "name": "",
          "type": "bool"
        }
      ],
      "stateMutability": "view",
      "type": "function"
    },
    {
      "inputs": [
        {
          "internalType": "address",
          "name": "spender",
          "type": "address"
        },
        {
          "internalType": "uint256",
          "name": "addedValue",
          "type": "uint256"
        }
      ],
      "name": "increaseAllowance",
      "outputs": [
        {
          "internalType": "bool",
          "name": "",
          "type": "bool"
        }
      ],
      "stateMutability": "nonpayable",
      "type": "function"
    },
    {
      "inputs": [
        {
          "internalType": "address",
          "name": "",
          "type": "address"
        }
      ],
      "name": "isStaking",
      "outputs": [
        {
          "internalType": "bool",
          "name": "",
          "type": "bool"
        }
      ],
      "stateMutability": "view",
      "type": "function"
    },
    {
      "inputs": [
        {
          "internalType": "address",
          "name": "",
          "type": "address"
        }
      ],
      "name": "lockedStakingBalance",
      "outputs": [
        {
          "internalType": "uint256",
          "name": "",
          "type": "uint256"
        }
      ],
      "stateMutability": "view",
      "type": "function"
    },
    {
      "inputs": [],
      "name": "name",
      "outputs": [
        {
          "internalType": "string",
          "name": "",
          "type": "string"
        }
      ],
      "stateMutability": "view",
      "type": "function"
    },
    {
      "inputs": [],
      "name": "owner",
      "outputs": [
        {
          "internalType": "address",
          "name": "",
          "type": "address"
        }
      ],
      "stateMutability": "view",
      "type": "function"
    },
    {
      "inputs": [],
      "name": "pancake",
      "outputs": [
        {
          "internalType": "contract IPancake",
          "name": "",
          "type": "address"
        }
      ],
      "stateMutability": "view",
      "type": "function"
    },
    {
      "inputs": [],
      "name": "renounceOwnership",
      "outputs": [],
      "stateMutability": "nonpayable",
      "type": "function"
    },
    {
      "inputs": [
        {
          "internalType": "uint256",
          "name": "",
          "type": "uint256"
        }
      ],
      "name": "stakers",
      "outputs": [
        {
          "internalType": "address",
          "name": "",
          "type": "address"
        }
      ],
      "stateMutability": "view",
      "type": "function"
    },
    {
      "inputs": [
        {
          "internalType": "address",
          "name": "",
          "type": "address"
        }
      ],
      "name": "stakingBalance",
      "outputs": [
        {
          "internalType": "uint256",
          "name": "",
          "type": "uint256"
        }
      ],
      "stateMutability": "view",
      "type": "function"
    },
    {
      "inputs": [],
      "name": "symbol",
      "outputs": [
        {
          "internalType": "string",
          "name": "",
          "type": "string"
        }
      ],
      "stateMutability": "view",
      "type": "function"
    },
    {
      "inputs": [],
      "name": "thothToken",
      "outputs": [
        {
          "internalType": "contract IERC20",
          "name": "",
          "type": "address"
        }
      ],
      "stateMutability": "view",
      "type": "function"
    },
    {
      "inputs": [],
      "name": "totalSupply",
      "outputs": [
        {
          "internalType": "uint256",
          "name": "",
          "type": "uint256"
        }
      ],
      "stateMutability": "view",
      "type": "function"
    },
    {
      "inputs": [
        {
          "internalType": "address",
          "name": "recipient",
          "type": "address"
        },
        {
          "internalType": "uint256",
          "name": "amount",
          "type": "uint256"
        }
      ],
      "name": "transfer",
      "outputs": [
        {
          "internalType": "bool",
          "name": "",
          "type": "bool"
        }
      ],
      "stateMutability": "nonpayable",
      "type": "function"
    },
    {
      "inputs": [
        {
          "internalType": "address",
          "name": "sender",
          "type": "address"
        },
        {
          "internalType": "address",
          "name": "recipient",
          "type": "address"
        },
        {
          "internalType": "uint256",
          "name": "amount",
          "type": "uint256"
        }
      ],
      "name": "transferFrom",
      "outputs": [
        {
          "internalType": "bool",
          "name": "",
          "type": "bool"
        }
      ],
      "stateMutability": "nonpayable",
      "type": "function"
    },
    {
      "inputs": [
        {
          "internalType": "address",
          "name": "newOwner",
          "type": "address"
        }
      ],
      "name": "transferOwnership",
      "outputs": [],
      "stateMutability": "nonpayable",
      "type": "function"
    },
    {
      "inputs": [
        {
          "internalType": "address",
          "name": "_adminAddress",
          "type": "address"
        }
      ],
      "name": "setAdmin",
      "outputs": [],
      "stateMutability": "nonpayable",
      "type": "function"
    },
    {
      "inputs": [
        {
          "internalType": "uint256",
          "name": "amount",
          "type": "uint256"
        }
      ],
      "name": "deposit",
      "outputs": [],
      "stateMutability": "nonpayable",
      "type": "function"
    },
    {
      "inputs": [
        {
          "internalType": "uint256",
          "name": "amount",
          "type": "uint256"
        }
      ],
      "name": "withdraw",
      "outputs": [],
      "stateMutability": "nonpayable",
      "type": "function"
    }
  ],
  "bytecode": "0x6080604052730e09fabb73bd3ade0a17ecc321fd13a19e81ce82600960006101000a81548173ffffffffffffffffffffffffffffffffffffffff021916908373ffffffffffffffffffffffffffffffffffffffff1602179055503480156200006657600080fd5b50604051620034be380380620034be83398181016040528101906200008c9190620003d9565b6040518060400160405280600881526020017f4c7020546f6b656e0000000000000000000000000000000000000000000000008152506040518060400160405280600381526020017f4c544b0000000000000000000000000000000000000000000000000000000000815250816003908051906020019062000110929190620002fb565b50806004908051906020019062000129929190620002fb565b50505060006200013e620002f360201b60201c565b905080600560006101000a81548173ffffffffffffffffffffffffffffffffffffffff021916908373ffffffffffffffffffffffffffffffffffffffff1602179055508073ffffffffffffffffffffffffffffffffffffffff16600073ffffffffffffffffffffffffffffffffffffffff167f8be0079c531659141344cd1fd0a4f28419497f9722a3daafe3b4186f6b6457e060405160405180910390a35084600860006101000a81548173ffffffffffffffffffffffffffffffffffffffff021916908373ffffffffffffffffffffffffffffffffffffffff16021790555083600660006101000a81548173ffffffffffffffffffffffffffffffffffffffff021916908373ffffffffffffffffffffffffffffffffffffffff16021790555082600a60006101000a81548173ffffffffffffffffffffffffffffffffffffffff021916908373ffffffffffffffffffffffffffffffffffffffff16021790555081600760006101000a81548173ffffffffffffffffffffffffffffffffffffffff021916908373ffffffffffffffffffffffffffffffffffffffff16021790555080600b81905550505050505062000532565b600033905090565b828054620003099062000499565b90600052602060002090601f0160209004810192826200032d576000855562000379565b82601f106200034857805160ff191683800117855562000379565b8280016001018555821562000379579182015b82811115620003785782518255916020019190600101906200035b565b5b5090506200038891906200038c565b5090565b5b80821115620003a75760008160009055506001016200038d565b5090565b600081519050620003bc81620004fe565b92915050565b600081519050620003d38162000518565b92915050565b600080600080600060a08688031215620003f257600080fd5b60006200040288828901620003ab565b95505060206200041588828901620003ab565b94505060406200042888828901620003ab565b93505060606200043b88828901620003ab565b92505060806200044e88828901620003c2565b9150509295509295909350565b600062000468826200046f565b9050919050565b600073ffffffffffffffffffffffffffffffffffffffff82169050919050565b6000819050919050565b60006002820490506001821680620004b257607f821691505b60208210811415620004c957620004c8620004cf565b5b50919050565b7f4e487b7100000000000000000000000000000000000000000000000000000000600052602260045260246000fd5b62000509816200045b565b81146200051557600080fd5b50565b62000523816200048f565b81146200052f57600080fd5b50565b612f7c80620005426000396000f3fe608060405234801561001057600080fd5b50600436106101cf5760003560e01c8063715018a611610104578063b977f20d116100a2578063ef8bd30511610071578063ef8bd30514610580578063f2fde38b1461059e578063fc6f9468146105ba578063fd5e6dd1146105d8576101cf565b8063b977f20d146104c0578063c93c8f34146104f0578063dbb51d6e14610520578063dd62ed3e14610550576101cf565b8063a457c2d7116100de578063a457c2d714610426578063a9059cbb14610456578063b00e163b14610486578063b6b55f25146104a4576101cf565b8063715018a6146103e05780638da5cb5b146103ea57806395d89b4114610408576101cf565b8063313ce567116101715780634ca6ef281161014b5780634ca6ef28146103465780636f49712b14610364578063704b6c021461039457806370a08231146103b0576101cf565b8063313ce567146102c857806339509351146102e657806345bc78ab14610316576101cf565b806318160ddd116101ad57806318160ddd1461024057806323b872dd1461025e578063286bf1e21461028e5780632e1a7d4d146102ac576101cf565b806306ec9b5b146101d457806306fdde03146101f2578063095ea7b314610210575b600080fd5b6101dc610608565b6040516101e99190612999565b60405180910390f35b6101fa61062e565b60405161020791906129b4565b60405180910390f35b61022a60048036038101906102259190612209565b6106c0565b6040516102379190612948565b60405180910390f35b6102486106de565b6040516102559190612bd6565b60405180910390f35b610278600480360381019061027391906121ba565b6106e8565b6040516102859190612948565b60405180910390f35b6102966107e9565b6040516102a3919061297e565b60405180910390f35b6102c660048036038101906102c1919061226e565b61080f565b005b6102d0610abb565b6040516102dd9190612bf1565b60405180910390f35b61030060048036038101906102fb9190612209565b610ac4565b60405161030d9190612948565b60405180910390f35b610330600480360381019061032b9190612155565b610b70565b60405161033d9190612bd6565b60405180910390f35b61034e610b88565b60405161035b9190612963565b60405180910390f35b61037e60048036038101906103799190612155565b610bae565b60405161038b9190612948565b60405180910390f35b6103ae60048036038101906103a99190612155565b610bce565b005b6103ca60048036038101906103c59190612155565b610c8e565b6040516103d79190612bd6565b60405180910390f35b6103e8610cd6565b005b6103f2610e13565b6040516103ff9190612904565b60405180910390f35b610410610e3d565b60405161041d91906129b4565b60405180910390f35b610440600480360381019061043b9190612209565b610ecf565b60405161044d9190612948565b60405180910390f35b610470600480360381019061046b9190612209565b610fc3565b60405161047d9190612948565b60405180910390f35b61048e610fe1565b60405161049b9190612963565b60405180910390f35b6104be60048036038101906104b9919061226e565b611007565b005b6104da60048036038101906104d59190612155565b611414565b6040516104e79190612bd6565b60405180910390f35b61050a60048036038101906105059190612155565b61142c565b6040516105179190612948565b60405180910390f35b61053a60048036038101906105359190612155565b61144c565b6040516105479190612bd6565b60405180910390f35b61056a6004803603810190610565919061217e565b611464565b6040516105779190612bd6565b60405180910390f35b6105886114eb565b6040516105959190612bd6565b60405180910390f35b6105b860048036038101906105b39190612155565b6114f1565b005b6105c261169d565b6040516105cf9190612904565b60405180910390f35b6105f260048036038101906105ed919061226e565b6116c3565b6040516105ff9190612904565b60405180910390f35b600760009054906101000a900473ffffffffffffffffffffffffffffffffffffffff1681565b60606003805461063d90612e31565b80601f016020809104026020016040519081016040528092919081815260200182805461066990612e31565b80156106b65780601f1061068b576101008083540402835291602001916106b6565b820191906000526020600020905b81548152906001019060200180831161069957829003601f168201915b5050505050905090565b60006106d46106cd611702565b848461170a565b6001905092915050565b6000600254905090565b60006106f58484846118d5565b6000600160008673ffffffffffffffffffffffffffffffffffffffff1673ffffffffffffffffffffffffffffffffffffffff1681526020019081526020016000206000610740611702565b73ffffffffffffffffffffffffffffffffffffffff1673ffffffffffffffffffffffffffffffffffffffff168152602001908152602001600020549050828110156107c0576040517f08c379a00000000000000000000000000000000000000000000000000000000081526004016107b790612a96565b60405180910390fd5b6107dd856107cc611702565b85846107d89190612d09565b61170a565b60019150509392505050565b600860009054906101000a900473ffffffffffffffffffffffffffffffffffffffff1681565b60008111610852576040517f08c379a000000000000000000000000000000000000000000000000000000000815260040161084990612b56565b60405180910390fd5b6000600e60003373ffffffffffffffffffffffffffffffffffffffff1673ffffffffffffffffffffffffffffffffffffffff168152602001908152602001600020549050600081116108d9576040517f08c379a00000000000000000000000000000000000000000000000000000000081526004016108d090612b16565b60405180910390fd5b816108e333610c8e565b1015610924576040517f08c379a000000000000000000000000000000000000000000000000000000000815260040161091b90612b76565b60405180910390fd5b600860009054906101000a900473ffffffffffffffffffffffffffffffffffffffff1673ffffffffffffffffffffffffffffffffffffffff16631058d281836040518263ffffffff1660e01b815260040161097f9190612bd6565b600060405180830381600087803b15801561099957600080fd5b505af11580156109ad573d6000803e3d6000fd5b505050506000600960009054906101000a900473ffffffffffffffffffffffffffffffffffffffff1673ffffffffffffffffffffffffffffffffffffffff166370a08231306040518263ffffffff1660e01b8152600401610a0e9190612904565b60206040518083038186803b158015610a2657600080fd5b505afa158015610a3a573d6000803e3d6000fd5b505050506040513d601f19601f82011682018060405250810190610a5e9190612297565b905082811015610aa3576040517f08c379a0000000000000000000000000000000000000000000000000000000008152600401610a9a90612a56565b60405180910390fd5b610aac33611b54565b610ab63384611d19565b505050565b60006012905090565b6000610b66610ad1611702565b848460016000610adf611702565b73ffffffffffffffffffffffffffffffffffffffff1673ffffffffffffffffffffffffffffffffffffffff16815260200190815260200160002060008873ffffffffffffffffffffffffffffffffffffffff1673ffffffffffffffffffffffffffffffffffffffff16815260200190815260200160002054610b619190612c28565b61170a565b6001905092915050565b600e6020528060005260406000206000915090505481565b600960009054906101000a900473ffffffffffffffffffffffffffffffffffffffff1681565b60116020528060005260406000206000915054906101000a900460ff1681565b610bd6611702565b73ffffffffffffffffffffffffffffffffffffffff16610bf4610e13565b73ffffffffffffffffffffffffffffffffffffffff1614610c4a576040517f08c379a0000000000000000000000000000000000000000000000000000000008152600401610c4190612ab6565b60405180910390fd5b80600a60006101000a81548173ffffffffffffffffffffffffffffffffffffffff021916908373ffffffffffffffffffffffffffffffffffffffff16021790555050565b60008060008373ffffffffffffffffffffffffffffffffffffffff1673ffffffffffffffffffffffffffffffffffffffff168152602001908152602001600020549050919050565b610cde611702565b73ffffffffffffffffffffffffffffffffffffffff16610cfc610e13565b73ffffffffffffffffffffffffffffffffffffffff1614610d52576040517f08c379a0000000000000000000000000000000000000000000000000000000008152600401610d4990612ab6565b60405180910390fd5b600073ffffffffffffffffffffffffffffffffffffffff16600560009054906101000a900473ffffffffffffffffffffffffffffffffffffffff1673ffffffffffffffffffffffffffffffffffffffff167f8be0079c531659141344cd1fd0a4f28419497f9722a3daafe3b4186f6b6457e060405160405180910390a36000600560006101000a81548173ffffffffffffffffffffffffffffffffffffffff021916908373ffffffffffffffffffffffffffffffffffffffff160217905550565b6000600560009054906101000a900473ffffffffffffffffffffffffffffffffffffffff16905090565b606060048054610e4c90612e31565b80601f0160208091040260200160405190810160405280929190818152602001828054610e7890612e31565b8015610ec55780601f10610e9a57610100808354040283529160200191610ec5565b820191906000526020600020905b815481529060010190602001808311610ea857829003601f168201915b5050505050905090565b60008060016000610ede611702565b73ffffffffffffffffffffffffffffffffffffffff1673ffffffffffffffffffffffffffffffffffffffff16815260200190815260200160002060008573ffffffffffffffffffffffffffffffffffffffff1673ffffffffffffffffffffffffffffffffffffffff16815260200190815260200160002054905082811015610f9b576040517f08c379a0000000000000000000000000000000000000000000000000000000008152600401610f9290612b96565b60405180910390fd5b610fb8610fa6611702565b858584610fb39190612d09565b61170a565b600191505092915050565b6000610fd7610fd0611702565b84846118d5565b6001905092915050565b600660009054906101000a900473ffffffffffffffffffffffffffffffffffffffff1681565b6000811161104a576040517f08c379a000000000000000000000000000000000000000000000000000000000815260040161104190612b56565b60405180910390fd5b6000600d60003373ffffffffffffffffffffffffffffffffffffffff1673ffffffffffffffffffffffffffffffffffffffff1681526020019081526020016000205414156110d75742600d60003373ffffffffffffffffffffffffffffffffffffffff1673ffffffffffffffffffffffffffffffffffffffff168152602001908152602001600020819055505b600960009054906101000a900473ffffffffffffffffffffffffffffffffffffffff1673ffffffffffffffffffffffffffffffffffffffff1663095ea7b330836040518363ffffffff1660e01b815260040161113492919061291f565b602060405180830381600087803b15801561114e57600080fd5b505af1158015611162573d6000803e3d6000fd5b505050506040513d601f19601f820116820180604052508101906111869190612245565b50600860009054906101000a900473ffffffffffffffffffffffffffffffffffffffff1673ffffffffffffffffffffffffffffffffffffffff166341441d3b826040518263ffffffff1660e01b81526004016111e29190612bd6565b600060405180830381600087803b1580156111fc57600080fd5b505af1158015611210573d6000803e3d6000fd5b5050505080600e60003373ffffffffffffffffffffffffffffffffffffffff1673ffffffffffffffffffffffffffffffffffffffff1681526020019081526020016000205461125f9190612c28565b600e60003373ffffffffffffffffffffffffffffffffffffffff1673ffffffffffffffffffffffffffffffffffffffff168152602001908152602001600020819055506112ac3382611eed565b601060003373ffffffffffffffffffffffffffffffffffffffff1673ffffffffffffffffffffffffffffffffffffffff16815260200190815260200160002060009054906101000a900460ff1661136157600c339080600181540180825580915050600190039060005260206000200160009091909190916101000a81548173ffffffffffffffffffffffffffffffffffffffff021916908373ffffffffffffffffffffffffffffffffffffffff1602179055505b6001601060003373ffffffffffffffffffffffffffffffffffffffff1673ffffffffffffffffffffffffffffffffffffffff16815260200190815260200160002060006101000a81548160ff0219169083151502179055506001601160003373ffffffffffffffffffffffffffffffffffffffff1673ffffffffffffffffffffffffffffffffffffffff16815260200190815260200160002060006101000a81548160ff02191690831515021790555050565b600f6020528060005260406000206000915090505481565b60106020528060005260406000206000915054906101000a900460ff1681565b600d6020528060005260406000206000915090505481565b6000600160008473ffffffffffffffffffffffffffffffffffffffff1673ffffffffffffffffffffffffffffffffffffffff16815260200190815260200160002060008373ffffffffffffffffffffffffffffffffffffffff1673ffffffffffffffffffffffffffffffffffffffff16815260200190815260200160002054905092915050565b600b5481565b6114f9611702565b73ffffffffffffffffffffffffffffffffffffffff16611517610e13565b73ffffffffffffffffffffffffffffffffffffffff161461156d576040517f08c379a000000000000000000000000000000000000000000000000000000000815260040161156490612ab6565b60405180910390fd5b600073ffffffffffffffffffffffffffffffffffffffff168173ffffffffffffffffffffffffffffffffffffffff1614156115dd576040517f08c379a00000000000000000000000000000000000000000000000000000000081526004016115d490612a16565b60405180910390fd5b8073ffffffffffffffffffffffffffffffffffffffff16600560009054906101000a900473ffffffffffffffffffffffffffffffffffffffff1673ffffffffffffffffffffffffffffffffffffffff167f8be0079c531659141344cd1fd0a4f28419497f9722a3daafe3b4186f6b6457e060405160405180910390a380600560006101000a81548173ffffffffffffffffffffffffffffffffffffffff021916908373ffffffffffffffffffffffffffffffffffffffff16021790555050565b600a60009054906101000a900473ffffffffffffffffffffffffffffffffffffffff1681565b600c81815481106116d357600080fd5b906000526020600020016000915054906101000a900473ffffffffffffffffffffffffffffffffffffffff1681565b600033905090565b600073ffffffffffffffffffffffffffffffffffffffff168373ffffffffffffffffffffffffffffffffffffffff16141561177a576040517f08c379a000000000000000000000000000000000000000000000000000000000815260040161177190612b36565b60405180910390fd5b600073ffffffffffffffffffffffffffffffffffffffff168273ffffffffffffffffffffffffffffffffffffffff1614156117ea576040517f08c379a00000000000000000000000000000000000000000000000000000000081526004016117e190612a36565b60405180910390fd5b80600160008573ffffffffffffffffffffffffffffffffffffffff1673ffffffffffffffffffffffffffffffffffffffff16815260200190815260200160002060008473ffffffffffffffffffffffffffffffffffffffff1673ffffffffffffffffffffffffffffffffffffffff168152602001908152602001600020819055508173ffffffffffffffffffffffffffffffffffffffff168373ffffffffffffffffffffffffffffffffffffffff167f8c5be1e5ebec7d5bd14f71427d1e84f3dd0314c0f7b2291e5b200ac8c7c3b925836040516118c89190612bd6565b60405180910390a3505050565b600073ffffffffffffffffffffffffffffffffffffffff168373ffffffffffffffffffffffffffffffffffffffff161415611945576040517f08c379a000000000000000000000000000000000000000000000000000000000815260040161193c90612af6565b60405180910390fd5b600073ffffffffffffffffffffffffffffffffffffffff168273ffffffffffffffffffffffffffffffffffffffff1614156119b5576040517f08c379a00000000000000000000000000000000000000000000000000000000081526004016119ac906129d6565b60405180910390fd5b6119c0838383612041565b60008060008573ffffffffffffffffffffffffffffffffffffffff1673ffffffffffffffffffffffffffffffffffffffff16815260200190815260200160002054905081811015611a46576040517f08c379a0000000000000000000000000000000000000000000000000000000008152600401611a3d90612a76565b60405180910390fd5b8181611a529190612d09565b6000808673ffffffffffffffffffffffffffffffffffffffff1673ffffffffffffffffffffffffffffffffffffffff16815260200190815260200160002081905550816000808573ffffffffffffffffffffffffffffffffffffffff1673ffffffffffffffffffffffffffffffffffffffff1681526020019081526020016000206000828254611ae29190612c28565b925050819055508273ffffffffffffffffffffffffffffffffffffffff168473ffffffffffffffffffffffffffffffffffffffff167fddf252ad1be2c89b69c2b068fc378daa952ba7f163c4a11628f55a4df523b3ef84604051611b469190612bd6565b60405180910390a350505050565b6000600d60008373ffffffffffffffffffffffffffffffffffffffff1673ffffffffffffffffffffffffffffffffffffffff1681526020019081526020016000205490506000611ba383610c8e565b90506000611bb18383612046565b9050600960009054906101000a900473ffffffffffffffffffffffffffffffffffffffff1673ffffffffffffffffffffffffffffffffffffffff1663a9059cbb85836040518363ffffffff1660e01b8152600401611c1092919061291f565b602060405180830381600087803b158015611c2a57600080fd5b505af1158015611c3e573d6000803e3d6000fd5b505050506040513d601f19601f82011682018060405250810190611c629190612245565b50600660009054906101000a900473ffffffffffffffffffffffffffffffffffffffff1673ffffffffffffffffffffffffffffffffffffffff1663a9059cbb85846040518363ffffffff1660e01b8152600401611cc092919061291f565b602060405180830381600087803b158015611cda57600080fd5b505af1158015611cee573d6000803e3d6000fd5b505050506040513d601f19601f82011682018060405250810190611d129190612245565b5050505050565b600073ffffffffffffffffffffffffffffffffffffffff168273ffffffffffffffffffffffffffffffffffffffff161415611d89576040517f08c379a0000000000000000000000000000000000000000000000000000000008152600401611d8090612ad6565b60405180910390fd5b611d9582600083612041565b60008060008473ffffffffffffffffffffffffffffffffffffffff1673ffffffffffffffffffffffffffffffffffffffff16815260200190815260200160002054905081811015611e1b576040517f08c379a0000000000000000000000000000000000000000000000000000000008152600401611e12906129f6565b60405180910390fd5b8181611e279190612d09565b6000808573ffffffffffffffffffffffffffffffffffffffff1673ffffffffffffffffffffffffffffffffffffffff168152602001908152602001600020819055508160026000828254611e7b9190612d09565b92505081905550600073ffffffffffffffffffffffffffffffffffffffff168373ffffffffffffffffffffffffffffffffffffffff167fddf252ad1be2c89b69c2b068fc378daa952ba7f163c4a11628f55a4df523b3ef84604051611ee09190612bd6565b60405180910390a3505050565b600073ffffffffffffffffffffffffffffffffffffffff168273ffffffffffffffffffffffffffffffffffffffff161415611f5d576040517f08c379a0000000000000000000000000000000000000000000000000000000008152600401611f5490612bb6565b60405180910390fd5b611f6960008383612041565b8060026000828254611f7b9190612c28565b92505081905550806000808473ffffffffffffffffffffffffffffffffffffffff1673ffffffffffffffffffffffffffffffffffffffff1681526020019081526020016000206000828254611fd09190612c28565b925050819055508173ffffffffffffffffffffffffffffffffffffffff16600073ffffffffffffffffffffffffffffffffffffffff167fddf252ad1be2c89b69c2b068fc378daa952ba7f163c4a11628f55a4df523b3ef836040516120359190612bd6565b60405180910390a35050565b505050565b600080612070600b54612062428761209490919063ffffffff16565b6120bc90919063ffffffff16565b90506000612087828561209490919063ffffffff16565b9050809250505092915050565b60008082846120a39190612c28565b9050838110156120b257600080fd5b8091505092915050565b6000808314156120cf57600090506120fb565b600082846120dd9190612caf565b90508284826120ec9190612c7e565b146120f657600080fd5b809150505b92915050565b60008135905061211081612f01565b92915050565b60008151905061212581612f18565b92915050565b60008135905061213a81612f2f565b92915050565b60008151905061214f81612f2f565b92915050565b60006020828403121561216757600080fd5b600061217584828501612101565b91505092915050565b6000806040838503121561219157600080fd5b600061219f85828601612101565b92505060206121b085828601612101565b9150509250929050565b6000806000606084860312156121cf57600080fd5b60006121dd86828701612101565b93505060206121ee86828701612101565b92505060406121ff8682870161212b565b9150509250925092565b6000806040838503121561221c57600080fd5b600061222a85828601612101565b925050602061223b8582860161212b565b9150509250929050565b60006020828403121561225757600080fd5b600061226584828501612116565b91505092915050565b60006020828403121561228057600080fd5b600061228e8482850161212b565b91505092915050565b6000602082840312156122a957600080fd5b60006122b784828501612140565b91505092915050565b6122c981612d3d565b82525050565b6122d881612d4f565b82525050565b6122e781612d92565b82525050565b6122f681612db6565b82525050565b61230581612dda565b82525050565b600061231682612c0c565b6123208185612c17565b9350612330818560208601612dfe565b61233981612ef0565b840191505092915050565b6000612351602383612c17565b91507f45524332303a207472616e7366657220746f20746865207a65726f206164647260008301527f65737300000000000000000000000000000000000000000000000000000000006020830152604082019050919050565b60006123b7602283612c17565b91507f45524332303a206275726e20616d6f756e7420657863656564732062616c616e60008301527f63650000000000000000000000000000000000000000000000000000000000006020830152604082019050919050565b600061241d602683612c17565b91507f4f776e61626c653a206e6577206f776e657220697320746865207a65726f206160008301527f64647265737300000000000000000000000000000000000000000000000000006020830152604082019050919050565b6000612483602283612c17565b91507f45524332303a20617070726f766520746f20746865207a65726f20616464726560008301527f73730000000000000000000000000000000000000000000000000000000000006020830152604082019050919050565b60006124e9602a83612c17565b91507f7769746864726177616c2066726f6d2063616b65206d6173746572636865662060008301527f686173206661696c6564000000000000000000000000000000000000000000006020830152604082019050919050565b600061254f602683612c17565b91507f45524332303a207472616e7366657220616d6f756e742065786365656473206260008301527f616c616e636500000000000000000000000000000000000000000000000000006020830152604082019050919050565b60006125b5602883612c17565b91507f45524332303a207472616e7366657220616d6f756e742065786365656473206160008301527f6c6c6f77616e63650000000000000000000000000000000000000000000000006020830152604082019050919050565b600061261b602083612c17565b91507f4f776e61626c653a2063616c6c6572206973206e6f7420746865206f776e65726000830152602082019050919050565b600061265b602183612c17565b91507f45524332303a206275726e2066726f6d20746865207a65726f2061646472657360008301527f73000000000000000000000000000000000000000000000000000000000000006020830152604082019050919050565b60006126c1602583612c17565b91507f45524332303a207472616e736665722066726f6d20746865207a65726f20616460008301527f64726573730000000000000000000000000000000000000000000000000000006020830152604082019050919050565b6000612727601283612c17565b91507f696e73756666696369656e742066756e647300000000000000000000000000006000830152602082019050919050565b6000612767602483612c17565b91507f45524332303a20617070726f76652066726f6d20746865207a65726f2061646460008301527f72657373000000000000000000000000000000000000000000000000000000006020830152604082019050919050565b60006127cd601283612c17565b91507f616d6f756e742063616e6e6f74206265203000000000000000000000000000006000830152602082019050919050565b600061280d601483612c17565b91507f6e6f7420656e6f756768204c5020746f6b656e730000000000000000000000006000830152602082019050919050565b600061284d602583612c17565b91507f45524332303a2064656372656173656420616c6c6f77616e63652062656c6f7760008301527f207a65726f0000000000000000000000000000000000000000000000000000006020830152604082019050919050565b60006128b3601f83612c17565b91507f45524332303a206d696e7420746f20746865207a65726f2061646472657373006000830152602082019050919050565b6128ef81612d7b565b82525050565b6128fe81612d85565b82525050565b600060208201905061291960008301846122c0565b92915050565b600060408201905061293460008301856122c0565b61294160208301846128e6565b9392505050565b600060208201905061295d60008301846122cf565b92915050565b600060208201905061297860008301846122de565b92915050565b600060208201905061299360008301846122ed565b92915050565b60006020820190506129ae60008301846122fc565b92915050565b600060208201905081810360008301526129ce818461230b565b905092915050565b600060208201905081810360008301526129ef81612344565b9050919050565b60006020820190508181036000830152612a0f816123aa565b9050919050565b60006020820190508181036000830152612a2f81612410565b9050919050565b60006020820190508181036000830152612a4f81612476565b9050919050565b60006020820190508181036000830152612a6f816124dc565b9050919050565b60006020820190508181036000830152612a8f81612542565b9050919050565b60006020820190508181036000830152612aaf816125a8565b9050919050565b60006020820190508181036000830152612acf8161260e565b9050919050565b60006020820190508181036000830152612aef8161264e565b9050919050565b60006020820190508181036000830152612b0f816126b4565b9050919050565b60006020820190508181036000830152612b2f8161271a565b9050919050565b60006020820190508181036000830152612b4f8161275a565b9050919050565b60006020820190508181036000830152612b6f816127c0565b9050919050565b60006020820190508181036000830152612b8f81612800565b9050919050565b60006020820190508181036000830152612baf81612840565b9050919050565b60006020820190508181036000830152612bcf816128a6565b9050919050565b6000602082019050612beb60008301846128e6565b92915050565b6000602082019050612c0660008301846128f5565b92915050565b600081519050919050565b600082825260208201905092915050565b6000612c3382612d7b565b9150612c3e83612d7b565b9250827fffffffffffffffffffffffffffffffffffffffffffffffffffffffffffffffff03821115612c7357612c72612e63565b5b828201905092915050565b6000612c8982612d7b565b9150612c9483612d7b565b925082612ca457612ca3612e92565b5b828204905092915050565b6000612cba82612d7b565b9150612cc583612d7b565b9250817fffffffffffffffffffffffffffffffffffffffffffffffffffffffffffffffff0483118215151615612cfe57612cfd612e63565b5b828202905092915050565b6000612d1482612d7b565b9150612d1f83612d7b565b925082821015612d3257612d31612e63565b5b828203905092915050565b6000612d4882612d5b565b9050919050565b60008115159050919050565b600073ffffffffffffffffffffffffffffffffffffffff82169050919050565b6000819050919050565b600060ff82169050919050565b6000612d9d82612da4565b9050919050565b6000612daf82612d5b565b9050919050565b6000612dc182612dc8565b9050919050565b6000612dd382612d5b565b9050919050565b6000612de582612dec565b9050919050565b6000612df782612d5b565b9050919050565b60005b83811015612e1c578082015181840152602081019050612e01565b83811115612e2b576000848401525b50505050565b60006002820490506001821680612e4957607f821691505b60208210811415612e5d57612e5c612ec1565b5b50919050565b7f4e487b7100000000000000000000000000000000000000000000000000000000600052601160045260246000fd5b7f4e487b7100000000000000000000000000000000000000000000000000000000600052601260045260246000fd5b7f4e487b7100000000000000000000000000000000000000000000000000000000600052602260045260246000fd5b6000601f19601f8301169050919050565b612f0a81612d3d565b8114612f1557600080fd5b50565b612f2181612d4f565b8114612f2c57600080fd5b50565b612f3881612d7b565b8114612f4357600080fd5b5056fea264697066735822122064bc6801d99b82b74e815d0f89a9135e54e0465877abe804326f0f12fb62be4164736f6c63430008000033",
  "immutableReferences": {},
  "source": "pragma solidity ^0.8.0;\r\n\r\n\r\nimport './IPancake.sol';\r\nimport './IMasterChef.sol';\r\nimport './UnderlyingToken.sol';\r\nimport './LpToken.sol';\r\nimport '@openzeppelin/contracts/token/ERC20/IERC20.sol';\r\nimport '@openzeppelin/contracts/access/Ownable.sol';\r\nimport \"openzeppelin-solidity/contracts/math/SafeMath.sol\";\r\n\r\n\r\n\r\ncontract CakeStakingPool is LpToken, Ownable {\r\n\tusing SafeMath for uint;\r\n\r\n\tIERC20 public  thothToken;\r\n\tIPancake public pancake;\r\n\tIMasterChef public CAKE_MASTER_CHEF;\r\n\tIERC20 public  CAKE = IERC20(0x0E09FaBB73Bd3Ade0a17ECC321fD13a19e81cE82);\r\n\taddress public adminAddress;\r\n\tuint public APY;\r\n\r\n\taddress[] public stakers;\r\n\tmapping(address => uint) public checkpoints;\r\n    mapping(address => uint) public stakingBalance;\r\n    mapping(address => uint) public lockedStakingBalance;\r\n    mapping(address => bool) public hasStaked;\r\n    mapping(address => bool) public isStaking;\r\n\r\n\tconstructor(address _cakeMasterChef, address _thothToken, address _adminAddress, address _pancake, uint _apy) {\r\n\t\tCAKE_MASTER_CHEF = IMasterChef(_cakeMasterChef);\r\n\t\tthothToken = IERC20(_thothToken);\r\n\t\tadminAddress = _adminAddress;\r\n\t\tpancake = IPancake(_pancake);\r\n\t\tAPY = _apy;\r\n\t}\r\n\r\n\tmodifier onlyAdmin() {\r\n\t\trequire(msg.sender == adminAddress, 'only admin');\r\n\t\t_;\r\n\t}\r\n\r\n\t// Update admin\r\n\tfunction setAdmin(address _adminAddress) public onlyOwner {\r\n\t\tadminAddress = _adminAddress;\r\n\t}\r\n\r\n\r\n\tfunction deposit(uint amount) external {\r\n\t\trequire(amount > 0, 'amount cannot be 0');\r\n\t\tif(checkpoints[msg.sender] == 0) {\r\n\t\t\tcheckpoints[msg.sender] = block.timestamp;\r\n\t\t}\r\n\t\t// CAKE.transferFrom(msg.sender, address(this), amount);\r\n\t\tCAKE.approve(address(this), amount);\r\n\t\tCAKE_MASTER_CHEF.enterStaking(amount);\r\n\t\tstakingBalance[msg.sender] = stakingBalance[msg.sender] + amount;\r\n\r\n\t\t_mint(msg.sender, amount);\r\n\r\n\t\t// add user to stakers array only if they haven\"t staked\r\n        if(!hasStaked[msg.sender]) {\r\n            stakers.push(msg.sender);\r\n        }\r\n\r\n        // update staking staus\r\n        hasStaked[msg.sender] = true;\r\n        isStaking[msg.sender] = true;\r\n\t}\r\n\r\n\r\n\tfunction withdraw(uint amount) external {\r\n\t\trequire(amount > 0, 'amount cannot be 0');\r\n\t\t// fectch staking balance\r\n\t\tuint balance = stakingBalance[msg.sender];\r\n\r\n\t\trequire(balance > 0, 'insufficient funds');\r\n\t\trequire(balanceOf(msg.sender) >= amount, 'not enough LP tokens');\r\n\r\n\t\t// withdraw tokens from cake masterchef\r\n\t\tCAKE_MASTER_CHEF.leaveStaking(amount);\r\n\t\tuint cakeBalance = CAKE.balanceOf(address(this));\r\n\t\trequire(cakeBalance >= amount, 'withdrawal from cake masterchef has failed');\r\n\t\t_distributeRewards(msg.sender);\r\n\t\t_burn(msg.sender, amount); \r\n\t}\r\n\r\n\t// function swap(address _cake, address _thothToken, uint amountOut, uint amountInMax, uint deadline) public onlyAdmin {\r\n\t// \taddress[] memory path = new address[](2);\r\n\t// \tpath[0] = _cake;\r\n\t// \tpath[1] = _thothToken;\r\n\t// \tCAKE.approve(pancake, amountOut);\r\n\t// \tpancake.swapTokensForExactTokens(amountOut, amountInMax, path, address(this), deadline);\r\n\t// }\r\n\r\n\tfunction _distributeRewards(address beneficiary) internal {\r\n\t\tuint userTimeofDeposit = checkpoints[beneficiary];\r\n\t\tuint amount = balanceOf(beneficiary);\r\n\t\tuint distributionAmount = _calculateDistributionAmount(userTimeofDeposit, amount);\r\n\t\tCAKE.transfer(beneficiary, distributionAmount); \r\n\t\tthothToken.transfer(beneficiary, amount);\r\n\t}\r\n\r\n\r\n\r\n\r\n\tfunction _calculateDistributionAmount(uint time, uint amount) internal view returns(uint) {\r\n\t\t// calculate cake rewards using timestamp\r\n\t\tuint distribution = time.add(block.timestamp).mul(APY);\r\n\t\tuint distributionAmount = amount.add(distribution);\r\n\t\treturn distributionAmount;\r\n\t}\r\n}",
  "sourcePath": "/mnt/c/pr0/liquidity-pool/liquidity-mining/contracts/CakeStakingPool.sol",
  "compiler": {
    "name": "solc",
    "version": "0.8.0+commit.c7dfd78e.Emscripten.clang"
  },
  "schemaVersion": "3.4.0",
  "updatedAt": "2021-07-13T11:38:41.622Z",
  "devdoc": {
    "kind": "dev",
    "methods": {
      "allowance(address,address)": {
        "details": "See {IERC20-allowance}."
      },
      "approve(address,uint256)": {
        "details": "See {IERC20-approve}. Requirements: - `spender` cannot be the zero address."
      },
      "balanceOf(address)": {
        "details": "See {IERC20-balanceOf}."
      },
      "decimals()": {
        "details": "Returns the number of decimals used to get its user representation. For example, if `decimals` equals `2`, a balance of `505` tokens should be displayed to a user as `5,05` (`505 / 10 ** 2`). Tokens usually opt for a value of 18, imitating the relationship between Ether and Wei. This is the value {ERC20} uses, unless this function is overridden; NOTE: This information is only used for _display_ purposes: it in no way affects any of the arithmetic of the contract, including {IERC20-balanceOf} and {IERC20-transfer}."
      },
      "decreaseAllowance(address,uint256)": {
        "details": "Atomically decreases the allowance granted to `spender` by the caller. This is an alternative to {approve} that can be used as a mitigation for problems described in {IERC20-approve}. Emits an {Approval} event indicating the updated allowance. Requirements: - `spender` cannot be the zero address. - `spender` must have allowance for the caller of at least `subtractedValue`."
      },
      "increaseAllowance(address,uint256)": {
        "details": "Atomically increases the allowance granted to `spender` by the caller. This is an alternative to {approve} that can be used as a mitigation for problems described in {IERC20-approve}. Emits an {Approval} event indicating the updated allowance. Requirements: - `spender` cannot be the zero address."
      },
      "name()": {
        "details": "Returns the name of the token."
      },
      "owner()": {
        "details": "Returns the address of the current owner."
      },
      "renounceOwnership()": {
        "details": "Leaves the contract without owner. It will not be possible to call `onlyOwner` functions anymore. Can only be called by the current owner. NOTE: Renouncing ownership will leave the contract without an owner, thereby removing any functionality that is only available to the owner."
      },
      "symbol()": {
        "details": "Returns the symbol of the token, usually a shorter version of the name."
      },
      "totalSupply()": {
        "details": "See {IERC20-totalSupply}."
      },
      "transfer(address,uint256)": {
        "details": "See {IERC20-transfer}. Requirements: - `recipient` cannot be the zero address. - the caller must have a balance of at least `amount`."
      },
      "transferFrom(address,address,uint256)": {
        "details": "See {IERC20-transferFrom}. Emits an {Approval} event indicating the updated allowance. This is not required by the EIP. See the note at the beginning of {ERC20}. Requirements: - `sender` and `recipient` cannot be the zero address. - `sender` must have a balance of at least `amount`. - the caller must have allowance for ``sender``'s tokens of at least `amount`."
      },
      "transferOwnership(address)": {
        "details": "Transfers ownership of the contract to a new account (`newOwner`). Can only be called by the current owner."
      }
    },
    "version": 1
  },
  "userdoc": {
    "kind": "user",
    "methods": {},
    "version": 1
  }
}