{
  "contractName": "LiquidityPool",
  "abi": [
    {
      "inputs": [
        {
          "internalType": "address",
          "name": "_underlyingToken",
          "type": "address"
        },
        {
          "internalType": "address",
          "name": "_governanceToken",
          "type": "address"
        }
      ],
      "stateMutability": "nonpayable",
      "type": "constructor"
    },
    {
      "anonymous": false,
      "inputs": [
        {
          "indexed": true,
          "internalType": "address",
          "name": "owner",
          "type": "address"
        },
        {
          "indexed": true,
          "internalType": "address",
          "name": "spender",
          "type": "address"
        },
        {
          "indexed": false,
          "internalType": "uint256",
          "name": "value",
          "type": "uint256"
        }
      ],
      "name": "Approval",
      "type": "event"
    },
    {
      "anonymous": false,
      "inputs": [
        {
          "indexed": true,
          "internalType": "address",
          "name": "previousOwner",
          "type": "address"
        },
        {
          "indexed": true,
          "internalType": "address",
          "name": "newOwner",
          "type": "address"
        }
      ],
      "name": "OwnershipTransferred",
      "type": "event"
    },
    {
      "anonymous": false,
      "inputs": [
        {
          "indexed": true,
          "internalType": "address",
          "name": "from",
          "type": "address"
        },
        {
          "indexed": true,
          "internalType": "address",
          "name": "to",
          "type": "address"
        },
        {
          "indexed": false,
          "internalType": "uint256",
          "name": "value",
          "type": "uint256"
        }
      ],
      "name": "Transfer",
      "type": "event"
    },
    {
      "inputs": [
        {
          "internalType": "address",
          "name": "owner",
          "type": "address"
        },
        {
          "internalType": "address",
          "name": "spender",
          "type": "address"
        }
      ],
      "name": "allowance",
      "outputs": [
        {
          "internalType": "uint256",
          "name": "",
          "type": "uint256"
        }
      ],
      "stateMutability": "view",
      "type": "function",
      "constant": true
    },
    {
      "inputs": [
        {
          "internalType": "address",
          "name": "spender",
          "type": "address"
        },
        {
          "internalType": "uint256",
          "name": "amount",
          "type": "uint256"
        }
      ],
      "name": "approve",
      "outputs": [
        {
          "internalType": "bool",
          "name": "",
          "type": "bool"
        }
      ],
      "stateMutability": "nonpayable",
      "type": "function"
    },
    {
      "inputs": [
        {
          "internalType": "address",
          "name": "account",
          "type": "address"
        }
      ],
      "name": "balanceOf",
      "outputs": [
        {
          "internalType": "uint256",
          "name": "",
          "type": "uint256"
        }
      ],
      "stateMutability": "view",
      "type": "function",
      "constant": true
    },
    {
      "inputs": [
        {
          "internalType": "address",
          "name": "",
          "type": "address"
        }
      ],
      "name": "checkpoints",
      "outputs": [
        {
          "internalType": "uint256",
          "name": "",
          "type": "uint256"
        }
      ],
      "stateMutability": "view",
      "type": "function",
      "constant": true
    },
    {
      "inputs": [],
      "name": "decimals",
      "outputs": [
        {
          "internalType": "uint8",
          "name": "",
          "type": "uint8"
        }
      ],
      "stateMutability": "view",
      "type": "function",
      "constant": true
    },
    {
      "inputs": [
        {
          "internalType": "address",
          "name": "spender",
          "type": "address"
        },
        {
          "internalType": "uint256",
          "name": "subtractedValue",
          "type": "uint256"
        }
      ],
      "name": "decreaseAllowance",
      "outputs": [
        {
          "internalType": "bool",
          "name": "",
          "type": "bool"
        }
      ],
      "stateMutability": "nonpayable",
      "type": "function"
    },
    {
      "inputs": [],
      "name": "end",
      "outputs": [
        {
          "internalType": "uint256",
          "name": "",
          "type": "uint256"
        }
      ],
      "stateMutability": "view",
      "type": "function",
      "constant": true
    },
    {
      "inputs": [],
      "name": "feeAccount",
      "outputs": [
        {
          "internalType": "address",
          "name": "",
          "type": "address"
        }
      ],
      "stateMutability": "view",
      "type": "function",
      "constant": true
    },
    {
      "inputs": [],
      "name": "feePercent",
      "outputs": [
        {
          "internalType": "uint256",
          "name": "",
          "type": "uint256"
        }
      ],
      "stateMutability": "view",
      "type": "function",
      "constant": true
    },
    {
      "inputs": [
        {
          "internalType": "address",
          "name": "",
          "type": "address"
        }
      ],
      "name": "hasStaked",
      "outputs": [
        {
          "internalType": "bool",
          "name": "",
          "type": "bool"
        }
      ],
      "stateMutability": "view",
      "type": "function",
      "constant": true
    },
    {
      "inputs": [
        {
          "internalType": "address",
          "name": "spender",
          "type": "address"
        },
        {
          "internalType": "uint256",
          "name": "addedValue",
          "type": "uint256"
        }
      ],
      "name": "increaseAllowance",
      "outputs": [
        {
          "internalType": "bool",
          "name": "",
          "type": "bool"
        }
      ],
      "stateMutability": "nonpayable",
      "type": "function"
    },
    {
      "inputs": [
        {
          "internalType": "address",
          "name": "",
          "type": "address"
        }
      ],
      "name": "isStaking",
      "outputs": [
        {
          "internalType": "bool",
          "name": "",
          "type": "bool"
        }
      ],
      "stateMutability": "view",
      "type": "function",
      "constant": true
    },
    {
      "inputs": [
        {
          "internalType": "address",
          "name": "",
          "type": "address"
        }
      ],
      "name": "lockedStakingBalance",
      "outputs": [
        {
          "internalType": "uint256",
          "name": "",
          "type": "uint256"
        }
      ],
      "stateMutability": "view",
      "type": "function",
      "constant": true
    },
    {
      "inputs": [],
      "name": "name",
      "outputs": [
        {
          "internalType": "string",
          "name": "",
          "type": "string"
        }
      ],
      "stateMutability": "view",
      "type": "function",
      "constant": true
    },
    {
      "inputs": [],
      "name": "owner",
      "outputs": [
        {
          "internalType": "address",
          "name": "",
          "type": "address"
        }
      ],
      "stateMutability": "view",
      "type": "function",
      "constant": true
    },
    {
      "inputs": [],
      "name": "renounceOwnership",
      "outputs": [],
      "stateMutability": "nonpayable",
      "type": "function"
    },
    {
      "inputs": [
        {
          "internalType": "uint256",
          "name": "",
          "type": "uint256"
        }
      ],
      "name": "stakers",
      "outputs": [
        {
          "internalType": "address",
          "name": "",
          "type": "address"
        }
      ],
      "stateMutability": "view",
      "type": "function",
      "constant": true
    },
    {
      "inputs": [
        {
          "internalType": "address",
          "name": "",
          "type": "address"
        }
      ],
      "name": "stakingBalance",
      "outputs": [
        {
          "internalType": "uint256",
          "name": "",
          "type": "uint256"
        }
      ],
      "stateMutability": "view",
      "type": "function",
      "constant": true
    },
    {
      "inputs": [],
      "name": "symbol",
      "outputs": [
        {
          "internalType": "string",
          "name": "",
          "type": "string"
        }
      ],
      "stateMutability": "view",
      "type": "function",
      "constant": true
    },
    {
      "inputs": [],
      "name": "thothToken",
      "outputs": [
        {
          "internalType": "contract IERC20",
          "name": "",
          "type": "address"
        }
      ],
      "stateMutability": "view",
      "type": "function",
      "constant": true
    },
    {
      "inputs": [
        {
          "internalType": "address",
          "name": "",
          "type": "address"
        },
        {
          "internalType": "address",
          "name": "",
          "type": "address"
        }
      ],
      "name": "tokens",
      "outputs": [
        {
          "internalType": "uint256",
          "name": "",
          "type": "uint256"
        }
      ],
      "stateMutability": "view",
      "type": "function",
      "constant": true
    },
    {
      "inputs": [],
      "name": "totalSupply",
      "outputs": [
        {
          "internalType": "uint256",
          "name": "",
          "type": "uint256"
        }
      ],
      "stateMutability": "view",
      "type": "function",
      "constant": true
    },
    {
      "inputs": [
        {
          "internalType": "address",
          "name": "recipient",
          "type": "address"
        },
        {
          "internalType": "uint256",
          "name": "amount",
          "type": "uint256"
        }
      ],
      "name": "transfer",
      "outputs": [
        {
          "internalType": "bool",
          "name": "",
          "type": "bool"
        }
      ],
      "stateMutability": "nonpayable",
      "type": "function"
    },
    {
      "inputs": [
        {
          "internalType": "address",
          "name": "sender",
          "type": "address"
        },
        {
          "internalType": "address",
          "name": "recipient",
          "type": "address"
        },
        {
          "internalType": "uint256",
          "name": "amount",
          "type": "uint256"
        }
      ],
      "name": "transferFrom",
      "outputs": [
        {
          "internalType": "bool",
          "name": "",
          "type": "bool"
        }
      ],
      "stateMutability": "nonpayable",
      "type": "function"
    },
    {
      "inputs": [
        {
          "internalType": "address",
          "name": "newOwner",
          "type": "address"
        }
      ],
      "name": "transferOwnership",
      "outputs": [],
      "stateMutability": "nonpayable",
      "type": "function"
    },
    {
      "inputs": [],
      "name": "underlyingToken",
      "outputs": [
        {
          "internalType": "contract UnderlyingToken",
          "name": "",
          "type": "address"
        }
      ],
      "stateMutability": "view",
      "type": "function",
      "constant": true
    },
    {
      "inputs": [
        {
          "internalType": "uint256",
          "name": "amount",
          "type": "uint256"
        }
      ],
      "name": "deposit",
      "outputs": [],
      "stateMutability": "nonpayable",
      "type": "function"
    },
    {
      "inputs": [
        {
          "internalType": "uint256",
          "name": "amount",
          "type": "uint256"
        }
      ],
      "name": "lockedDeposit",
      "outputs": [],
      "stateMutability": "nonpayable",
      "type": "function"
    },
    {
      "inputs": [
        {
          "internalType": "uint256",
          "name": "amount",
          "type": "uint256"
        }
      ],
      "name": "withdraw",
      "outputs": [],
      "stateMutability": "nonpayable",
      "type": "function"
    },
    {
      "inputs": [
        {
          "internalType": "uint256",
          "name": "amount",
          "type": "uint256"
        }
      ],
      "name": "lockedWithdraw",
      "outputs": [],
      "stateMutability": "nonpayable",
      "type": "function"
    }
  ],
  "bytecode": "0x60a0604052600a60085560146009556032600b553480156200002057600080fd5b5060405162003c9e38038062003c9e83398181016040528101906200004691906200033f565b6040518060400160405280600881526020017f4c7020546f6b656e0000000000000000000000000000000000000000000000008152506040518060400160405280600381526020017f4c544b00000000000000000000000000000000000000000000000000000000008152508160039080519060200190620000ca92919062000278565b508060049080519060200190620000e392919062000278565b5050506000620000f86200024560201b60201c565b905080600560006101000a81548173ffffffffffffffffffffffffffffffffffffffff021916908373ffffffffffffffffffffffffffffffffffffffff1602179055508073ffffffffffffffffffffffffffffffffffffffff16600073ffffffffffffffffffffffffffffffffffffffff167f8be0079c531659141344cd1fd0a4f28419497f9722a3daafe3b4186f6b6457e060405160405180910390a35081600660006101000a81548173ffffffffffffffffffffffffffffffffffffffff021916908373ffffffffffffffffffffffffffffffffffffffff16021790555080600760006101000a81548173ffffffffffffffffffffffffffffffffffffffff021916908373ffffffffffffffffffffffffffffffffffffffff160217905550620002366202a300426200024d60201b62001ba81790919060201c565b608081815250505050620004c9565b600033905090565b60008082846200025e919062000380565b9050838110156200026e57600080fd5b8091505092915050565b82805462000286906200041b565b90600052602060002090601f016020900481019282620002aa5760008555620002f6565b82601f10620002c557805160ff1916838001178555620002f6565b82800160010185558215620002f6579182015b82811115620002f5578251825591602001919060010190620002d8565b5b50905062000305919062000309565b5090565b5b80821115620003245760008160009055506001016200030a565b5090565b6000815190506200033981620004af565b92915050565b600080604083850312156200035357600080fd5b6000620003638582860162000328565b9250506020620003768582860162000328565b9150509250929050565b60006200038d8262000411565b91506200039a8362000411565b9250827fffffffffffffffffffffffffffffffffffffffffffffffffffffffffffffffff03821115620003d257620003d162000451565b5b828201905092915050565b6000620003ea82620003f1565b9050919050565b600073ffffffffffffffffffffffffffffffffffffffff82169050919050565b6000819050919050565b600060028204905060018216806200043457607f821691505b602082108114156200044b576200044a62000480565b5b50919050565b7f4e487b7100000000000000000000000000000000000000000000000000000000600052601160045260246000fd5b7f4e487b7100000000000000000000000000000000000000000000000000000000600052602260045260246000fd5b620004ba81620003dd565b8114620004c657600080fd5b50565b6080516137b2620004ec60003960008181610bca015261199b01526137b26000f3fe608060405234801561001057600080fd5b50600436106101da5760003560e01c80637fd6f15c11610104578063b6b55f25116100a2578063dd62ed3e11610071578063dd62ed3e146105a7578063efbe1c1c146105d7578063f2fde38b146105f5578063fd5e6dd114610611576101da565b8063b6b55f25146104fb578063b977f20d14610517578063c93c8f3414610547578063dbb51d6e14610577576101da565b8063a457c2d7116100de578063a457c2d714610461578063a53455a214610491578063a9059cbb146104ad578063b00e163b146104dd576101da565b80637fd6f15c146104075780638da5cb5b1461042557806395d89b4114610443576101da565b8063395093511161017c5780636743d0891161014b5780636743d089146103815780636f49712b1461039d57806370a08231146103cd578063715018a6146103fd576101da565b806339509351146102d357806345bc78ab14610303578063508493bc1461033357806365e17c9d14610363576101da565b806323b872dd116101b857806323b872dd1461024b5780632495a5991461027b5780632e1a7d4d14610299578063313ce567146102b5576101da565b806306fdde03146101df578063095ea7b3146101fd57806318160ddd1461022d575b600080fd5b6101e7610641565b6040516101f4919061324e565b60405180910390f35b61021760048036038101906102129190612b65565b6106d3565b60405161022491906131fd565b60405180910390f35b6102356106f1565b6040516102429190613430565b60405180910390f35b61026560048036038101906102609190612b16565b6106fb565b60405161027291906131fd565b60405180910390f35b6102836107fc565b6040516102909190613233565b60405180910390f35b6102b360048036038101906102ae9190612bca565b610822565b005b6102bd610ab0565b6040516102ca919061344b565b60405180910390f35b6102ed60048036038101906102e89190612b65565b610ab9565b6040516102fa91906131fd565b60405180910390f35b61031d60048036038101906103189190612ab1565b610b65565b60405161032a9190613430565b60405180910390f35b61034d60048036038101906103489190612ada565b610b7d565b60405161035a9190613430565b60405180910390f35b61036b610ba2565b6040516103789190613182565b60405180910390f35b61039b60048036038101906103969190612bca565b610bc8565b005b6103b760048036038101906103b29190612ab1565b610e8c565b6040516103c491906131fd565b60405180910390f35b6103e760048036038101906103e29190612ab1565b610eac565b6040516103f49190613430565b60405180910390f35b610405610ef4565b005b61040f611031565b60405161041c9190613430565b60405180910390f35b61042d611037565b60405161043a9190613182565b60405180910390f35b61044b611061565b604051610458919061324e565b60405180910390f35b61047b60048036038101906104769190612b65565b6110f3565b60405161048891906131fd565b60405180910390f35b6104ab60048036038101906104a69190612bca565b6111e7565b005b6104c760048036038101906104c29190612b65565b611536565b6040516104d491906131fd565b60405180910390f35b6104e5611554565b6040516104f29190613218565b60405180910390f35b61051560048036038101906105109190612bca565b61157a565b005b610531600480360381019061052c9190612ab1565b6118c2565b60405161053e9190613430565b60405180910390f35b610561600480360381019061055c9190612ab1565b6118da565b60405161056e91906131fd565b60405180910390f35b610591600480360381019061058c9190612ab1565b6118fa565b60405161059e9190613430565b60405180910390f35b6105c160048036038101906105bc9190612ada565b611912565b6040516105ce9190613430565b60405180910390f35b6105df611999565b6040516105ec9190613430565b60405180910390f35b61060f600480360381019061060a9190612ab1565b6119bd565b005b61062b60048036038101906106269190612bca565b611b69565b6040516106389190613182565b60405180910390f35b60606003805461065090613667565b80601f016020809104026020016040519081016040528092919081815260200182805461067c90613667565b80156106c95780601f1061069e576101008083540402835291602001916106c9565b820191906000526020600020905b8154815290600101906020018083116106ac57829003601f168201915b5050505050905090565b60006106e76106e0611bd0565b8484611bd8565b6001905092915050565b6000600254905090565b6000610708848484611da3565b6000600160008673ffffffffffffffffffffffffffffffffffffffff1673ffffffffffffffffffffffffffffffffffffffff1681526020019081526020016000206000610753611bd0565b73ffffffffffffffffffffffffffffffffffffffff1673ffffffffffffffffffffffffffffffffffffffff168152602001908152602001600020549050828110156107d3576040517f08c379a00000000000000000000000000000000000000000000000000000000081526004016107ca90613310565b60405180910390fd5b6107f0856107df611bd0565b85846107eb9190613563565b611bd8565b60019150509392505050565b600660009054906101000a900473ffffffffffffffffffffffffffffffffffffffff1681565b6000600e60003373ffffffffffffffffffffffffffffffffffffffff1673ffffffffffffffffffffffffffffffffffffffff168152602001908152602001600020549050600081116108a9576040517f08c379a00000000000000000000000000000000000000000000000000000000081526004016108a090613370565b60405180910390fd5b816108b333610eac565b10156108f4576040517f08c379a00000000000000000000000000000000000000000000000000000000081526004016108eb90613330565b60405180910390fd5b6000600e60003373ffffffffffffffffffffffffffffffffffffffff1673ffffffffffffffffffffffffffffffffffffffff168152602001908152602001600020819055506000601160003373ffffffffffffffffffffffffffffffffffffffff1673ffffffffffffffffffffffffffffffffffffffff16815260200190815260200160002060006101000a81548160ff0219169083151502179055506000601060003373ffffffffffffffffffffffffffffffffffffffff1673ffffffffffffffffffffffffffffffffffffffff16815260200190815260200160002060006101000a81548160ff0219169083151502179055506109f233612022565b600660009054906101000a900473ffffffffffffffffffffffffffffffffffffffff1673ffffffffffffffffffffffffffffffffffffffff1663a9059cbb33846040518363ffffffff1660e01b8152600401610a4f9291906131d4565b602060405180830381600087803b158015610a6957600080fd5b505af1158015610a7d573d6000803e3d6000fd5b505050506040513d601f19601f82011682018060405250810190610aa19190612ba1565b50610aac33836121a4565b5050565b60006012905090565b6000610b5b610ac6611bd0565b848460016000610ad4611bd0565b73ffffffffffffffffffffffffffffffffffffffff1673ffffffffffffffffffffffffffffffffffffffff16815260200190815260200160002060008873ffffffffffffffffffffffffffffffffffffffff1673ffffffffffffffffffffffffffffffffffffffff16815260200190815260200160002054610b569190613482565b611bd8565b6001905092915050565b600e6020528060005260406000206000915090505481565b6012602052816000526040600020602052806000526040600020600091509150505481565b600a60009054906101000a900473ffffffffffffffffffffffffffffffffffffffff1681565b7f00000000000000000000000000000000000000000000000000000000000000004210610e7f576000600f60003373ffffffffffffffffffffffffffffffffffffffff1673ffffffffffffffffffffffffffffffffffffffff16815260200190815260200160002054905060008111610c76576040517f08c379a0000000000000000000000000000000000000000000000000000000008152600401610c6d90613370565b60405180910390fd5b81610c8033610eac565b1015610cc1576040517f08c379a0000000000000000000000000000000000000000000000000000000008152600401610cb890613330565b60405180910390fd5b6000600f60003373ffffffffffffffffffffffffffffffffffffffff1673ffffffffffffffffffffffffffffffffffffffff168152602001908152602001600020819055506000601160003373ffffffffffffffffffffffffffffffffffffffff1673ffffffffffffffffffffffffffffffffffffffff16815260200190815260200160002060006101000a81548160ff0219169083151502179055506000601060003373ffffffffffffffffffffffffffffffffffffffff1673ffffffffffffffffffffffffffffffffffffffff16815260200190815260200160002060006101000a81548160ff021916908315150217905550610dbf33612378565b600660009054906101000a900473ffffffffffffffffffffffffffffffffffffffff1673ffffffffffffffffffffffffffffffffffffffff1663a9059cbb33846040518363ffffffff1660e01b8152600401610e1c9291906131d4565b602060405180830381600087803b158015610e3657600080fd5b505af1158015610e4a573d6000803e3d6000fd5b505050506040513d601f19601f82011682018060405250810190610e6e9190612ba1565b50610e7933836121a4565b50610e89565b610e8881612506565b5b50565b60116020528060005260406000206000915054906101000a900460ff1681565b60008060008373ffffffffffffffffffffffffffffffffffffffff1673ffffffffffffffffffffffffffffffffffffffff168152602001908152602001600020549050919050565b610efc611bd0565b73ffffffffffffffffffffffffffffffffffffffff16610f1a611037565b73ffffffffffffffffffffffffffffffffffffffff1614610f70576040517f08c379a0000000000000000000000000000000000000000000000000000000008152600401610f6790613350565b60405180910390fd5b600073ffffffffffffffffffffffffffffffffffffffff16600560009054906101000a900473ffffffffffffffffffffffffffffffffffffffff1673ffffffffffffffffffffffffffffffffffffffff167f8be0079c531659141344cd1fd0a4f28419497f9722a3daafe3b4186f6b6457e060405160405180910390a36000600560006101000a81548173ffffffffffffffffffffffffffffffffffffffff021916908373ffffffffffffffffffffffffffffffffffffffff160217905550565b600b5481565b6000600560009054906101000a900473ffffffffffffffffffffffffffffffffffffffff16905090565b60606004805461107090613667565b80601f016020809104026020016040519081016040528092919081815260200182805461109c90613667565b80156110e95780601f106110be576101008083540402835291602001916110e9565b820191906000526020600020905b8154815290600101906020018083116110cc57829003601f168201915b5050505050905090565b60008060016000611102611bd0565b73ffffffffffffffffffffffffffffffffffffffff1673ffffffffffffffffffffffffffffffffffffffff16815260200190815260200160002060008573ffffffffffffffffffffffffffffffffffffffff1673ffffffffffffffffffffffffffffffffffffffff168152602001908152602001600020549050828110156111bf576040517f08c379a00000000000000000000000000000000000000000000000000000000081526004016111b6906133f0565b60405180910390fd5b6111dc6111ca611bd0565b8585846111d79190613563565b611bd8565b600191505092915050565b6000600d60003373ffffffffffffffffffffffffffffffffffffffff1673ffffffffffffffffffffffffffffffffffffffff1681526020019081526020016000205414156112745743600d60003373ffffffffffffffffffffffffffffffffffffffff1673ffffffffffffffffffffffffffffffffffffffff168152602001908152602001600020819055505b61127d33612378565b600660009054906101000a900473ffffffffffffffffffffffffffffffffffffffff1673ffffffffffffffffffffffffffffffffffffffff166323b872dd3330846040518463ffffffff1660e01b81526004016112dc9392919061319d565b602060405180830381600087803b1580156112f657600080fd5b505af115801561130a573d6000803e3d6000fd5b505050506040513d601f19601f8201168201806040525081019061132e9190612ba1565b5061138181600f60003373ffffffffffffffffffffffffffffffffffffffff1673ffffffffffffffffffffffffffffffffffffffff16815260200190815260200160002054611ba890919063ffffffff16565b600f60003373ffffffffffffffffffffffffffffffffffffffff1673ffffffffffffffffffffffffffffffffffffffff168152602001908152602001600020819055506113ce3382612883565b601060003373ffffffffffffffffffffffffffffffffffffffff1673ffffffffffffffffffffffffffffffffffffffff16815260200190815260200160002060009054906101000a900460ff1661148357600c339080600181540180825580915050600190039060005260206000200160009091909190916101000a81548173ffffffffffffffffffffffffffffffffffffffff021916908373ffffffffffffffffffffffffffffffffffffffff1602179055505b6001601060003373ffffffffffffffffffffffffffffffffffffffff1673ffffffffffffffffffffffffffffffffffffffff16815260200190815260200160002060006101000a81548160ff0219169083151502179055506001601160003373ffffffffffffffffffffffffffffffffffffffff1673ffffffffffffffffffffffffffffffffffffffff16815260200190815260200160002060006101000a81548160ff02191690831515021790555050565b600061154a611543611bd0565b8484611da3565b6001905092915050565b600760009054906101000a900473ffffffffffffffffffffffffffffffffffffffff1681565b6000600d60003373ffffffffffffffffffffffffffffffffffffffff1673ffffffffffffffffffffffffffffffffffffffff1681526020019081526020016000205414156116075743600d60003373ffffffffffffffffffffffffffffffffffffffff1673ffffffffffffffffffffffffffffffffffffffff168152602001908152602001600020819055505b61161033612022565b600660009054906101000a900473ffffffffffffffffffffffffffffffffffffffff1673ffffffffffffffffffffffffffffffffffffffff166323b872dd3330846040518463ffffffff1660e01b815260040161166f9392919061319d565b602060405180830381600087803b15801561168957600080fd5b505af115801561169d573d6000803e3d6000fd5b505050506040513d601f19601f820116820180604052508101906116c19190612ba1565b5080600e60003373ffffffffffffffffffffffffffffffffffffffff1673ffffffffffffffffffffffffffffffffffffffff1681526020019081526020016000205461170d9190613482565b600e60003373ffffffffffffffffffffffffffffffffffffffff1673ffffffffffffffffffffffffffffffffffffffff1681526020019081526020016000208190555061175a3382612883565b601060003373ffffffffffffffffffffffffffffffffffffffff1673ffffffffffffffffffffffffffffffffffffffff16815260200190815260200160002060009054906101000a900460ff1661180f57600c339080600181540180825580915050600190039060005260206000200160009091909190916101000a81548173ffffffffffffffffffffffffffffffffffffffff021916908373ffffffffffffffffffffffffffffffffffffffff1602179055505b6001601060003373ffffffffffffffffffffffffffffffffffffffff1673ffffffffffffffffffffffffffffffffffffffff16815260200190815260200160002060006101000a81548160ff0219169083151502179055506001601160003373ffffffffffffffffffffffffffffffffffffffff1673ffffffffffffffffffffffffffffffffffffffff16815260200190815260200160002060006101000a81548160ff02191690831515021790555050565b600f6020528060005260406000206000915090505481565b60106020528060005260406000206000915054906101000a900460ff1681565b600d6020528060005260406000206000915090505481565b6000600160008473ffffffffffffffffffffffffffffffffffffffff1673ffffffffffffffffffffffffffffffffffffffff16815260200190815260200160002060008373ffffffffffffffffffffffffffffffffffffffff1673ffffffffffffffffffffffffffffffffffffffff16815260200190815260200160002054905092915050565b7f000000000000000000000000000000000000000000000000000000000000000081565b6119c5611bd0565b73ffffffffffffffffffffffffffffffffffffffff166119e3611037565b73ffffffffffffffffffffffffffffffffffffffff1614611a39576040517f08c379a0000000000000000000000000000000000000000000000000000000008152600401611a3090613350565b60405180910390fd5b600073ffffffffffffffffffffffffffffffffffffffff168173ffffffffffffffffffffffffffffffffffffffff161415611aa9576040517f08c379a0000000000000000000000000000000000000000000000000000000008152600401611aa0906132b0565b60405180910390fd5b8073ffffffffffffffffffffffffffffffffffffffff16600560009054906101000a900473ffffffffffffffffffffffffffffffffffffffff1673ffffffffffffffffffffffffffffffffffffffff167f8be0079c531659141344cd1fd0a4f28419497f9722a3daafe3b4186f6b6457e060405160405180910390a380600560006101000a81548173ffffffffffffffffffffffffffffffffffffffff021916908373ffffffffffffffffffffffffffffffffffffffff16021790555050565b600c8181548110611b7957600080fd5b906000526020600020016000915054906101000a900473ffffffffffffffffffffffffffffffffffffffff1681565b6000808284611bb79190613482565b905083811015611bc657600080fd5b8091505092915050565b600033905090565b600073ffffffffffffffffffffffffffffffffffffffff168373ffffffffffffffffffffffffffffffffffffffff161415611c48576040517f08c379a0000000000000000000000000000000000000000000000000000000008152600401611c3f906133d0565b60405180910390fd5b600073ffffffffffffffffffffffffffffffffffffffff168273ffffffffffffffffffffffffffffffffffffffff161415611cb8576040517f08c379a0000000000000000000000000000000000000000000000000000000008152600401611caf906132d0565b60405180910390fd5b80600160008573ffffffffffffffffffffffffffffffffffffffff1673ffffffffffffffffffffffffffffffffffffffff16815260200190815260200160002060008473ffffffffffffffffffffffffffffffffffffffff1673ffffffffffffffffffffffffffffffffffffffff168152602001908152602001600020819055508173ffffffffffffffffffffffffffffffffffffffff168373ffffffffffffffffffffffffffffffffffffffff167f8c5be1e5ebec7d5bd14f71427d1e84f3dd0314c0f7b2291e5b200ac8c7c3b92583604051611d969190613430565b60405180910390a3505050565b600073ffffffffffffffffffffffffffffffffffffffff168373ffffffffffffffffffffffffffffffffffffffff161415611e13576040517f08c379a0000000000000000000000000000000000000000000000000000000008152600401611e0a906133b0565b60405180910390fd5b600073ffffffffffffffffffffffffffffffffffffffff168273ffffffffffffffffffffffffffffffffffffffff161415611e83576040517f08c379a0000000000000000000000000000000000000000000000000000000008152600401611e7a90613270565b60405180910390fd5b611e8e8383836129d7565b60008060008573ffffffffffffffffffffffffffffffffffffffff1673ffffffffffffffffffffffffffffffffffffffff16815260200190815260200160002054905081811015611f14576040517f08c379a0000000000000000000000000000000000000000000000000000000008152600401611f0b906132f0565b60405180910390fd5b8181611f209190613563565b6000808673ffffffffffffffffffffffffffffffffffffffff1673ffffffffffffffffffffffffffffffffffffffff16815260200190815260200160002081905550816000808573ffffffffffffffffffffffffffffffffffffffff1673ffffffffffffffffffffffffffffffffffffffff1681526020019081526020016000206000828254611fb09190613482565b925050819055508273ffffffffffffffffffffffffffffffffffffffff168473ffffffffffffffffffffffffffffffffffffffff167fddf252ad1be2c89b69c2b068fc378daa952ba7f163c4a11628f55a4df523b3ef846040516120149190613430565b60405180910390a350505050565b6000600d60008373ffffffffffffffffffffffffffffffffffffffff1673ffffffffffffffffffffffffffffffffffffffff168152602001908152602001600020549050600081436120749190613563565b11156121a0576000600854824361208b9190613563565b61209485610eac565b61209e9190613509565b6120a891906134d8565b9050600760009054906101000a900473ffffffffffffffffffffffffffffffffffffffff1673ffffffffffffffffffffffffffffffffffffffff1663a9059cbb84836040518363ffffffff1660e01b81526004016121079291906131d4565b602060405180830381600087803b15801561212157600080fd5b505af1158015612135573d6000803e3d6000fd5b505050506040513d601f19601f820116820180604052508101906121599190612ba1565b5043600d60008573ffffffffffffffffffffffffffffffffffffffff1673ffffffffffffffffffffffffffffffffffffffff16815260200190815260200160002081905550505b5050565b600073ffffffffffffffffffffffffffffffffffffffff168273ffffffffffffffffffffffffffffffffffffffff161415612214576040517f08c379a000000000000000000000000000000000000000000000000000000000815260040161220b90613390565b60405180910390fd5b612220826000836129d7565b60008060008473ffffffffffffffffffffffffffffffffffffffff1673ffffffffffffffffffffffffffffffffffffffff168152602001908152602001600020549050818110156122a6576040517f08c379a000000000000000000000000000000000000000000000000000000000815260040161229d90613290565b60405180910390fd5b81816122b29190613563565b6000808573ffffffffffffffffffffffffffffffffffffffff1673ffffffffffffffffffffffffffffffffffffffff1681526020019081526020016000208190555081600260008282546123069190613563565b92505081905550600073ffffffffffffffffffffffffffffffffffffffff168373ffffffffffffffffffffffffffffffffffffffff167fddf252ad1be2c89b69c2b068fc378daa952ba7f163c4a11628f55a4df523b3ef8460405161236b9190613430565b60405180910390a3505050565b6000600d60008373ffffffffffffffffffffffffffffffffffffffff1673ffffffffffffffffffffffffffffffffffffffff168152602001908152602001600020549050600081436123ca9190613563565b111561250257600081436123de9190613563565b60095460646123ec86610eac565b6123f691906134d8565b6124009190613509565b61240a9190613482565b9050600760009054906101000a900473ffffffffffffffffffffffffffffffffffffffff1673ffffffffffffffffffffffffffffffffffffffff1663a9059cbb84836040518363ffffffff1660e01b81526004016124699291906131d4565b602060405180830381600087803b15801561248357600080fd5b505af1158015612497573d6000803e3d6000fd5b505050506040513d601f19601f820116820180604052508101906124bb9190612ba1565b5043600d60008573ffffffffffffffffffffffffffffffffffffffff1673ffffffffffffffffffffffffffffffffffffffff16815260200190815260200160002081905550505b5050565b6000600f60003373ffffffffffffffffffffffffffffffffffffffff1673ffffffffffffffffffffffffffffffffffffffff16815260200190815260200160002054905060006125746064612566600b54866129dc90919063ffffffff16565b612a2190919063ffffffff16565b9050600082116125b9576040517f08c379a00000000000000000000000000000000000000000000000000000000081526004016125b090613370565b60405180910390fd5b826125c333610eac565b1015612604576040517f08c379a00000000000000000000000000000000000000000000000000000000081526004016125fb90613330565b60405180910390fd5b6000600f60003373ffffffffffffffffffffffffffffffffffffffff1673ffffffffffffffffffffffffffffffffffffffff168152602001908152602001600020819055506000601160003373ffffffffffffffffffffffffffffffffffffffff1673ffffffffffffffffffffffffffffffffffffffff16815260200190815260200160002060006101000a81548160ff0219169083151502179055506000601060003373ffffffffffffffffffffffffffffffffffffffff1673ffffffffffffffffffffffffffffffffffffffff16815260200190815260200160002060006101000a81548160ff02191690831515021790555061270233612378565b600660009054906101000a900473ffffffffffffffffffffffffffffffffffffffff1673ffffffffffffffffffffffffffffffffffffffff1663a9059cbb336127548487612a4990919063ffffffff16565b6040518363ffffffff1660e01b81526004016127719291906131d4565b602060405180830381600087803b15801561278b57600080fd5b505af115801561279f573d6000803e3d6000fd5b505050506040513d601f19601f820116820180604052508101906127c39190612ba1565b50600660009054906101000a900473ffffffffffffffffffffffffffffffffffffffff1673ffffffffffffffffffffffffffffffffffffffff1663a9059cbb30836040518363ffffffff1660e01b81526004016128219291906131d4565b602060405180830381600087803b15801561283b57600080fd5b505af115801561284f573d6000803e3d6000fd5b505050506040513d601f19601f820116820180604052508101906128739190612ba1565b5061287e33846121a4565b505050565b600073ffffffffffffffffffffffffffffffffffffffff168273ffffffffffffffffffffffffffffffffffffffff1614156128f3576040517f08c379a00000000000000000000000000000000000000000000000000000000081526004016128ea90613410565b60405180910390fd5b6128ff600083836129d7565b80600260008282546129119190613482565b92505081905550806000808473ffffffffffffffffffffffffffffffffffffffff1673ffffffffffffffffffffffffffffffffffffffff16815260200190815260200160002060008282546129669190613482565b925050819055508173ffffffffffffffffffffffffffffffffffffffff16600073ffffffffffffffffffffffffffffffffffffffff167fddf252ad1be2c89b69c2b068fc378daa952ba7f163c4a11628f55a4df523b3ef836040516129cb9190613430565b60405180910390a35050565b505050565b6000808314156129ef5760009050612a1b565b600082846129fd9190613509565b9050828482612a0c91906134d8565b14612a1657600080fd5b809150505b92915050565b6000808211612a2f57600080fd5b60008284612a3d91906134d8565b90508091505092915050565b600082821115612a5857600080fd5b60008284612a669190613563565b90508091505092915050565b600081359050612a8181613737565b92915050565b600081519050612a968161374e565b92915050565b600081359050612aab81613765565b92915050565b600060208284031215612ac357600080fd5b6000612ad184828501612a72565b91505092915050565b60008060408385031215612aed57600080fd5b6000612afb85828601612a72565b9250506020612b0c85828601612a72565b9150509250929050565b600080600060608486031215612b2b57600080fd5b6000612b3986828701612a72565b9350506020612b4a86828701612a72565b9250506040612b5b86828701612a9c565b9150509250925092565b60008060408385031215612b7857600080fd5b6000612b8685828601612a72565b9250506020612b9785828601612a9c565b9150509250929050565b600060208284031215612bb357600080fd5b6000612bc184828501612a87565b91505092915050565b600060208284031215612bdc57600080fd5b6000612bea84828501612a9c565b91505092915050565b612bfc81613597565b82525050565b612c0b816135a9565b82525050565b612c1a816135ec565b82525050565b612c2981613610565b82525050565b6000612c3a82613466565b612c448185613471565b9350612c54818560208601613634565b612c5d81613726565b840191505092915050565b6000612c75602383613471565b91507f45524332303a207472616e7366657220746f20746865207a65726f206164647260008301527f65737300000000000000000000000000000000000000000000000000000000006020830152604082019050919050565b6000612cdb602283613471565b91507f45524332303a206275726e20616d6f756e7420657863656564732062616c616e60008301527f63650000000000000000000000000000000000000000000000000000000000006020830152604082019050919050565b6000612d41602683613471565b91507f4f776e61626c653a206e6577206f776e657220697320746865207a65726f206160008301527f64647265737300000000000000000000000000000000000000000000000000006020830152604082019050919050565b6000612da7602283613471565b91507f45524332303a20617070726f766520746f20746865207a65726f20616464726560008301527f73730000000000000000000000000000000000000000000000000000000000006020830152604082019050919050565b6000612e0d602683613471565b91507f45524332303a207472616e7366657220616d6f756e742065786365656473206260008301527f616c616e636500000000000000000000000000000000000000000000000000006020830152604082019050919050565b6000612e73602883613471565b91507f45524332303a207472616e7366657220616d6f756e742065786365656473206160008301527f6c6c6f77616e63650000000000000000000000000000000000000000000000006020830152604082019050919050565b6000612ed9601483613471565b91507f6e6f7420656e6f756768204c5020546f6b656e730000000000000000000000006000830152602082019050919050565b6000612f19602083613471565b91507f4f776e61626c653a2063616c6c6572206973206e6f7420746865206f776e65726000830152602082019050919050565b6000612f59601483613471565b91507f696e73756666696369656e742062616c616e63650000000000000000000000006000830152602082019050919050565b6000612f99602183613471565b91507f45524332303a206275726e2066726f6d20746865207a65726f2061646472657360008301527f73000000000000000000000000000000000000000000000000000000000000006020830152604082019050919050565b6000612fff602583613471565b91507f45524332303a207472616e736665722066726f6d20746865207a65726f20616460008301527f64726573730000000000000000000000000000000000000000000000000000006020830152604082019050919050565b6000613065602483613471565b91507f45524332303a20617070726f76652066726f6d20746865207a65726f2061646460008301527f72657373000000000000000000000000000000000000000000000000000000006020830152604082019050919050565b60006130cb602583613471565b91507f45524332303a2064656372656173656420616c6c6f77616e63652062656c6f7760008301527f207a65726f0000000000000000000000000000000000000000000000000000006020830152604082019050919050565b6000613131601f83613471565b91507f45524332303a206d696e7420746f20746865207a65726f2061646472657373006000830152602082019050919050565b61316d816135d5565b82525050565b61317c816135df565b82525050565b60006020820190506131976000830184612bf3565b92915050565b60006060820190506131b26000830186612bf3565b6131bf6020830185612bf3565b6131cc6040830184613164565b949350505050565b60006040820190506131e96000830185612bf3565b6131f66020830184613164565b9392505050565b60006020820190506132126000830184612c02565b92915050565b600060208201905061322d6000830184612c11565b92915050565b60006020820190506132486000830184612c20565b92915050565b600060208201905081810360008301526132688184612c2f565b905092915050565b6000602082019050818103600083015261328981612c68565b9050919050565b600060208201905081810360008301526132a981612cce565b9050919050565b600060208201905081810360008301526132c981612d34565b9050919050565b600060208201905081810360008301526132e981612d9a565b9050919050565b6000602082019050818103600083015261330981612e00565b9050919050565b6000602082019050818103600083015261332981612e66565b9050919050565b6000602082019050818103600083015261334981612ecc565b9050919050565b6000602082019050818103600083015261336981612f0c565b9050919050565b6000602082019050818103600083015261338981612f4c565b9050919050565b600060208201905081810360008301526133a981612f8c565b9050919050565b600060208201905081810360008301526133c981612ff2565b9050919050565b600060208201905081810360008301526133e981613058565b9050919050565b60006020820190508181036000830152613409816130be565b9050919050565b6000602082019050818103600083015261342981613124565b9050919050565b60006020820190506134456000830184613164565b92915050565b60006020820190506134606000830184613173565b92915050565b600081519050919050565b600082825260208201905092915050565b600061348d826135d5565b9150613498836135d5565b9250827fffffffffffffffffffffffffffffffffffffffffffffffffffffffffffffffff038211156134cd576134cc613699565b5b828201905092915050565b60006134e3826135d5565b91506134ee836135d5565b9250826134fe576134fd6136c8565b5b828204905092915050565b6000613514826135d5565b915061351f836135d5565b9250817fffffffffffffffffffffffffffffffffffffffffffffffffffffffffffffffff048311821515161561355857613557613699565b5b828202905092915050565b600061356e826135d5565b9150613579836135d5565b92508282101561358c5761358b613699565b5b828203905092915050565b60006135a2826135b5565b9050919050565b60008115159050919050565b600073ffffffffffffffffffffffffffffffffffffffff82169050919050565b6000819050919050565b600060ff82169050919050565b60006135f7826135fe565b9050919050565b6000613609826135b5565b9050919050565b600061361b82613622565b9050919050565b600061362d826135b5565b9050919050565b60005b83811015613652578082015181840152602081019050613637565b83811115613661576000848401525b50505050565b6000600282049050600182168061367f57607f821691505b60208210811415613693576136926136f7565b5b50919050565b7f4e487b7100000000000000000000000000000000000000000000000000000000600052601160045260246000fd5b7f4e487b7100000000000000000000000000000000000000000000000000000000600052601260045260246000fd5b7f4e487b7100000000000000000000000000000000000000000000000000000000600052602260045260246000fd5b6000601f19601f8301169050919050565b61374081613597565b811461374b57600080fd5b50565b613757816135a9565b811461376257600080fd5b50565b61376e816135d5565b811461377957600080fd5b5056fea26469706673582212201480c3f760a2c0b87c27fe4ee06fb1ad2e31133ab705e69fa9c4d7d7c140399b64736f6c63430008000033",
  "immutableReferences": {
    "480": [
      {
        "length": 32,
        "start": 3018
      },
      {
        "length": 32,
        "start": 6555
      }
    ]
  },
  "source": "pragma solidity ^0.8.0;\r\n\r\nimport './UnderlyingToken.sol';\r\nimport './LpToken.sol';\r\nimport '@openzeppelin/contracts/token/ERC20/IERC20.sol';\r\nimport \"openzeppelin-solidity/contracts/math/SafeMath.sol\";\r\nimport '@openzeppelin/contracts/access/Ownable.sol';\r\n\r\n\r\n\r\ncontract LiquidityPool is LpToken, Ownable {\r\n\tusing SafeMath for uint;\r\n\r\n\tUnderlyingToken public underlyingToken;\r\n\tIERC20 public thothToken;\r\n\t// uint constant public REWARD_PER_BLOCK = 1;\r\n\tuint private REWARD_PERCENTAGE = 10;\r\n\tuint private LOCKED_REWARD_PERCENTAGE = 20;\r\n\taddress public feeAccount; // account for exchange fees\r\n\tuint256 public feePercent = 50; // percent for the exchange\r\n\r\n\r\n\tuint private constant duration = 2 days;\r\n\tuint public immutable end;\r\n\r\n\r\n\taddress[] public stakers;\r\n\tmapping(address => uint) public checkpoints;\r\n    mapping(address => uint) public stakingBalance;\r\n    mapping(address => uint) public lockedStakingBalance;\r\n    mapping(address => bool) public hasStaked;\r\n    mapping(address => bool) public isStaking;\r\n    mapping(address => mapping(address => uint256)) public tokens;\r\n\r\n\r\n\r\n\r\n\r\n\tconstructor(address _underlyingToken, address _governanceToken) {\r\n\t\tunderlyingToken = UnderlyingToken(_underlyingToken);\r\n\t\tthothToken = IERC20(_governanceToken);\r\n\t\tend = block.timestamp.add(duration);\r\n\t}\r\n\r\n\r\n\r\n\r\n\tfunction deposit(uint amount) external {\r\n\t\tif(checkpoints[msg.sender] == 0) {\r\n\t\t\tcheckpoints[msg.sender] = block.number;\r\n\t\t}\r\n\r\n\t\t_distributeRewards(msg.sender);\r\n\t\tunderlyingToken.transferFrom(msg.sender, address(this), amount);\r\n\r\n\t\t// update staking balance\r\n        stakingBalance[msg.sender] = stakingBalance[msg.sender] + amount;\r\n\r\n\t\t_mint(msg.sender, amount);\r\n\r\n\t\t// add user to stakers array only if they haven\"t staked\r\n        if(!hasStaked[msg.sender]) {\r\n            stakers.push(msg.sender);\r\n        }\r\n\r\n        // update staking staus\r\n        hasStaked[msg.sender] = true;\r\n        isStaking[msg.sender] = true;\r\n\t}\r\n\r\n\tfunction lockedDeposit(uint amount) external {\r\n\t\tif(checkpoints[msg.sender] == 0) {\r\n\t\t\tcheckpoints[msg.sender] = block.number;\r\n\t\t}\r\n\r\n\t\t_distributeRewardsForlockedStaking(msg.sender);\r\n\t\tunderlyingToken.transferFrom(msg.sender, address(this), amount);\r\n\r\n\t\t// update staking balance\r\n        lockedStakingBalance[msg.sender] = lockedStakingBalance[msg.sender].add(amount);\r\n\r\n\t\t_mint(msg.sender, amount);\r\n\r\n\t\t// add user to stakers array only if they haven\"t staked\r\n        if(!hasStaked[msg.sender]) {\r\n            stakers.push(msg.sender);\r\n        }\r\n\r\n        // update staking staus\r\n        hasStaked[msg.sender] = true;\r\n        isStaking[msg.sender] = true;\r\n\r\n\t}\r\n\r\n\tfunction withdraw(uint amount) external {\r\n\t\t// fetch staking balance\r\n        uint balance = stakingBalance[msg.sender];\r\n\r\n        require( balance > 0, \"insufficient balance\");\r\n\t\trequire(balanceOf(msg.sender) >= amount, 'not enough LP Tokens');\r\n\r\n\t\t// reset staking balance\r\n        stakingBalance[msg.sender] = 0;\r\n\r\n        // update staking status\r\n        isStaking[msg.sender] = false;\r\n        hasStaked[msg.sender] = false;\r\n        \r\n\t\t_distributeRewards(msg.sender);\r\n\t\tunderlyingToken.transfer(msg.sender, amount);\r\n\t\t_burn(msg.sender, amount);\r\n\r\n\t}\r\n\r\n\tfunction _withdrawBeforeTimelockexpires(uint amount) internal {\r\n\t\t// fetch staking balance\r\n        uint balance = lockedStakingBalance[msg.sender];\r\n        uint256 _feeAmount = amount.mul(feePercent).div(100);\r\n\r\n        \r\n\r\n        require( balance > 0, \"insufficient balance\");\r\n\t\trequire(balanceOf(msg.sender) >= amount, 'not enough LP Tokens');\r\n\r\n\t\t// reset staking balance\r\n        lockedStakingBalance[msg.sender] = 0;\r\n\r\n        // update staking status\r\n        isStaking[msg.sender] = false;\r\n        hasStaked[msg.sender] = false;\r\n        \r\n\t\t_distributeRewardsForlockedStaking(msg.sender);\r\n\t\tunderlyingToken.transfer(msg.sender, amount.sub(_feeAmount));\r\n\t\tunderlyingToken.transfer(address(this), _feeAmount);\r\n\t\t_burn(msg.sender, amount);\r\n\r\n\t}\r\n\r\n\tfunction lockedWithdraw(uint amount) external {\r\n\t\tif(block.timestamp >= end) {\r\n\t\t\t// fetch staking balance\r\n\t        uint balance = lockedStakingBalance[msg.sender];\r\n\t        require( balance > 0, \"insufficient balance\");\r\n\t\t\trequire(balanceOf(msg.sender) >= amount, 'not enough LP Tokens');\r\n\r\n\t\t\t// reset staking balance\r\n\t        lockedStakingBalance[msg.sender] = 0;\r\n\r\n\t        // update staking status\r\n\t        isStaking[msg.sender] = false;\r\n\t        hasStaked[msg.sender] = false;\r\n\t        \r\n\t\t\t_distributeRewardsForlockedStaking(msg.sender);\r\n\t\t\tunderlyingToken.transfer(msg.sender, amount);\r\n\t\t\t_burn(msg.sender, amount);\r\n\t\t} \r\n\t\telse {\r\n\t\t\t_withdrawBeforeTimelockexpires(amount);\r\n\t\t}\r\n\t\t\r\n\t\t\r\n\r\n\t}\r\n\r\n\tfunction _distributeRewardsForlockedStaking(address beneficiary) internal {\r\n\t\tuint checkpoint = checkpoints[beneficiary];\r\n\t\tif(block.number - checkpoint > 0 ) {\r\n\t\t\tuint distributionAmount = (balanceOf(beneficiary) / 100 * LOCKED_REWARD_PERCENTAGE ) + (block.number-checkpoint) ;\r\n\r\n\t\t\tthothToken.transfer(beneficiary, distributionAmount);\r\n\t\t\tcheckpoints[beneficiary] = block.number;\r\n\t\t}\r\n\t}\r\n\r\n\r\n\tfunction _distributeRewards(address beneficiary) internal {\r\n\t\tuint checkpoint = checkpoints[beneficiary];\r\n\t\tif(block.number - checkpoint > 0 ) {\r\n\t\t\tuint distributionAmount = balanceOf(beneficiary) * (block.number - checkpoint ) / REWARD_PERCENTAGE;\r\n\r\n\t\t\tthothToken.transfer(beneficiary, distributionAmount);\r\n\t\t\tcheckpoints[beneficiary] = block.number;\r\n\t\t}\r\n\t}\r\n}",
  "sourcePath": "/mnt/c/pr0/liquidity-pool/liquidity-mining/contracts/LiquidityPool.sol",
  "compiler": {
    "name": "solc",
    "version": "0.8.0+commit.c7dfd78e.Emscripten.clang"
  },
  "schemaVersion": "3.4.0",
  "updatedAt": "2021-07-03T00:52:38.417Z",
  "networkType": "ethereum",
  "devdoc": {
    "kind": "dev",
    "methods": {
      "allowance(address,address)": {
        "details": "See {IERC20-allowance}."
      },
      "approve(address,uint256)": {
        "details": "See {IERC20-approve}. Requirements: - `spender` cannot be the zero address."
      },
      "balanceOf(address)": {
        "details": "See {IERC20-balanceOf}."
      },
      "decimals()": {
        "details": "Returns the number of decimals used to get its user representation. For example, if `decimals` equals `2`, a balance of `505` tokens should be displayed to a user as `5,05` (`505 / 10 ** 2`). Tokens usually opt for a value of 18, imitating the relationship between Ether and Wei. This is the value {ERC20} uses, unless this function is overridden; NOTE: This information is only used for _display_ purposes: it in no way affects any of the arithmetic of the contract, including {IERC20-balanceOf} and {IERC20-transfer}."
      },
      "decreaseAllowance(address,uint256)": {
        "details": "Atomically decreases the allowance granted to `spender` by the caller. This is an alternative to {approve} that can be used as a mitigation for problems described in {IERC20-approve}. Emits an {Approval} event indicating the updated allowance. Requirements: - `spender` cannot be the zero address. - `spender` must have allowance for the caller of at least `subtractedValue`."
      },
      "increaseAllowance(address,uint256)": {
        "details": "Atomically increases the allowance granted to `spender` by the caller. This is an alternative to {approve} that can be used as a mitigation for problems described in {IERC20-approve}. Emits an {Approval} event indicating the updated allowance. Requirements: - `spender` cannot be the zero address."
      },
      "name()": {
        "details": "Returns the name of the token."
      },
      "owner()": {
        "details": "Returns the address of the current owner."
      },
      "renounceOwnership()": {
        "details": "Leaves the contract without owner. It will not be possible to call `onlyOwner` functions anymore. Can only be called by the current owner. NOTE: Renouncing ownership will leave the contract without an owner, thereby removing any functionality that is only available to the owner."
      },
      "symbol()": {
        "details": "Returns the symbol of the token, usually a shorter version of the name."
      },
      "totalSupply()": {
        "details": "See {IERC20-totalSupply}."
      },
      "transfer(address,uint256)": {
        "details": "See {IERC20-transfer}. Requirements: - `recipient` cannot be the zero address. - the caller must have a balance of at least `amount`."
      },
      "transferFrom(address,address,uint256)": {
        "details": "See {IERC20-transferFrom}. Emits an {Approval} event indicating the updated allowance. This is not required by the EIP. See the note at the beginning of {ERC20}. Requirements: - `sender` and `recipient` cannot be the zero address. - `sender` must have a balance of at least `amount`. - the caller must have allowance for ``sender``'s tokens of at least `amount`."
      },
      "transferOwnership(address)": {
        "details": "Transfers ownership of the contract to a new account (`newOwner`). Can only be called by the current owner."
      }
    },
    "version": 1
  },
  "userdoc": {
    "kind": "user",
    "methods": {},
    "version": 1
  }
}