{
  "contractName": "LiquidityPool",
  "abi": [
    {
      "inputs": [
        {
          "internalType": "address",
          "name": "_underlyingToken",
          "type": "address"
        },
        {
          "internalType": "address",
          "name": "_governanceToken",
          "type": "address"
        }
      ],
      "stateMutability": "nonpayable",
      "type": "constructor"
    },
    {
      "anonymous": false,
      "inputs": [
        {
          "indexed": true,
          "internalType": "address",
          "name": "owner",
          "type": "address"
        },
        {
          "indexed": true,
          "internalType": "address",
          "name": "spender",
          "type": "address"
        },
        {
          "indexed": false,
          "internalType": "uint256",
          "name": "value",
          "type": "uint256"
        }
      ],
      "name": "Approval",
      "type": "event"
    },
    {
      "anonymous": false,
      "inputs": [
        {
          "indexed": true,
          "internalType": "address",
          "name": "from",
          "type": "address"
        },
        {
          "indexed": true,
          "internalType": "address",
          "name": "to",
          "type": "address"
        },
        {
          "indexed": false,
          "internalType": "uint256",
          "name": "value",
          "type": "uint256"
        }
      ],
      "name": "Transfer",
      "type": "event"
    },
    {
      "inputs": [],
      "name": "REWARD_PER_BLOCK",
      "outputs": [
        {
          "internalType": "uint256",
          "name": "",
          "type": "uint256"
        }
      ],
      "stateMutability": "view",
      "type": "function",
      "constant": true
    },
    {
      "inputs": [
        {
          "internalType": "address",
          "name": "owner",
          "type": "address"
        },
        {
          "internalType": "address",
          "name": "spender",
          "type": "address"
        }
      ],
      "name": "allowance",
      "outputs": [
        {
          "internalType": "uint256",
          "name": "",
          "type": "uint256"
        }
      ],
      "stateMutability": "view",
      "type": "function",
      "constant": true
    },
    {
      "inputs": [
        {
          "internalType": "address",
          "name": "spender",
          "type": "address"
        },
        {
          "internalType": "uint256",
          "name": "amount",
          "type": "uint256"
        }
      ],
      "name": "approve",
      "outputs": [
        {
          "internalType": "bool",
          "name": "",
          "type": "bool"
        }
      ],
      "stateMutability": "nonpayable",
      "type": "function"
    },
    {
      "inputs": [
        {
          "internalType": "address",
          "name": "account",
          "type": "address"
        }
      ],
      "name": "balanceOf",
      "outputs": [
        {
          "internalType": "uint256",
          "name": "",
          "type": "uint256"
        }
      ],
      "stateMutability": "view",
      "type": "function",
      "constant": true
    },
    {
      "inputs": [
        {
          "internalType": "address",
          "name": "",
          "type": "address"
        }
      ],
      "name": "checkpoints",
      "outputs": [
        {
          "internalType": "uint256",
          "name": "",
          "type": "uint256"
        }
      ],
      "stateMutability": "view",
      "type": "function",
      "constant": true
    },
    {
      "inputs": [],
      "name": "decimals",
      "outputs": [
        {
          "internalType": "uint8",
          "name": "",
          "type": "uint8"
        }
      ],
      "stateMutability": "view",
      "type": "function",
      "constant": true
    },
    {
      "inputs": [
        {
          "internalType": "address",
          "name": "spender",
          "type": "address"
        },
        {
          "internalType": "uint256",
          "name": "subtractedValue",
          "type": "uint256"
        }
      ],
      "name": "decreaseAllowance",
      "outputs": [
        {
          "internalType": "bool",
          "name": "",
          "type": "bool"
        }
      ],
      "stateMutability": "nonpayable",
      "type": "function"
    },
    {
      "inputs": [
        {
          "internalType": "address",
          "name": "",
          "type": "address"
        }
      ],
      "name": "hasStaked",
      "outputs": [
        {
          "internalType": "bool",
          "name": "",
          "type": "bool"
        }
      ],
      "stateMutability": "view",
      "type": "function",
      "constant": true
    },
    {
      "inputs": [
        {
          "internalType": "address",
          "name": "spender",
          "type": "address"
        },
        {
          "internalType": "uint256",
          "name": "addedValue",
          "type": "uint256"
        }
      ],
      "name": "increaseAllowance",
      "outputs": [
        {
          "internalType": "bool",
          "name": "",
          "type": "bool"
        }
      ],
      "stateMutability": "nonpayable",
      "type": "function"
    },
    {
      "inputs": [
        {
          "internalType": "address",
          "name": "",
          "type": "address"
        }
      ],
      "name": "isStaking",
      "outputs": [
        {
          "internalType": "bool",
          "name": "",
          "type": "bool"
        }
      ],
      "stateMutability": "view",
      "type": "function",
      "constant": true
    },
    {
      "inputs": [],
      "name": "name",
      "outputs": [
        {
          "internalType": "string",
          "name": "",
          "type": "string"
        }
      ],
      "stateMutability": "view",
      "type": "function",
      "constant": true
    },
    {
      "inputs": [
        {
          "internalType": "uint256",
          "name": "",
          "type": "uint256"
        }
      ],
      "name": "stakers",
      "outputs": [
        {
          "internalType": "address",
          "name": "",
          "type": "address"
        }
      ],
      "stateMutability": "view",
      "type": "function",
      "constant": true
    },
    {
      "inputs": [
        {
          "internalType": "address",
          "name": "",
          "type": "address"
        }
      ],
      "name": "stakingBalance",
      "outputs": [
        {
          "internalType": "uint256",
          "name": "",
          "type": "uint256"
        }
      ],
      "stateMutability": "view",
      "type": "function",
      "constant": true
    },
    {
      "inputs": [],
      "name": "symbol",
      "outputs": [
        {
          "internalType": "string",
          "name": "",
          "type": "string"
        }
      ],
      "stateMutability": "view",
      "type": "function",
      "constant": true
    },
    {
      "inputs": [],
      "name": "thothToken",
      "outputs": [
        {
          "internalType": "contract IERC20",
          "name": "",
          "type": "address"
        }
      ],
      "stateMutability": "view",
      "type": "function",
      "constant": true
    },
    {
      "inputs": [],
      "name": "totalSupply",
      "outputs": [
        {
          "internalType": "uint256",
          "name": "",
          "type": "uint256"
        }
      ],
      "stateMutability": "view",
      "type": "function",
      "constant": true
    },
    {
      "inputs": [
        {
          "internalType": "address",
          "name": "recipient",
          "type": "address"
        },
        {
          "internalType": "uint256",
          "name": "amount",
          "type": "uint256"
        }
      ],
      "name": "transfer",
      "outputs": [
        {
          "internalType": "bool",
          "name": "",
          "type": "bool"
        }
      ],
      "stateMutability": "nonpayable",
      "type": "function"
    },
    {
      "inputs": [
        {
          "internalType": "address",
          "name": "sender",
          "type": "address"
        },
        {
          "internalType": "address",
          "name": "recipient",
          "type": "address"
        },
        {
          "internalType": "uint256",
          "name": "amount",
          "type": "uint256"
        }
      ],
      "name": "transferFrom",
      "outputs": [
        {
          "internalType": "bool",
          "name": "",
          "type": "bool"
        }
      ],
      "stateMutability": "nonpayable",
      "type": "function"
    },
    {
      "inputs": [],
      "name": "underlyingToken",
      "outputs": [
        {
          "internalType": "contract UnderlyingToken",
          "name": "",
          "type": "address"
        }
      ],
      "stateMutability": "view",
      "type": "function",
      "constant": true
    },
    {
      "inputs": [
        {
          "internalType": "uint256",
          "name": "amount",
          "type": "uint256"
        }
      ],
      "name": "deposit",
      "outputs": [],
      "stateMutability": "nonpayable",
      "type": "function"
    },
    {
      "inputs": [
        {
          "internalType": "uint256",
          "name": "amount",
          "type": "uint256"
        }
      ],
      "name": "withdraw",
      "outputs": [],
      "stateMutability": "nonpayable",
      "type": "function"
    }
  ],
  "bytecode": "0x60806040523480156200001157600080fd5b506040516200286538038062002865833981810160405281019062000037919062000228565b6040518060400160405280600881526020017f4c7020546f6b656e0000000000000000000000000000000000000000000000008152506040518060400160405280600381526020017f4c544b00000000000000000000000000000000000000000000000000000000008152508160039080519060200190620000bb92919062000161565b508060049080519060200190620000d492919062000161565b50505081600660006101000a81548173ffffffffffffffffffffffffffffffffffffffff021916908373ffffffffffffffffffffffffffffffffffffffff16021790555080600760006101000a81548173ffffffffffffffffffffffffffffffffffffffff021916908373ffffffffffffffffffffffffffffffffffffffff16021790555050506200031c565b8280546200016f906200029d565b90600052602060002090601f016020900481019282620001935760008555620001df565b82601f10620001ae57805160ff1916838001178555620001df565b82800160010185558215620001df579182015b82811115620001de578251825591602001919060010190620001c1565b5b509050620001ee9190620001f2565b5090565b5b808211156200020d576000816000905550600101620001f3565b5090565b600081519050620002228162000302565b92915050565b600080604083850312156200023c57600080fd5b60006200024c8582860162000211565b92505060206200025f8582860162000211565b9150509250929050565b600062000276826200027d565b9050919050565b600073ffffffffffffffffffffffffffffffffffffffff82169050919050565b60006002820490506001821680620002b657607f821691505b60208210811415620002cd57620002cc620002d3565b5b50919050565b7f4e487b7100000000000000000000000000000000000000000000000000000000600052602260045260246000fd5b6200030d8162000269565b81146200031957600080fd5b50565b612539806200032c6000396000f3fe608060405234801561001057600080fd5b50600436106101375760003560e01c806370a08231116100b8578063b00e163b1161007c578063b00e163b1461038c578063b6b55f25146103aa578063c93c8f34146103c6578063dbb51d6e146103f6578063dd62ed3e14610426578063fd5e6dd11461045657610137565b806370a08231146102c057806395d89b41146102f0578063975532dc1461030e578063a457c2d71461032c578063a9059cbb1461035c57610137565b80632e1a7d4d116100ff5780632e1a7d4d146101f6578063313ce56714610212578063395093511461023057806345bc78ab146102605780636f49712b1461029057610137565b806306fdde031461013c578063095ea7b31461015a57806318160ddd1461018a57806323b872dd146101a85780632495a599146101d8575b600080fd5b610144610486565b6040516101519190612075565b60405180910390f35b610174600480360381019061016f9190611a32565b610518565b6040516101819190612024565b60405180910390f35b610192610536565b60405161019f9190612217565b60405180910390f35b6101c260048036038101906101bd91906119e3565b610540565b6040516101cf9190612024565b60405180910390f35b6101e0610641565b6040516101ed919061205a565b60405180910390f35b610210600480360381019061020b9190611a97565b610667565b005b61021a6108f5565b6040516102279190612232565b60405180910390f35b61024a60048036038101906102459190611a32565b6108fe565b6040516102579190612024565b60405180910390f35b61027a6004803603810190610275919061197e565b6109aa565b6040516102879190612217565b60405180910390f35b6102aa60048036038101906102a5919061197e565b6109c2565b6040516102b79190612024565b60405180910390f35b6102da60048036038101906102d5919061197e565b6109e2565b6040516102e79190612217565b60405180910390f35b6102f8610a2a565b6040516103059190612075565b60405180910390f35b610316610abc565b6040516103239190612217565b60405180910390f35b61034660048036038101906103419190611a32565b610ac1565b6040516103539190612024565b60405180910390f35b61037660048036038101906103719190611a32565b610bb5565b6040516103839190612024565b60405180910390f35b610394610bd3565b6040516103a1919061203f565b60405180910390f35b6103c460048036038101906103bf9190611a97565b610bf9565b005b6103e060048036038101906103db919061197e565b610f41565b6040516103ed9190612024565b60405180910390f35b610410600480360381019061040b919061197e565b610f61565b60405161041d9190612217565b60405180910390f35b610440600480360381019061043b91906119a7565b610f79565b60405161044d9190612217565b60405180910390f35b610470600480360381019061046b9190611a97565b611000565b60405161047d9190611fa9565b60405180910390f35b6060600380546104959061241d565b80601f01602080910402602001604051908101604052809291908181526020018280546104c19061241d565b801561050e5780601f106104e35761010080835404028352916020019161050e565b820191906000526020600020905b8154815290600101906020018083116104f157829003601f168201915b5050505050905090565b600061052c61052561103f565b8484611047565b6001905092915050565b6000600254905090565b600061054d848484611212565b6000600160008673ffffffffffffffffffffffffffffffffffffffff1673ffffffffffffffffffffffffffffffffffffffff168152602001908152602001600020600061059861103f565b73ffffffffffffffffffffffffffffffffffffffff1673ffffffffffffffffffffffffffffffffffffffff16815260200190815260200160002054905082811015610618576040517f08c379a000000000000000000000000000000000000000000000000000000000815260040161060f90612117565b60405180910390fd5b6106358561062461103f565b85846106309190612319565b611047565b60019150509392505050565b600660009054906101000a900473ffffffffffffffffffffffffffffffffffffffff1681565b6000600960003373ffffffffffffffffffffffffffffffffffffffff1673ffffffffffffffffffffffffffffffffffffffff168152602001908152602001600020549050600081116106ee576040517f08c379a00000000000000000000000000000000000000000000000000000000081526004016106e590612157565b60405180910390fd5b816106f8336109e2565b1015610739576040517f08c379a000000000000000000000000000000000000000000000000000000000815260040161073090612137565b60405180910390fd5b6000600960003373ffffffffffffffffffffffffffffffffffffffff1673ffffffffffffffffffffffffffffffffffffffff168152602001908152602001600020819055506000600b60003373ffffffffffffffffffffffffffffffffffffffff1673ffffffffffffffffffffffffffffffffffffffff16815260200190815260200160002060006101000a81548160ff0219169083151502179055506000600a60003373ffffffffffffffffffffffffffffffffffffffff1673ffffffffffffffffffffffffffffffffffffffff16815260200190815260200160002060006101000a81548160ff02191690831515021790555061083733611491565b600660009054906101000a900473ffffffffffffffffffffffffffffffffffffffff1673ffffffffffffffffffffffffffffffffffffffff1663a9059cbb33846040518363ffffffff1660e01b8152600401610894929190611ffb565b602060405180830381600087803b1580156108ae57600080fd5b505af11580156108c2573d6000803e3d6000fd5b505050506040513d601f19601f820116820180604052508101906108e69190611a6e565b506108f13383611612565b5050565b60006012905090565b60006109a061090b61103f565b84846001600061091961103f565b73ffffffffffffffffffffffffffffffffffffffff1673ffffffffffffffffffffffffffffffffffffffff16815260200190815260200160002060008873ffffffffffffffffffffffffffffffffffffffff1673ffffffffffffffffffffffffffffffffffffffff1681526020019081526020016000205461099b9190612269565b611047565b6001905092915050565b60096020528060005260406000206000915090505481565b600b6020528060005260406000206000915054906101000a900460ff1681565b60008060008373ffffffffffffffffffffffffffffffffffffffff1673ffffffffffffffffffffffffffffffffffffffff168152602001908152602001600020549050919050565b606060048054610a399061241d565b80601f0160208091040260200160405190810160405280929190818152602001828054610a659061241d565b8015610ab25780601f10610a8757610100808354040283529160200191610ab2565b820191906000526020600020905b815481529060010190602001808311610a9557829003601f168201915b5050505050905090565b600181565b60008060016000610ad061103f565b73ffffffffffffffffffffffffffffffffffffffff1673ffffffffffffffffffffffffffffffffffffffff16815260200190815260200160002060008573ffffffffffffffffffffffffffffffffffffffff1673ffffffffffffffffffffffffffffffffffffffff16815260200190815260200160002054905082811015610b8d576040517f08c379a0000000000000000000000000000000000000000000000000000000008152600401610b84906121d7565b60405180910390fd5b610baa610b9861103f565b858584610ba59190612319565b611047565b600191505092915050565b6000610bc9610bc261103f565b8484611212565b6001905092915050565b600760009054906101000a900473ffffffffffffffffffffffffffffffffffffffff1681565b6000600560003373ffffffffffffffffffffffffffffffffffffffff1673ffffffffffffffffffffffffffffffffffffffff168152602001908152602001600020541415610c865743600560003373ffffffffffffffffffffffffffffffffffffffff1673ffffffffffffffffffffffffffffffffffffffff168152602001908152602001600020819055505b610c8f33611491565b600660009054906101000a900473ffffffffffffffffffffffffffffffffffffffff1673ffffffffffffffffffffffffffffffffffffffff166323b872dd3330846040518463ffffffff1660e01b8152600401610cee93929190611fc4565b602060405180830381600087803b158015610d0857600080fd5b505af1158015610d1c573d6000803e3d6000fd5b505050506040513d601f19601f82011682018060405250810190610d409190611a6e565b5080600960003373ffffffffffffffffffffffffffffffffffffffff1673ffffffffffffffffffffffffffffffffffffffff16815260200190815260200160002054610d8c9190612269565b600960003373ffffffffffffffffffffffffffffffffffffffff1673ffffffffffffffffffffffffffffffffffffffff16815260200190815260200160002081905550610dd933826117e6565b600a60003373ffffffffffffffffffffffffffffffffffffffff1673ffffffffffffffffffffffffffffffffffffffff16815260200190815260200160002060009054906101000a900460ff16610e8e576008339080600181540180825580915050600190039060005260206000200160009091909190916101000a81548173ffffffffffffffffffffffffffffffffffffffff021916908373ffffffffffffffffffffffffffffffffffffffff1602179055505b6001600a60003373ffffffffffffffffffffffffffffffffffffffff1673ffffffffffffffffffffffffffffffffffffffff16815260200190815260200160002060006101000a81548160ff0219169083151502179055506001600b60003373ffffffffffffffffffffffffffffffffffffffff1673ffffffffffffffffffffffffffffffffffffffff16815260200190815260200160002060006101000a81548160ff02191690831515021790555050565b600a6020528060005260406000206000915054906101000a900460ff1681565b60056020528060005260406000206000915090505481565b6000600160008473ffffffffffffffffffffffffffffffffffffffff1673ffffffffffffffffffffffffffffffffffffffff16815260200190815260200160002060008373ffffffffffffffffffffffffffffffffffffffff1673ffffffffffffffffffffffffffffffffffffffff16815260200190815260200160002054905092915050565b6008818154811061101057600080fd5b906000526020600020016000915054906101000a900473ffffffffffffffffffffffffffffffffffffffff1681565b600033905090565b600073ffffffffffffffffffffffffffffffffffffffff168373ffffffffffffffffffffffffffffffffffffffff1614156110b7576040517f08c379a00000000000000000000000000000000000000000000000000000000081526004016110ae906121b7565b60405180910390fd5b600073ffffffffffffffffffffffffffffffffffffffff168273ffffffffffffffffffffffffffffffffffffffff161415611127576040517f08c379a000000000000000000000000000000000000000000000000000000000815260040161111e906120d7565b60405180910390fd5b80600160008573ffffffffffffffffffffffffffffffffffffffff1673ffffffffffffffffffffffffffffffffffffffff16815260200190815260200160002060008473ffffffffffffffffffffffffffffffffffffffff1673ffffffffffffffffffffffffffffffffffffffff168152602001908152602001600020819055508173ffffffffffffffffffffffffffffffffffffffff168373ffffffffffffffffffffffffffffffffffffffff167f8c5be1e5ebec7d5bd14f71427d1e84f3dd0314c0f7b2291e5b200ac8c7c3b925836040516112059190612217565b60405180910390a3505050565b600073ffffffffffffffffffffffffffffffffffffffff168373ffffffffffffffffffffffffffffffffffffffff161415611282576040517f08c379a000000000000000000000000000000000000000000000000000000000815260040161127990612197565b60405180910390fd5b600073ffffffffffffffffffffffffffffffffffffffff168273ffffffffffffffffffffffffffffffffffffffff1614156112f2576040517f08c379a00000000000000000000000000000000000000000000000000000000081526004016112e990612097565b60405180910390fd5b6112fd83838361193a565b60008060008573ffffffffffffffffffffffffffffffffffffffff1673ffffffffffffffffffffffffffffffffffffffff16815260200190815260200160002054905081811015611383576040517f08c379a000000000000000000000000000000000000000000000000000000000815260040161137a906120f7565b60405180910390fd5b818161138f9190612319565b6000808673ffffffffffffffffffffffffffffffffffffffff1673ffffffffffffffffffffffffffffffffffffffff16815260200190815260200160002081905550816000808573ffffffffffffffffffffffffffffffffffffffff1673ffffffffffffffffffffffffffffffffffffffff168152602001908152602001600020600082825461141f9190612269565b925050819055508273ffffffffffffffffffffffffffffffffffffffff168473ffffffffffffffffffffffffffffffffffffffff167fddf252ad1be2c89b69c2b068fc378daa952ba7f163c4a11628f55a4df523b3ef846040516114839190612217565b60405180910390a350505050565b6000600560008373ffffffffffffffffffffffffffffffffffffffff1673ffffffffffffffffffffffffffffffffffffffff168152602001908152602001600020549050600081436114e39190612319565b111561160e576000600182436114f99190612319565b611502856109e2565b61150c91906122bf565b61151691906122bf565b9050600760009054906101000a900473ffffffffffffffffffffffffffffffffffffffff1673ffffffffffffffffffffffffffffffffffffffff1663a9059cbb84836040518363ffffffff1660e01b8152600401611575929190611ffb565b602060405180830381600087803b15801561158f57600080fd5b505af11580156115a3573d6000803e3d6000fd5b505050506040513d601f19601f820116820180604052508101906115c79190611a6e565b5043600560008573ffffffffffffffffffffffffffffffffffffffff1673ffffffffffffffffffffffffffffffffffffffff16815260200190815260200160002081905550505b5050565b600073ffffffffffffffffffffffffffffffffffffffff168273ffffffffffffffffffffffffffffffffffffffff161415611682576040517f08c379a000000000000000000000000000000000000000000000000000000000815260040161167990612177565b60405180910390fd5b61168e8260008361193a565b60008060008473ffffffffffffffffffffffffffffffffffffffff1673ffffffffffffffffffffffffffffffffffffffff16815260200190815260200160002054905081811015611714576040517f08c379a000000000000000000000000000000000000000000000000000000000815260040161170b906120b7565b60405180910390fd5b81816117209190612319565b6000808573ffffffffffffffffffffffffffffffffffffffff1673ffffffffffffffffffffffffffffffffffffffff1681526020019081526020016000208190555081600260008282546117749190612319565b92505081905550600073ffffffffffffffffffffffffffffffffffffffff168373ffffffffffffffffffffffffffffffffffffffff167fddf252ad1be2c89b69c2b068fc378daa952ba7f163c4a11628f55a4df523b3ef846040516117d99190612217565b60405180910390a3505050565b600073ffffffffffffffffffffffffffffffffffffffff168273ffffffffffffffffffffffffffffffffffffffff161415611856576040517f08c379a000000000000000000000000000000000000000000000000000000000815260040161184d906121f7565b60405180910390fd5b6118626000838361193a565b80600260008282546118749190612269565b92505081905550806000808473ffffffffffffffffffffffffffffffffffffffff1673ffffffffffffffffffffffffffffffffffffffff16815260200190815260200160002060008282546118c99190612269565b925050819055508173ffffffffffffffffffffffffffffffffffffffff16600073ffffffffffffffffffffffffffffffffffffffff167fddf252ad1be2c89b69c2b068fc378daa952ba7f163c4a11628f55a4df523b3ef8360405161192e9190612217565b60405180910390a35050565b505050565b60008135905061194e816124be565b92915050565b600081519050611963816124d5565b92915050565b600081359050611978816124ec565b92915050565b60006020828403121561199057600080fd5b600061199e8482850161193f565b91505092915050565b600080604083850312156119ba57600080fd5b60006119c88582860161193f565b92505060206119d98582860161193f565b9150509250929050565b6000806000606084860312156119f857600080fd5b6000611a068682870161193f565b9350506020611a178682870161193f565b9250506040611a2886828701611969565b9150509250925092565b60008060408385031215611a4557600080fd5b6000611a538582860161193f565b9250506020611a6485828601611969565b9150509250929050565b600060208284031215611a8057600080fd5b6000611a8e84828501611954565b91505092915050565b600060208284031215611aa957600080fd5b6000611ab784828501611969565b91505092915050565b611ac98161234d565b82525050565b611ad88161235f565b82525050565b611ae7816123a2565b82525050565b611af6816123c6565b82525050565b6000611b078261224d565b611b118185612258565b9350611b218185602086016123ea565b611b2a816124ad565b840191505092915050565b6000611b42602383612258565b91507f45524332303a207472616e7366657220746f20746865207a65726f206164647260008301527f65737300000000000000000000000000000000000000000000000000000000006020830152604082019050919050565b6000611ba8602283612258565b91507f45524332303a206275726e20616d6f756e7420657863656564732062616c616e60008301527f63650000000000000000000000000000000000000000000000000000000000006020830152604082019050919050565b6000611c0e602283612258565b91507f45524332303a20617070726f766520746f20746865207a65726f20616464726560008301527f73730000000000000000000000000000000000000000000000000000000000006020830152604082019050919050565b6000611c74602683612258565b91507f45524332303a207472616e7366657220616d6f756e742065786365656473206260008301527f616c616e636500000000000000000000000000000000000000000000000000006020830152604082019050919050565b6000611cda602883612258565b91507f45524332303a207472616e7366657220616d6f756e742065786365656473206160008301527f6c6c6f77616e63650000000000000000000000000000000000000000000000006020830152604082019050919050565b6000611d40601483612258565b91507f6e6f7420656e6f756768204c5020546f6b656e730000000000000000000000006000830152602082019050919050565b6000611d80601483612258565b91507f696e73756666696369656e742062616c616e63650000000000000000000000006000830152602082019050919050565b6000611dc0602183612258565b91507f45524332303a206275726e2066726f6d20746865207a65726f2061646472657360008301527f73000000000000000000000000000000000000000000000000000000000000006020830152604082019050919050565b6000611e26602583612258565b91507f45524332303a207472616e736665722066726f6d20746865207a65726f20616460008301527f64726573730000000000000000000000000000000000000000000000000000006020830152604082019050919050565b6000611e8c602483612258565b91507f45524332303a20617070726f76652066726f6d20746865207a65726f2061646460008301527f72657373000000000000000000000000000000000000000000000000000000006020830152604082019050919050565b6000611ef2602583612258565b91507f45524332303a2064656372656173656420616c6c6f77616e63652062656c6f7760008301527f207a65726f0000000000000000000000000000000000000000000000000000006020830152604082019050919050565b6000611f58601f83612258565b91507f45524332303a206d696e7420746f20746865207a65726f2061646472657373006000830152602082019050919050565b611f948161238b565b82525050565b611fa381612395565b82525050565b6000602082019050611fbe6000830184611ac0565b92915050565b6000606082019050611fd96000830186611ac0565b611fe66020830185611ac0565b611ff36040830184611f8b565b949350505050565b60006040820190506120106000830185611ac0565b61201d6020830184611f8b565b9392505050565b60006020820190506120396000830184611acf565b92915050565b60006020820190506120546000830184611ade565b92915050565b600060208201905061206f6000830184611aed565b92915050565b6000602082019050818103600083015261208f8184611afc565b905092915050565b600060208201905081810360008301526120b081611b35565b9050919050565b600060208201905081810360008301526120d081611b9b565b9050919050565b600060208201905081810360008301526120f081611c01565b9050919050565b6000602082019050818103600083015261211081611c67565b9050919050565b6000602082019050818103600083015261213081611ccd565b9050919050565b6000602082019050818103600083015261215081611d33565b9050919050565b6000602082019050818103600083015261217081611d73565b9050919050565b6000602082019050818103600083015261219081611db3565b9050919050565b600060208201905081810360008301526121b081611e19565b9050919050565b600060208201905081810360008301526121d081611e7f565b9050919050565b600060208201905081810360008301526121f081611ee5565b9050919050565b6000602082019050818103600083015261221081611f4b565b9050919050565b600060208201905061222c6000830184611f8b565b92915050565b60006020820190506122476000830184611f9a565b92915050565b600081519050919050565b600082825260208201905092915050565b60006122748261238b565b915061227f8361238b565b9250827fffffffffffffffffffffffffffffffffffffffffffffffffffffffffffffffff038211156122b4576122b361244f565b5b828201905092915050565b60006122ca8261238b565b91506122d58361238b565b9250817fffffffffffffffffffffffffffffffffffffffffffffffffffffffffffffffff048311821515161561230e5761230d61244f565b5b828202905092915050565b60006123248261238b565b915061232f8361238b565b9250828210156123425761234161244f565b5b828203905092915050565b60006123588261236b565b9050919050565b60008115159050919050565b600073ffffffffffffffffffffffffffffffffffffffff82169050919050565b6000819050919050565b600060ff82169050919050565b60006123ad826123b4565b9050919050565b60006123bf8261236b565b9050919050565b60006123d1826123d8565b9050919050565b60006123e38261236b565b9050919050565b60005b838110156124085780820151818401526020810190506123ed565b83811115612417576000848401525b50505050565b6000600282049050600182168061243557607f821691505b602082108114156124495761244861247e565b5b50919050565b7f4e487b7100000000000000000000000000000000000000000000000000000000600052601160045260246000fd5b7f4e487b7100000000000000000000000000000000000000000000000000000000600052602260045260246000fd5b6000601f19601f8301169050919050565b6124c78161234d565b81146124d257600080fd5b50565b6124de8161235f565b81146124e957600080fd5b50565b6124f58161238b565b811461250057600080fd5b5056fea264697066735822122004cf8f1405799d4f5a748891db745f2b3c13f89a622ab6c2ca2f396606791b8664736f6c63430008000033",
  "immutableReferences": {},
  "source": "pragma solidity ^0.8.0;\r\n\r\nimport './UnderlyingToken.sol';\r\nimport './LpToken.sol';\r\nimport '@openzeppelin/contracts/token/ERC20/IERC20.sol';\r\n\r\n\r\ncontract LiquidityPool is LpToken {\r\n\tmapping(address => uint) public checkpoints;\r\n\tUnderlyingToken public underlyingToken;\r\n\tIERC20 public thothToken;\r\n\tuint constant public REWARD_PER_BLOCK = 1;\r\n\r\n\r\n\taddress[] public stakers;\r\n    mapping(address => uint) public stakingBalance;\r\n    mapping(address => bool) public hasStaked;\r\n    mapping(address => bool) public isStaking;\r\n\r\n\r\n\r\n\r\n\tconstructor(address _underlyingToken, address _governanceToken) {\r\n\t\tunderlyingToken = UnderlyingToken(_underlyingToken);\r\n\t\tthothToken = IERC20(_governanceToken);\r\n\t}\r\n\r\n\r\n\tfunction deposit(uint amount) external {\r\n\t\tif(checkpoints[msg.sender] == 0) {\r\n\t\t\tcheckpoints[msg.sender] = block.number;\r\n\t\t}\r\n\r\n\t\t_distributeRewards(msg.sender);\r\n\t\tunderlyingToken.transferFrom(msg.sender, address(this), amount);\r\n\r\n\t\t// update staking balance\r\n        stakingBalance[msg.sender] = stakingBalance[msg.sender] + amount;\r\n\r\n\t\t_mint(msg.sender, amount);\r\n\r\n\t\t// add user to stakers array only if they haven\"t staked\r\n        if(!hasStaked[msg.sender]) {\r\n            stakers.push(msg.sender);\r\n        }\r\n\r\n        // update staking staus\r\n        hasStaked[msg.sender] = true;\r\n        isStaking[msg.sender] = true;\r\n\t}\r\n\r\n\tfunction withdraw(uint amount) external {\r\n\t\t// fetch staking balance\r\n        uint balance = stakingBalance[msg.sender];\r\n\r\n        require( balance > 0, \"insufficient balance\");\r\n\t\trequire(balanceOf(msg.sender) >= amount, 'not enough LP Tokens');\r\n\r\n\t\t// reset staking balance\r\n        stakingBalance[msg.sender] = 0;\r\n\r\n        // update staking status\r\n        isStaking[msg.sender] = false;\r\n        hasStaked[msg.sender] = false;\r\n        \r\n\t\t_distributeRewards(msg.sender);\r\n\t\tunderlyingToken.transfer(msg.sender, amount);\r\n\t\t_burn(msg.sender, amount);\r\n\r\n\t}\r\n\r\n\r\n\tfunction _distributeRewards(address beneficiary) internal {\r\n\t\tuint checkpoint = checkpoints[beneficiary];\r\n\t\tif(block.number - checkpoint > 0 ) {\r\n\t\t\tuint distributionAmount = balanceOf(beneficiary) * (block.number - checkpoint ) * REWARD_PER_BLOCK;\r\n\r\n\t\t\tthothToken.transfer(beneficiary, distributionAmount);\r\n\t\t\tcheckpoints[beneficiary] = block.number;\r\n\t\t}\r\n\t}\r\n}",
  "sourcePath": "/mnt/c/pr0/liquidity-pool/contracts/LiquidityPool.sol",
  "compiler": {
    "name": "solc",
    "version": "0.8.0+commit.c7dfd78e.Emscripten.clang"
  },
  "schemaVersion": "3.4.0",
  "updatedAt": "2021-06-17T15:30:18.218Z",
  "networkType": "ethereum",
  "devdoc": {
    "kind": "dev",
    "methods": {
      "allowance(address,address)": {
        "details": "See {IERC20-allowance}."
      },
      "approve(address,uint256)": {
        "details": "See {IERC20-approve}. Requirements: - `spender` cannot be the zero address."
      },
      "balanceOf(address)": {
        "details": "See {IERC20-balanceOf}."
      },
      "decimals()": {
        "details": "Returns the number of decimals used to get its user representation. For example, if `decimals` equals `2`, a balance of `505` tokens should be displayed to a user as `5,05` (`505 / 10 ** 2`). Tokens usually opt for a value of 18, imitating the relationship between Ether and Wei. This is the value {ERC20} uses, unless this function is overridden; NOTE: This information is only used for _display_ purposes: it in no way affects any of the arithmetic of the contract, including {IERC20-balanceOf} and {IERC20-transfer}."
      },
      "decreaseAllowance(address,uint256)": {
        "details": "Atomically decreases the allowance granted to `spender` by the caller. This is an alternative to {approve} that can be used as a mitigation for problems described in {IERC20-approve}. Emits an {Approval} event indicating the updated allowance. Requirements: - `spender` cannot be the zero address. - `spender` must have allowance for the caller of at least `subtractedValue`."
      },
      "increaseAllowance(address,uint256)": {
        "details": "Atomically increases the allowance granted to `spender` by the caller. This is an alternative to {approve} that can be used as a mitigation for problems described in {IERC20-approve}. Emits an {Approval} event indicating the updated allowance. Requirements: - `spender` cannot be the zero address."
      },
      "name()": {
        "details": "Returns the name of the token."
      },
      "symbol()": {
        "details": "Returns the symbol of the token, usually a shorter version of the name."
      },
      "totalSupply()": {
        "details": "See {IERC20-totalSupply}."
      },
      "transfer(address,uint256)": {
        "details": "See {IERC20-transfer}. Requirements: - `recipient` cannot be the zero address. - the caller must have a balance of at least `amount`."
      },
      "transferFrom(address,address,uint256)": {
        "details": "See {IERC20-transferFrom}. Emits an {Approval} event indicating the updated allowance. This is not required by the EIP. See the note at the beginning of {ERC20}. Requirements: - `sender` and `recipient` cannot be the zero address. - `sender` must have a balance of at least `amount`. - the caller must have allowance for ``sender``'s tokens of at least `amount`."
      }
    },
    "version": 1
  },
  "userdoc": {
    "kind": "user",
    "methods": {},
    "version": 1
  }
}