{
  "contractName": "LiquidityPool",
  "abi": [
    {
      "inputs": [
        {
          "internalType": "address",
          "name": "_underlyingToken",
          "type": "address"
        },
        {
          "internalType": "address",
          "name": "_governanceToken",
          "type": "address"
        }
      ],
      "stateMutability": "nonpayable",
      "type": "constructor"
    },
    {
      "anonymous": false,
      "inputs": [
        {
          "indexed": true,
          "internalType": "address",
          "name": "owner",
          "type": "address"
        },
        {
          "indexed": true,
          "internalType": "address",
          "name": "spender",
          "type": "address"
        },
        {
          "indexed": false,
          "internalType": "uint256",
          "name": "value",
          "type": "uint256"
        }
      ],
      "name": "Approval",
      "type": "event"
    },
    {
      "anonymous": false,
      "inputs": [
        {
          "indexed": true,
          "internalType": "address",
          "name": "from",
          "type": "address"
        },
        {
          "indexed": true,
          "internalType": "address",
          "name": "to",
          "type": "address"
        },
        {
          "indexed": false,
          "internalType": "uint256",
          "name": "value",
          "type": "uint256"
        }
      ],
      "name": "Transfer",
      "type": "event"
    },
    {
      "inputs": [
        {
          "internalType": "address",
          "name": "owner",
          "type": "address"
        },
        {
          "internalType": "address",
          "name": "spender",
          "type": "address"
        }
      ],
      "name": "allowance",
      "outputs": [
        {
          "internalType": "uint256",
          "name": "",
          "type": "uint256"
        }
      ],
      "stateMutability": "view",
      "type": "function",
      "constant": true
    },
    {
      "inputs": [
        {
          "internalType": "address",
          "name": "spender",
          "type": "address"
        },
        {
          "internalType": "uint256",
          "name": "amount",
          "type": "uint256"
        }
      ],
      "name": "approve",
      "outputs": [
        {
          "internalType": "bool",
          "name": "",
          "type": "bool"
        }
      ],
      "stateMutability": "nonpayable",
      "type": "function"
    },
    {
      "inputs": [
        {
          "internalType": "address",
          "name": "account",
          "type": "address"
        }
      ],
      "name": "balanceOf",
      "outputs": [
        {
          "internalType": "uint256",
          "name": "",
          "type": "uint256"
        }
      ],
      "stateMutability": "view",
      "type": "function",
      "constant": true
    },
    {
      "inputs": [
        {
          "internalType": "address",
          "name": "",
          "type": "address"
        }
      ],
      "name": "checkpoints",
      "outputs": [
        {
          "internalType": "uint256",
          "name": "",
          "type": "uint256"
        }
      ],
      "stateMutability": "view",
      "type": "function",
      "constant": true
    },
    {
      "inputs": [],
      "name": "decimals",
      "outputs": [
        {
          "internalType": "uint8",
          "name": "",
          "type": "uint8"
        }
      ],
      "stateMutability": "view",
      "type": "function",
      "constant": true
    },
    {
      "inputs": [
        {
          "internalType": "address",
          "name": "spender",
          "type": "address"
        },
        {
          "internalType": "uint256",
          "name": "subtractedValue",
          "type": "uint256"
        }
      ],
      "name": "decreaseAllowance",
      "outputs": [
        {
          "internalType": "bool",
          "name": "",
          "type": "bool"
        }
      ],
      "stateMutability": "nonpayable",
      "type": "function"
    },
    {
      "inputs": [],
      "name": "end",
      "outputs": [
        {
          "internalType": "uint256",
          "name": "",
          "type": "uint256"
        }
      ],
      "stateMutability": "view",
      "type": "function",
      "constant": true
    },
    {
      "inputs": [],
      "name": "feeAccount",
      "outputs": [
        {
          "internalType": "address",
          "name": "",
          "type": "address"
        }
      ],
      "stateMutability": "view",
      "type": "function",
      "constant": true
    },
    {
      "inputs": [],
      "name": "feePercent",
      "outputs": [
        {
          "internalType": "uint256",
          "name": "",
          "type": "uint256"
        }
      ],
      "stateMutability": "view",
      "type": "function",
      "constant": true
    },
    {
      "inputs": [
        {
          "internalType": "address",
          "name": "",
          "type": "address"
        }
      ],
      "name": "hasStaked",
      "outputs": [
        {
          "internalType": "bool",
          "name": "",
          "type": "bool"
        }
      ],
      "stateMutability": "view",
      "type": "function",
      "constant": true
    },
    {
      "inputs": [
        {
          "internalType": "address",
          "name": "spender",
          "type": "address"
        },
        {
          "internalType": "uint256",
          "name": "addedValue",
          "type": "uint256"
        }
      ],
      "name": "increaseAllowance",
      "outputs": [
        {
          "internalType": "bool",
          "name": "",
          "type": "bool"
        }
      ],
      "stateMutability": "nonpayable",
      "type": "function"
    },
    {
      "inputs": [
        {
          "internalType": "address",
          "name": "",
          "type": "address"
        }
      ],
      "name": "isStaking",
      "outputs": [
        {
          "internalType": "bool",
          "name": "",
          "type": "bool"
        }
      ],
      "stateMutability": "view",
      "type": "function",
      "constant": true
    },
    {
      "inputs": [
        {
          "internalType": "address",
          "name": "",
          "type": "address"
        }
      ],
      "name": "lockedStakingBalance",
      "outputs": [
        {
          "internalType": "uint256",
          "name": "",
          "type": "uint256"
        }
      ],
      "stateMutability": "view",
      "type": "function",
      "constant": true
    },
    {
      "inputs": [],
      "name": "name",
      "outputs": [
        {
          "internalType": "string",
          "name": "",
          "type": "string"
        }
      ],
      "stateMutability": "view",
      "type": "function",
      "constant": true
    },
    {
      "inputs": [
        {
          "internalType": "uint256",
          "name": "",
          "type": "uint256"
        }
      ],
      "name": "stakers",
      "outputs": [
        {
          "internalType": "address",
          "name": "",
          "type": "address"
        }
      ],
      "stateMutability": "view",
      "type": "function",
      "constant": true
    },
    {
      "inputs": [
        {
          "internalType": "address",
          "name": "",
          "type": "address"
        }
      ],
      "name": "stakingBalance",
      "outputs": [
        {
          "internalType": "uint256",
          "name": "",
          "type": "uint256"
        }
      ],
      "stateMutability": "view",
      "type": "function",
      "constant": true
    },
    {
      "inputs": [],
      "name": "symbol",
      "outputs": [
        {
          "internalType": "string",
          "name": "",
          "type": "string"
        }
      ],
      "stateMutability": "view",
      "type": "function",
      "constant": true
    },
    {
      "inputs": [],
      "name": "thothToken",
      "outputs": [
        {
          "internalType": "contract IERC20",
          "name": "",
          "type": "address"
        }
      ],
      "stateMutability": "view",
      "type": "function",
      "constant": true
    },
    {
      "inputs": [
        {
          "internalType": "address",
          "name": "",
          "type": "address"
        },
        {
          "internalType": "address",
          "name": "",
          "type": "address"
        }
      ],
      "name": "tokens",
      "outputs": [
        {
          "internalType": "uint256",
          "name": "",
          "type": "uint256"
        }
      ],
      "stateMutability": "view",
      "type": "function",
      "constant": true
    },
    {
      "inputs": [],
      "name": "totalSupply",
      "outputs": [
        {
          "internalType": "uint256",
          "name": "",
          "type": "uint256"
        }
      ],
      "stateMutability": "view",
      "type": "function",
      "constant": true
    },
    {
      "inputs": [
        {
          "internalType": "address",
          "name": "recipient",
          "type": "address"
        },
        {
          "internalType": "uint256",
          "name": "amount",
          "type": "uint256"
        }
      ],
      "name": "transfer",
      "outputs": [
        {
          "internalType": "bool",
          "name": "",
          "type": "bool"
        }
      ],
      "stateMutability": "nonpayable",
      "type": "function"
    },
    {
      "inputs": [
        {
          "internalType": "address",
          "name": "sender",
          "type": "address"
        },
        {
          "internalType": "address",
          "name": "recipient",
          "type": "address"
        },
        {
          "internalType": "uint256",
          "name": "amount",
          "type": "uint256"
        }
      ],
      "name": "transferFrom",
      "outputs": [
        {
          "internalType": "bool",
          "name": "",
          "type": "bool"
        }
      ],
      "stateMutability": "nonpayable",
      "type": "function"
    },
    {
      "inputs": [],
      "name": "underlyingToken",
      "outputs": [
        {
          "internalType": "contract UnderlyingToken",
          "name": "",
          "type": "address"
        }
      ],
      "stateMutability": "view",
      "type": "function",
      "constant": true
    },
    {
      "inputs": [
        {
          "internalType": "uint256",
          "name": "amount",
          "type": "uint256"
        }
      ],
      "name": "deposit",
      "outputs": [],
      "stateMutability": "nonpayable",
      "type": "function"
    },
    {
      "inputs": [
        {
          "internalType": "uint256",
          "name": "amount",
          "type": "uint256"
        }
      ],
      "name": "lockedDeposit",
      "outputs": [],
      "stateMutability": "nonpayable",
      "type": "function"
    },
    {
      "inputs": [
        {
          "internalType": "uint256",
          "name": "amount",
          "type": "uint256"
        }
      ],
      "name": "withdraw",
      "outputs": [],
      "stateMutability": "nonpayable",
      "type": "function"
    },
    {
      "inputs": [
        {
          "internalType": "uint256",
          "name": "amount",
          "type": "uint256"
        }
      ],
      "name": "lockedWithdraw",
      "outputs": [],
      "stateMutability": "nonpayable",
      "type": "function"
    }
  ],
  "bytecode": "0x60a0604052600a60085560146009556032600b553480156200002057600080fd5b50604051620037113803806200371183398181016040528101906200004691906200024f565b6040518060400160405280600881526020017f4c7020546f6b656e0000000000000000000000000000000000000000000000008152506040518060400160405280600381526020017f4c544b00000000000000000000000000000000000000000000000000000000008152508160039080519060200190620000ca92919062000188565b508060049080519060200190620000e392919062000188565b50505081600660006101000a81548173ffffffffffffffffffffffffffffffffffffffff021916908373ffffffffffffffffffffffffffffffffffffffff16021790555080600760006101000a81548173ffffffffffffffffffffffffffffffffffffffff021916908373ffffffffffffffffffffffffffffffffffffffff1602179055506202a3004262000179919062000290565b608081815250505050620003d9565b82805462000196906200032b565b90600052602060002090601f016020900481019282620001ba576000855562000206565b82601f10620001d557805160ff191683800117855562000206565b8280016001018555821562000206579182015b8281111562000205578251825591602001919060010190620001e8565b5b50905062000215919062000219565b5090565b5b80821115620002345760008160009055506001016200021a565b5090565b6000815190506200024981620003bf565b92915050565b600080604083850312156200026357600080fd5b6000620002738582860162000238565b9250506020620002868582860162000238565b9150509250929050565b60006200029d8262000321565b9150620002aa8362000321565b9250827fffffffffffffffffffffffffffffffffffffffffffffffffffffffffffffffff03821115620002e257620002e162000361565b5b828201905092915050565b6000620002fa8262000301565b9050919050565b600073ffffffffffffffffffffffffffffffffffffffff82169050919050565b6000819050919050565b600060028204905060018216806200034457607f821691505b602082108114156200035b576200035a62000390565b5b50919050565b7f4e487b7100000000000000000000000000000000000000000000000000000000600052601160045260246000fd5b7f4e487b7100000000000000000000000000000000000000000000000000000000600052602260045260246000fd5b620003ca81620002ed565b8114620003d657600080fd5b50565b608051613315620003fc60003960008181610b5501526117b801526133156000f3fe608060405234801561001057600080fd5b50600436106101a95760003560e01c806370a08231116100f9578063b6b55f2511610097578063dbb51d6e11610071578063dbb51d6e1461051e578063dd62ed3e1461054e578063efbe1c1c1461057e578063fd5e6dd11461059c576101a9565b8063b6b55f25146104a2578063b977f20d146104be578063c93c8f34146104ee576101a9565b8063a457c2d7116100d3578063a457c2d714610408578063a53455a214610438578063a9059cbb14610454578063b00e163b14610484576101a9565b806370a082311461039c5780637fd6f15c146103cc57806395d89b41146103ea576101a9565b8063313ce56711610166578063508493bc11610140578063508493bc1461030257806365e17c9d146103325780636743d089146103505780636f49712b1461036c576101a9565b8063313ce5671461028457806339509351146102a257806345bc78ab146102d2576101a9565b806306fdde03146101ae578063095ea7b3146101cc57806318160ddd146101fc57806323b872dd1461021a5780632495a5991461024a5780632e1a7d4d14610268575b600080fd5b6101b66105cc565b6040516101c39190612df1565b60405180910390f35b6101e660048036038101906101e191906127ae565b61065e565b6040516101f39190612da0565b60405180910390f35b61020461067c565b6040516102119190612f93565b60405180910390f35b610234600480360381019061022f919061275f565b610686565b6040516102419190612da0565b60405180910390f35b610252610787565b60405161025f9190612dd6565b60405180910390f35b610282600480360381019061027d9190612813565b6107ad565b005b61028c610a3b565b6040516102999190612fae565b60405180910390f35b6102bc60048036038101906102b791906127ae565b610a44565b6040516102c99190612da0565b60405180910390f35b6102ec60048036038101906102e791906126fa565b610af0565b6040516102f99190612f93565b60405180910390f35b61031c60048036038101906103179190612723565b610b08565b6040516103299190612f93565b60405180910390f35b61033a610b2d565b6040516103479190612d25565b60405180910390f35b61036a60048036038101906103659190612813565b610b53565b005b610386600480360381019061038191906126fa565b610e17565b6040516103939190612da0565b60405180910390f35b6103b660048036038101906103b191906126fa565b610e37565b6040516103c39190612f93565b60405180910390f35b6103d4610e7f565b6040516103e19190612f93565b60405180910390f35b6103f2610e85565b6040516103ff9190612df1565b60405180910390f35b610422600480360381019061041d91906127ae565b610f17565b60405161042f9190612da0565b60405180910390f35b610452600480360381019061044d9190612813565b61100b565b005b61046e600480360381019061046991906127ae565b611353565b60405161047b9190612da0565b60405180910390f35b61048c611371565b6040516104999190612dbb565b60405180910390f35b6104bc60048036038101906104b79190612813565b611397565b005b6104d860048036038101906104d391906126fa565b6116df565b6040516104e59190612f93565b60405180910390f35b610508600480360381019061050391906126fa565b6116f7565b6040516105159190612da0565b60405180910390f35b610538600480360381019061053391906126fa565b611717565b6040516105459190612f93565b60405180910390f35b61056860048036038101906105639190612723565b61172f565b6040516105759190612f93565b60405180910390f35b6105866117b6565b6040516105939190612f93565b60405180910390f35b6105b660048036038101906105b19190612813565b6117da565b6040516105c39190612d25565b60405180910390f35b6060600380546105db906131ca565b80601f0160208091040260200160405190810160405280929190818152602001828054610607906131ca565b80156106545780601f1061062957610100808354040283529160200191610654565b820191906000526020600020905b81548152906001019060200180831161063757829003601f168201915b5050505050905090565b600061067261066b611819565b8484611821565b6001905092915050565b6000600254905090565b60006106938484846119ec565b6000600160008673ffffffffffffffffffffffffffffffffffffffff1673ffffffffffffffffffffffffffffffffffffffff16815260200190815260200160002060006106de611819565b73ffffffffffffffffffffffffffffffffffffffff1673ffffffffffffffffffffffffffffffffffffffff1681526020019081526020016000205490508281101561075e576040517f08c379a000000000000000000000000000000000000000000000000000000000815260040161075590612e93565b60405180910390fd5b61077b8561076a611819565b858461077691906130c6565b611821565b60019150509392505050565b600660009054906101000a900473ffffffffffffffffffffffffffffffffffffffff1681565b6000600d60003373ffffffffffffffffffffffffffffffffffffffff1673ffffffffffffffffffffffffffffffffffffffff16815260200190815260200160002054905060008111610834576040517f08c379a000000000000000000000000000000000000000000000000000000000815260040161082b90612ed3565b60405180910390fd5b8161083e33610e37565b101561087f576040517f08c379a000000000000000000000000000000000000000000000000000000000815260040161087690612eb3565b60405180910390fd5b6000600d60003373ffffffffffffffffffffffffffffffffffffffff1673ffffffffffffffffffffffffffffffffffffffff168152602001908152602001600020819055506000601060003373ffffffffffffffffffffffffffffffffffffffff1673ffffffffffffffffffffffffffffffffffffffff16815260200190815260200160002060006101000a81548160ff0219169083151502179055506000600f60003373ffffffffffffffffffffffffffffffffffffffff1673ffffffffffffffffffffffffffffffffffffffff16815260200190815260200160002060006101000a81548160ff02191690831515021790555061097d33611c6b565b600660009054906101000a900473ffffffffffffffffffffffffffffffffffffffff1673ffffffffffffffffffffffffffffffffffffffff1663a9059cbb33846040518363ffffffff1660e01b81526004016109da929190612d77565b602060405180830381600087803b1580156109f457600080fd5b505af1158015610a08573d6000803e3d6000fd5b505050506040513d601f19601f82011682018060405250810190610a2c91906127ea565b50610a373383611ded565b5050565b60006012905090565b6000610ae6610a51611819565b848460016000610a5f611819565b73ffffffffffffffffffffffffffffffffffffffff1673ffffffffffffffffffffffffffffffffffffffff16815260200190815260200160002060008873ffffffffffffffffffffffffffffffffffffffff1673ffffffffffffffffffffffffffffffffffffffff16815260200190815260200160002054610ae19190612fe5565b611821565b6001905092915050565b600d6020528060005260406000206000915090505481565b6011602052816000526040600020602052806000526040600020600091509150505481565b600a60009054906101000a900473ffffffffffffffffffffffffffffffffffffffff1681565b7f00000000000000000000000000000000000000000000000000000000000000004210610e0a576000600e60003373ffffffffffffffffffffffffffffffffffffffff1673ffffffffffffffffffffffffffffffffffffffff16815260200190815260200160002054905060008111610c01576040517f08c379a0000000000000000000000000000000000000000000000000000000008152600401610bf890612ed3565b60405180910390fd5b81610c0b33610e37565b1015610c4c576040517f08c379a0000000000000000000000000000000000000000000000000000000008152600401610c4390612eb3565b60405180910390fd5b6000600e60003373ffffffffffffffffffffffffffffffffffffffff1673ffffffffffffffffffffffffffffffffffffffff168152602001908152602001600020819055506000601060003373ffffffffffffffffffffffffffffffffffffffff1673ffffffffffffffffffffffffffffffffffffffff16815260200190815260200160002060006101000a81548160ff0219169083151502179055506000600f60003373ffffffffffffffffffffffffffffffffffffffff1673ffffffffffffffffffffffffffffffffffffffff16815260200190815260200160002060006101000a81548160ff021916908315150217905550610d4a33611fc1565b600660009054906101000a900473ffffffffffffffffffffffffffffffffffffffff1673ffffffffffffffffffffffffffffffffffffffff1663a9059cbb33846040518363ffffffff1660e01b8152600401610da7929190612d77565b602060405180830381600087803b158015610dc157600080fd5b505af1158015610dd5573d6000803e3d6000fd5b505050506040513d601f19601f82011682018060405250810190610df991906127ea565b50610e043383611ded565b50610e14565b610e138161214f565b5b50565b60106020528060005260406000206000915054906101000a900460ff1681565b60008060008373ffffffffffffffffffffffffffffffffffffffff1673ffffffffffffffffffffffffffffffffffffffff168152602001908152602001600020549050919050565b600b5481565b606060048054610e94906131ca565b80601f0160208091040260200160405190810160405280929190818152602001828054610ec0906131ca565b8015610f0d5780601f10610ee257610100808354040283529160200191610f0d565b820191906000526020600020905b815481529060010190602001808311610ef057829003601f168201915b5050505050905090565b60008060016000610f26611819565b73ffffffffffffffffffffffffffffffffffffffff1673ffffffffffffffffffffffffffffffffffffffff16815260200190815260200160002060008573ffffffffffffffffffffffffffffffffffffffff1673ffffffffffffffffffffffffffffffffffffffff16815260200190815260200160002054905082811015610fe3576040517f08c379a0000000000000000000000000000000000000000000000000000000008152600401610fda90612f53565b60405180910390fd5b611000610fee611819565b858584610ffb91906130c6565b611821565b600191505092915050565b6000600560003373ffffffffffffffffffffffffffffffffffffffff1673ffffffffffffffffffffffffffffffffffffffff1681526020019081526020016000205414156110985743600560003373ffffffffffffffffffffffffffffffffffffffff1673ffffffffffffffffffffffffffffffffffffffff168152602001908152602001600020819055505b6110a133611fc1565b600660009054906101000a900473ffffffffffffffffffffffffffffffffffffffff1673ffffffffffffffffffffffffffffffffffffffff166323b872dd3330846040518463ffffffff1660e01b815260040161110093929190612d40565b602060405180830381600087803b15801561111a57600080fd5b505af115801561112e573d6000803e3d6000fd5b505050506040513d601f19601f8201168201806040525081019061115291906127ea565b5080600e60003373ffffffffffffffffffffffffffffffffffffffff1673ffffffffffffffffffffffffffffffffffffffff1681526020019081526020016000205461119e9190612fe5565b600e60003373ffffffffffffffffffffffffffffffffffffffff1673ffffffffffffffffffffffffffffffffffffffff168152602001908152602001600020819055506111eb33826124cc565b600f60003373ffffffffffffffffffffffffffffffffffffffff1673ffffffffffffffffffffffffffffffffffffffff16815260200190815260200160002060009054906101000a900460ff166112a057600c339080600181540180825580915050600190039060005260206000200160009091909190916101000a81548173ffffffffffffffffffffffffffffffffffffffff021916908373ffffffffffffffffffffffffffffffffffffffff1602179055505b6001600f60003373ffffffffffffffffffffffffffffffffffffffff1673ffffffffffffffffffffffffffffffffffffffff16815260200190815260200160002060006101000a81548160ff0219169083151502179055506001601060003373ffffffffffffffffffffffffffffffffffffffff1673ffffffffffffffffffffffffffffffffffffffff16815260200190815260200160002060006101000a81548160ff02191690831515021790555050565b6000611367611360611819565b84846119ec565b6001905092915050565b600760009054906101000a900473ffffffffffffffffffffffffffffffffffffffff1681565b6000600560003373ffffffffffffffffffffffffffffffffffffffff1673ffffffffffffffffffffffffffffffffffffffff1681526020019081526020016000205414156114245743600560003373ffffffffffffffffffffffffffffffffffffffff1673ffffffffffffffffffffffffffffffffffffffff168152602001908152602001600020819055505b61142d33611c6b565b600660009054906101000a900473ffffffffffffffffffffffffffffffffffffffff1673ffffffffffffffffffffffffffffffffffffffff166323b872dd3330846040518463ffffffff1660e01b815260040161148c93929190612d40565b602060405180830381600087803b1580156114a657600080fd5b505af11580156114ba573d6000803e3d6000fd5b505050506040513d601f19601f820116820180604052508101906114de91906127ea565b5080600d60003373ffffffffffffffffffffffffffffffffffffffff1673ffffffffffffffffffffffffffffffffffffffff1681526020019081526020016000205461152a9190612fe5565b600d60003373ffffffffffffffffffffffffffffffffffffffff1673ffffffffffffffffffffffffffffffffffffffff1681526020019081526020016000208190555061157733826124cc565b600f60003373ffffffffffffffffffffffffffffffffffffffff1673ffffffffffffffffffffffffffffffffffffffff16815260200190815260200160002060009054906101000a900460ff1661162c57600c339080600181540180825580915050600190039060005260206000200160009091909190916101000a81548173ffffffffffffffffffffffffffffffffffffffff021916908373ffffffffffffffffffffffffffffffffffffffff1602179055505b6001600f60003373ffffffffffffffffffffffffffffffffffffffff1673ffffffffffffffffffffffffffffffffffffffff16815260200190815260200160002060006101000a81548160ff0219169083151502179055506001601060003373ffffffffffffffffffffffffffffffffffffffff1673ffffffffffffffffffffffffffffffffffffffff16815260200190815260200160002060006101000a81548160ff02191690831515021790555050565b600e6020528060005260406000206000915090505481565b600f6020528060005260406000206000915054906101000a900460ff1681565b60056020528060005260406000206000915090505481565b6000600160008473ffffffffffffffffffffffffffffffffffffffff1673ffffffffffffffffffffffffffffffffffffffff16815260200190815260200160002060008373ffffffffffffffffffffffffffffffffffffffff1673ffffffffffffffffffffffffffffffffffffffff16815260200190815260200160002054905092915050565b7f000000000000000000000000000000000000000000000000000000000000000081565b600c81815481106117ea57600080fd5b906000526020600020016000915054906101000a900473ffffffffffffffffffffffffffffffffffffffff1681565b600033905090565b600073ffffffffffffffffffffffffffffffffffffffff168373ffffffffffffffffffffffffffffffffffffffff161415611891576040517f08c379a000000000000000000000000000000000000000000000000000000000815260040161188890612f33565b60405180910390fd5b600073ffffffffffffffffffffffffffffffffffffffff168273ffffffffffffffffffffffffffffffffffffffff161415611901576040517f08c379a00000000000000000000000000000000000000000000000000000000081526004016118f890612e53565b60405180910390fd5b80600160008573ffffffffffffffffffffffffffffffffffffffff1673ffffffffffffffffffffffffffffffffffffffff16815260200190815260200160002060008473ffffffffffffffffffffffffffffffffffffffff1673ffffffffffffffffffffffffffffffffffffffff168152602001908152602001600020819055508173ffffffffffffffffffffffffffffffffffffffff168373ffffffffffffffffffffffffffffffffffffffff167f8c5be1e5ebec7d5bd14f71427d1e84f3dd0314c0f7b2291e5b200ac8c7c3b925836040516119df9190612f93565b60405180910390a3505050565b600073ffffffffffffffffffffffffffffffffffffffff168373ffffffffffffffffffffffffffffffffffffffff161415611a5c576040517f08c379a0000000000000000000000000000000000000000000000000000000008152600401611a5390612f13565b60405180910390fd5b600073ffffffffffffffffffffffffffffffffffffffff168273ffffffffffffffffffffffffffffffffffffffff161415611acc576040517f08c379a0000000000000000000000000000000000000000000000000000000008152600401611ac390612e13565b60405180910390fd5b611ad7838383612620565b60008060008573ffffffffffffffffffffffffffffffffffffffff1673ffffffffffffffffffffffffffffffffffffffff16815260200190815260200160002054905081811015611b5d576040517f08c379a0000000000000000000000000000000000000000000000000000000008152600401611b5490612e73565b60405180910390fd5b8181611b6991906130c6565b6000808673ffffffffffffffffffffffffffffffffffffffff1673ffffffffffffffffffffffffffffffffffffffff16815260200190815260200160002081905550816000808573ffffffffffffffffffffffffffffffffffffffff1673ffffffffffffffffffffffffffffffffffffffff1681526020019081526020016000206000828254611bf99190612fe5565b925050819055508273ffffffffffffffffffffffffffffffffffffffff168473ffffffffffffffffffffffffffffffffffffffff167fddf252ad1be2c89b69c2b068fc378daa952ba7f163c4a11628f55a4df523b3ef84604051611c5d9190612f93565b60405180910390a350505050565b6000600560008373ffffffffffffffffffffffffffffffffffffffff1673ffffffffffffffffffffffffffffffffffffffff16815260200190815260200160002054905060008143611cbd91906130c6565b1115611de95760006008548243611cd491906130c6565b611cdd85610e37565b611ce7919061306c565b611cf1919061303b565b9050600760009054906101000a900473ffffffffffffffffffffffffffffffffffffffff1673ffffffffffffffffffffffffffffffffffffffff1663a9059cbb84836040518363ffffffff1660e01b8152600401611d50929190612d77565b602060405180830381600087803b158015611d6a57600080fd5b505af1158015611d7e573d6000803e3d6000fd5b505050506040513d601f19601f82011682018060405250810190611da291906127ea565b5043600560008573ffffffffffffffffffffffffffffffffffffffff1673ffffffffffffffffffffffffffffffffffffffff16815260200190815260200160002081905550505b5050565b600073ffffffffffffffffffffffffffffffffffffffff168273ffffffffffffffffffffffffffffffffffffffff161415611e5d576040517f08c379a0000000000000000000000000000000000000000000000000000000008152600401611e5490612ef3565b60405180910390fd5b611e6982600083612620565b60008060008473ffffffffffffffffffffffffffffffffffffffff1673ffffffffffffffffffffffffffffffffffffffff16815260200190815260200160002054905081811015611eef576040517f08c379a0000000000000000000000000000000000000000000000000000000008152600401611ee690612e33565b60405180910390fd5b8181611efb91906130c6565b6000808573ffffffffffffffffffffffffffffffffffffffff1673ffffffffffffffffffffffffffffffffffffffff168152602001908152602001600020819055508160026000828254611f4f91906130c6565b92505081905550600073ffffffffffffffffffffffffffffffffffffffff168373ffffffffffffffffffffffffffffffffffffffff167fddf252ad1be2c89b69c2b068fc378daa952ba7f163c4a11628f55a4df523b3ef84604051611fb49190612f93565b60405180910390a3505050565b6000600560008373ffffffffffffffffffffffffffffffffffffffff1673ffffffffffffffffffffffffffffffffffffffff1681526020019081526020016000205490506000814361201391906130c6565b111561214b576000814361202791906130c6565b600954606461203586610e37565b61203f919061303b565b612049919061306c565b6120539190612fe5565b9050600760009054906101000a900473ffffffffffffffffffffffffffffffffffffffff1673ffffffffffffffffffffffffffffffffffffffff1663a9059cbb84836040518363ffffffff1660e01b81526004016120b2929190612d77565b602060405180830381600087803b1580156120cc57600080fd5b505af11580156120e0573d6000803e3d6000fd5b505050506040513d601f19601f8201168201806040525081019061210491906127ea565b5043600560008573ffffffffffffffffffffffffffffffffffffffff1673ffffffffffffffffffffffffffffffffffffffff16815260200190815260200160002081905550505b5050565b6000600e60003373ffffffffffffffffffffffffffffffffffffffff1673ffffffffffffffffffffffffffffffffffffffff16815260200190815260200160002054905060006121bd60646121af600b548661262590919063ffffffff16565b61266a90919063ffffffff16565b905060008211612202576040517f08c379a00000000000000000000000000000000000000000000000000000000081526004016121f990612ed3565b60405180910390fd5b8261220c33610e37565b101561224d576040517f08c379a000000000000000000000000000000000000000000000000000000000815260040161224490612eb3565b60405180910390fd5b6000600e60003373ffffffffffffffffffffffffffffffffffffffff1673ffffffffffffffffffffffffffffffffffffffff168152602001908152602001600020819055506000601060003373ffffffffffffffffffffffffffffffffffffffff1673ffffffffffffffffffffffffffffffffffffffff16815260200190815260200160002060006101000a81548160ff0219169083151502179055506000600f60003373ffffffffffffffffffffffffffffffffffffffff1673ffffffffffffffffffffffffffffffffffffffff16815260200190815260200160002060006101000a81548160ff02191690831515021790555061234b33611fc1565b600660009054906101000a900473ffffffffffffffffffffffffffffffffffffffff1673ffffffffffffffffffffffffffffffffffffffff1663a9059cbb3361239d848761269290919063ffffffff16565b6040518363ffffffff1660e01b81526004016123ba929190612d77565b602060405180830381600087803b1580156123d457600080fd5b505af11580156123e8573d6000803e3d6000fd5b505050506040513d601f19601f8201168201806040525081019061240c91906127ea565b50600660009054906101000a900473ffffffffffffffffffffffffffffffffffffffff1673ffffffffffffffffffffffffffffffffffffffff1663a9059cbb30836040518363ffffffff1660e01b815260040161246a929190612d77565b602060405180830381600087803b15801561248457600080fd5b505af1158015612498573d6000803e3d6000fd5b505050506040513d601f19601f820116820180604052508101906124bc91906127ea565b506124c73384611ded565b505050565b600073ffffffffffffffffffffffffffffffffffffffff168273ffffffffffffffffffffffffffffffffffffffff16141561253c576040517f08c379a000000000000000000000000000000000000000000000000000000000815260040161253390612f73565b60405180910390fd5b61254860008383612620565b806002600082825461255a9190612fe5565b92505081905550806000808473ffffffffffffffffffffffffffffffffffffffff1673ffffffffffffffffffffffffffffffffffffffff16815260200190815260200160002060008282546125af9190612fe5565b925050819055508173ffffffffffffffffffffffffffffffffffffffff16600073ffffffffffffffffffffffffffffffffffffffff167fddf252ad1be2c89b69c2b068fc378daa952ba7f163c4a11628f55a4df523b3ef836040516126149190612f93565b60405180910390a35050565b505050565b6000808314156126385760009050612664565b60008284612646919061306c565b9050828482612655919061303b565b1461265f57600080fd5b809150505b92915050565b600080821161267857600080fd5b60008284612686919061303b565b90508091505092915050565b6000828211156126a157600080fd5b600082846126af91906130c6565b90508091505092915050565b6000813590506126ca8161329a565b92915050565b6000815190506126df816132b1565b92915050565b6000813590506126f4816132c8565b92915050565b60006020828403121561270c57600080fd5b600061271a848285016126bb565b91505092915050565b6000806040838503121561273657600080fd5b6000612744858286016126bb565b9250506020612755858286016126bb565b9150509250929050565b60008060006060848603121561277457600080fd5b6000612782868287016126bb565b9350506020612793868287016126bb565b92505060406127a4868287016126e5565b9150509250925092565b600080604083850312156127c157600080fd5b60006127cf858286016126bb565b92505060206127e0858286016126e5565b9150509250929050565b6000602082840312156127fc57600080fd5b600061280a848285016126d0565b91505092915050565b60006020828403121561282557600080fd5b6000612833848285016126e5565b91505092915050565b612845816130fa565b82525050565b6128548161310c565b82525050565b6128638161314f565b82525050565b61287281613173565b82525050565b600061288382612fc9565b61288d8185612fd4565b935061289d818560208601613197565b6128a681613289565b840191505092915050565b60006128be602383612fd4565b91507f45524332303a207472616e7366657220746f20746865207a65726f206164647260008301527f65737300000000000000000000000000000000000000000000000000000000006020830152604082019050919050565b6000612924602283612fd4565b91507f45524332303a206275726e20616d6f756e7420657863656564732062616c616e60008301527f63650000000000000000000000000000000000000000000000000000000000006020830152604082019050919050565b600061298a602283612fd4565b91507f45524332303a20617070726f766520746f20746865207a65726f20616464726560008301527f73730000000000000000000000000000000000000000000000000000000000006020830152604082019050919050565b60006129f0602683612fd4565b91507f45524332303a207472616e7366657220616d6f756e742065786365656473206260008301527f616c616e636500000000000000000000000000000000000000000000000000006020830152604082019050919050565b6000612a56602883612fd4565b91507f45524332303a207472616e7366657220616d6f756e742065786365656473206160008301527f6c6c6f77616e63650000000000000000000000000000000000000000000000006020830152604082019050919050565b6000612abc601483612fd4565b91507f6e6f7420656e6f756768204c5020546f6b656e730000000000000000000000006000830152602082019050919050565b6000612afc601483612fd4565b91507f696e73756666696369656e742062616c616e63650000000000000000000000006000830152602082019050919050565b6000612b3c602183612fd4565b91507f45524332303a206275726e2066726f6d20746865207a65726f2061646472657360008301527f73000000000000000000000000000000000000000000000000000000000000006020830152604082019050919050565b6000612ba2602583612fd4565b91507f45524332303a207472616e736665722066726f6d20746865207a65726f20616460008301527f64726573730000000000000000000000000000000000000000000000000000006020830152604082019050919050565b6000612c08602483612fd4565b91507f45524332303a20617070726f76652066726f6d20746865207a65726f2061646460008301527f72657373000000000000000000000000000000000000000000000000000000006020830152604082019050919050565b6000612c6e602583612fd4565b91507f45524332303a2064656372656173656420616c6c6f77616e63652062656c6f7760008301527f207a65726f0000000000000000000000000000000000000000000000000000006020830152604082019050919050565b6000612cd4601f83612fd4565b91507f45524332303a206d696e7420746f20746865207a65726f2061646472657373006000830152602082019050919050565b612d1081613138565b82525050565b612d1f81613142565b82525050565b6000602082019050612d3a600083018461283c565b92915050565b6000606082019050612d55600083018661283c565b612d62602083018561283c565b612d6f6040830184612d07565b949350505050565b6000604082019050612d8c600083018561283c565b612d996020830184612d07565b9392505050565b6000602082019050612db5600083018461284b565b92915050565b6000602082019050612dd0600083018461285a565b92915050565b6000602082019050612deb6000830184612869565b92915050565b60006020820190508181036000830152612e0b8184612878565b905092915050565b60006020820190508181036000830152612e2c816128b1565b9050919050565b60006020820190508181036000830152612e4c81612917565b9050919050565b60006020820190508181036000830152612e6c8161297d565b9050919050565b60006020820190508181036000830152612e8c816129e3565b9050919050565b60006020820190508181036000830152612eac81612a49565b9050919050565b60006020820190508181036000830152612ecc81612aaf565b9050919050565b60006020820190508181036000830152612eec81612aef565b9050919050565b60006020820190508181036000830152612f0c81612b2f565b9050919050565b60006020820190508181036000830152612f2c81612b95565b9050919050565b60006020820190508181036000830152612f4c81612bfb565b9050919050565b60006020820190508181036000830152612f6c81612c61565b9050919050565b60006020820190508181036000830152612f8c81612cc7565b9050919050565b6000602082019050612fa86000830184612d07565b92915050565b6000602082019050612fc36000830184612d16565b92915050565b600081519050919050565b600082825260208201905092915050565b6000612ff082613138565b9150612ffb83613138565b9250827fffffffffffffffffffffffffffffffffffffffffffffffffffffffffffffffff038211156130305761302f6131fc565b5b828201905092915050565b600061304682613138565b915061305183613138565b9250826130615761306061322b565b5b828204905092915050565b600061307782613138565b915061308283613138565b9250817fffffffffffffffffffffffffffffffffffffffffffffffffffffffffffffffff04831182151516156130bb576130ba6131fc565b5b828202905092915050565b60006130d182613138565b91506130dc83613138565b9250828210156130ef576130ee6131fc565b5b828203905092915050565b600061310582613118565b9050919050565b60008115159050919050565b600073ffffffffffffffffffffffffffffffffffffffff82169050919050565b6000819050919050565b600060ff82169050919050565b600061315a82613161565b9050919050565b600061316c82613118565b9050919050565b600061317e82613185565b9050919050565b600061319082613118565b9050919050565b60005b838110156131b557808201518184015260208101905061319a565b838111156131c4576000848401525b50505050565b600060028204905060018216806131e257607f821691505b602082108114156131f6576131f561325a565b5b50919050565b7f4e487b7100000000000000000000000000000000000000000000000000000000600052601160045260246000fd5b7f4e487b7100000000000000000000000000000000000000000000000000000000600052601260045260246000fd5b7f4e487b7100000000000000000000000000000000000000000000000000000000600052602260045260246000fd5b6000601f19601f8301169050919050565b6132a3816130fa565b81146132ae57600080fd5b50565b6132ba8161310c565b81146132c557600080fd5b50565b6132d181613138565b81146132dc57600080fd5b5056fea26469706673582212201337e3081ca7c0519f7270e548644034c691b2b76e31ffc8e66e3763b4bf96cb64736f6c63430008000033",
  "immutableReferences": {
    "36": [
      {
        "length": 32,
        "start": 2901
      },
      {
        "length": 32,
        "start": 6072
      }
    ]
  },
  "source": "pragma solidity ^0.8.0;\r\n\r\nimport './UnderlyingToken.sol';\r\nimport './LpToken.sol';\r\nimport '@openzeppelin/contracts/token/ERC20/IERC20.sol';\r\nimport \"openzeppelin-solidity/contracts/math/SafeMath.sol\";\r\n\r\n\r\n\r\ncontract LiquidityPool is LpToken {\r\n\tusing SafeMath for uint;\r\n\r\n\tmapping(address => uint) public checkpoints;\r\n\tUnderlyingToken public underlyingToken;\r\n\tIERC20 public thothToken;\r\n\t// uint constant public REWARD_PER_BLOCK = 1;\r\n\tuint private REWARD_PERCENTAGE = 10;\r\n\tuint private LOCKED_REWARD_PERCENTAGE = 20;\r\n\taddress public feeAccount; // account for exchange fees\r\n\tuint256 public feePercent = 50; // percent for the exchange\r\n\r\n\r\n\tuint private constant duration = 2 days;\r\n\tuint public immutable end;\r\n\r\n\r\n\taddress[] public stakers;\r\n    mapping(address => uint) public stakingBalance;\r\n    mapping(address => uint) public lockedStakingBalance;\r\n    mapping(address => bool) public hasStaked;\r\n    mapping(address => bool) public isStaking;\r\n    mapping(address => mapping(address => uint256)) public tokens;\r\n\r\n\r\n\r\n\r\n\r\n\tconstructor(address _underlyingToken, address _governanceToken) {\r\n\t\tunderlyingToken = UnderlyingToken(_underlyingToken);\r\n\t\tthothToken = IERC20(_governanceToken);\r\n\t\tend = block.timestamp + duration;\r\n\t}\r\n\r\n\r\n\r\n\r\n\tfunction deposit(uint amount) external {\r\n\t\tif(checkpoints[msg.sender] == 0) {\r\n\t\t\tcheckpoints[msg.sender] = block.number;\r\n\t\t}\r\n\r\n\t\t_distributeRewards(msg.sender);\r\n\t\tunderlyingToken.transferFrom(msg.sender, address(this), amount);\r\n\r\n\t\t// update staking balance\r\n        stakingBalance[msg.sender] = stakingBalance[msg.sender] + amount;\r\n\r\n\t\t_mint(msg.sender, amount);\r\n\r\n\t\t// add user to stakers array only if they haven\"t staked\r\n        if(!hasStaked[msg.sender]) {\r\n            stakers.push(msg.sender);\r\n        }\r\n\r\n        // update staking staus\r\n        hasStaked[msg.sender] = true;\r\n        isStaking[msg.sender] = true;\r\n\t}\r\n\r\n\tfunction lockedDeposit(uint amount) external {\r\n\t\tif(checkpoints[msg.sender] == 0) {\r\n\t\t\tcheckpoints[msg.sender] = block.number;\r\n\t\t}\r\n\r\n\t\t_distributeRewardsForlockedStaking(msg.sender);\r\n\t\tunderlyingToken.transferFrom(msg.sender, address(this), amount);\r\n\r\n\t\t// update staking balance\r\n        lockedStakingBalance[msg.sender] = lockedStakingBalance[msg.sender] + amount;\r\n\r\n\t\t_mint(msg.sender, amount);\r\n\r\n\t\t// add user to stakers array only if they haven\"t staked\r\n        if(!hasStaked[msg.sender]) {\r\n            stakers.push(msg.sender);\r\n        }\r\n\r\n        // update staking staus\r\n        hasStaked[msg.sender] = true;\r\n        isStaking[msg.sender] = true;\r\n\r\n\t}\r\n\r\n\tfunction withdraw(uint amount) external {\r\n\t\t// fetch staking balance\r\n        uint balance = stakingBalance[msg.sender];\r\n\r\n        require( balance > 0, \"insufficient balance\");\r\n\t\trequire(balanceOf(msg.sender) >= amount, 'not enough LP Tokens');\r\n\r\n\t\t// reset staking balance\r\n        stakingBalance[msg.sender] = 0;\r\n\r\n        // update staking status\r\n        isStaking[msg.sender] = false;\r\n        hasStaked[msg.sender] = false;\r\n        \r\n\t\t_distributeRewards(msg.sender);\r\n\t\tunderlyingToken.transfer(msg.sender, amount);\r\n\t\t_burn(msg.sender, amount);\r\n\r\n\t}\r\n\r\n\tfunction _withdrawBeforeTimelockexpires(uint amount) internal {\r\n\t\t// fetch staking balance\r\n        uint balance = lockedStakingBalance[msg.sender];\r\n        uint256 _feeAmount = amount.mul(feePercent).div(100);\r\n\r\n        \r\n\r\n        require( balance > 0, \"insufficient balance\");\r\n\t\trequire(balanceOf(msg.sender) >= amount, 'not enough LP Tokens');\r\n\r\n\t\t// reset staking balance\r\n        lockedStakingBalance[msg.sender] = 0;\r\n\r\n        // update staking status\r\n        isStaking[msg.sender] = false;\r\n        hasStaked[msg.sender] = false;\r\n        \r\n\t\t_distributeRewardsForlockedStaking(msg.sender);\r\n\t\tunderlyingToken.transfer(msg.sender, amount.sub(_feeAmount));\r\n\t\tunderlyingToken.transfer(address(this), _feeAmount);\r\n\t\t_burn(msg.sender, amount);\r\n\r\n\t}\r\n\r\n\tfunction lockedWithdraw(uint amount) external {\r\n\t\tif(block.timestamp >= end) {\r\n\t\t\t// fetch staking balance\r\n\t        uint balance = lockedStakingBalance[msg.sender];\r\n\t        require( balance > 0, \"insufficient balance\");\r\n\t\t\trequire(balanceOf(msg.sender) >= amount, 'not enough LP Tokens');\r\n\r\n\t\t\t// reset staking balance\r\n\t        lockedStakingBalance[msg.sender] = 0;\r\n\r\n\t        // update staking status\r\n\t        isStaking[msg.sender] = false;\r\n\t        hasStaked[msg.sender] = false;\r\n\t        \r\n\t\t\t_distributeRewardsForlockedStaking(msg.sender);\r\n\t\t\tunderlyingToken.transfer(msg.sender, amount);\r\n\t\t\t_burn(msg.sender, amount);\r\n\t\t} \r\n\t\telse {\r\n\t\t\t_withdrawBeforeTimelockexpires(amount);\r\n\t\t}\r\n\t\t\r\n\t\t\r\n\r\n\t}\r\n\r\n\tfunction _distributeRewardsForlockedStaking(address beneficiary) internal {\r\n\t\tuint checkpoint = checkpoints[beneficiary];\r\n\t\tif(block.number - checkpoint > 0 ) {\r\n\t\t\tuint distributionAmount = (balanceOf(beneficiary) / 100 * LOCKED_REWARD_PERCENTAGE ) + (block.number-checkpoint) ;\r\n\r\n\t\t\tthothToken.transfer(beneficiary, distributionAmount);\r\n\t\t\tcheckpoints[beneficiary] = block.number;\r\n\t\t}\r\n\t}\r\n\r\n\r\n\tfunction _distributeRewards(address beneficiary) internal {\r\n\t\tuint checkpoint = checkpoints[beneficiary];\r\n\t\tif(block.number - checkpoint > 0 ) {\r\n\t\t\tuint distributionAmount = balanceOf(beneficiary) * (block.number - checkpoint ) / REWARD_PERCENTAGE;\r\n\r\n\t\t\tthothToken.transfer(beneficiary, distributionAmount);\r\n\t\t\tcheckpoints[beneficiary] = block.number;\r\n\t\t}\r\n\t}\r\n}",
  "sourcePath": "/mnt/c/pr0/liquidity-pool/liquidity-mining/contracts/LiquidityPool.sol",
  "compiler": {
    "name": "solc",
    "version": "0.8.0+commit.c7dfd78e.Emscripten.clang"
  },
  "schemaVersion": "3.4.0",
  "updatedAt": "2021-06-22T09:17:09.491Z",
  "networkType": "ethereum",
  "devdoc": {
    "kind": "dev",
    "methods": {
      "allowance(address,address)": {
        "details": "See {IERC20-allowance}."
      },
      "approve(address,uint256)": {
        "details": "See {IERC20-approve}. Requirements: - `spender` cannot be the zero address."
      },
      "balanceOf(address)": {
        "details": "See {IERC20-balanceOf}."
      },
      "decimals()": {
        "details": "Returns the number of decimals used to get its user representation. For example, if `decimals` equals `2`, a balance of `505` tokens should be displayed to a user as `5,05` (`505 / 10 ** 2`). Tokens usually opt for a value of 18, imitating the relationship between Ether and Wei. This is the value {ERC20} uses, unless this function is overridden; NOTE: This information is only used for _display_ purposes: it in no way affects any of the arithmetic of the contract, including {IERC20-balanceOf} and {IERC20-transfer}."
      },
      "decreaseAllowance(address,uint256)": {
        "details": "Atomically decreases the allowance granted to `spender` by the caller. This is an alternative to {approve} that can be used as a mitigation for problems described in {IERC20-approve}. Emits an {Approval} event indicating the updated allowance. Requirements: - `spender` cannot be the zero address. - `spender` must have allowance for the caller of at least `subtractedValue`."
      },
      "increaseAllowance(address,uint256)": {
        "details": "Atomically increases the allowance granted to `spender` by the caller. This is an alternative to {approve} that can be used as a mitigation for problems described in {IERC20-approve}. Emits an {Approval} event indicating the updated allowance. Requirements: - `spender` cannot be the zero address."
      },
      "name()": {
        "details": "Returns the name of the token."
      },
      "symbol()": {
        "details": "Returns the symbol of the token, usually a shorter version of the name."
      },
      "totalSupply()": {
        "details": "See {IERC20-totalSupply}."
      },
      "transfer(address,uint256)": {
        "details": "See {IERC20-transfer}. Requirements: - `recipient` cannot be the zero address. - the caller must have a balance of at least `amount`."
      },
      "transferFrom(address,address,uint256)": {
        "details": "See {IERC20-transferFrom}. Emits an {Approval} event indicating the updated allowance. This is not required by the EIP. See the note at the beginning of {ERC20}. Requirements: - `sender` and `recipient` cannot be the zero address. - `sender` must have a balance of at least `amount`. - the caller must have allowance for ``sender``'s tokens of at least `amount`."
      }
    },
    "version": 1
  },
  "userdoc": {
    "kind": "user",
    "methods": {},
    "version": 1
  }
}