{
  "contractName": "LiquidityPool",
  "abi": [
    {
      "inputs": [
        {
          "internalType": "address",
          "name": "_underlyingToken",
          "type": "address"
        },
        {
          "internalType": "address",
          "name": "_governanceToken",
          "type": "address"
        }
      ],
      "stateMutability": "nonpayable",
      "type": "constructor"
    },
    {
      "anonymous": false,
      "inputs": [
        {
          "indexed": true,
          "internalType": "address",
          "name": "owner",
          "type": "address"
        },
        {
          "indexed": true,
          "internalType": "address",
          "name": "spender",
          "type": "address"
        },
        {
          "indexed": false,
          "internalType": "uint256",
          "name": "value",
          "type": "uint256"
        }
      ],
      "name": "Approval",
      "type": "event"
    },
    {
      "anonymous": false,
      "inputs": [
        {
          "indexed": false,
          "internalType": "address",
          "name": "user",
          "type": "address"
        },
        {
          "indexed": false,
          "internalType": "uint256",
          "name": "amount",
          "type": "uint256"
        },
        {
          "indexed": false,
          "internalType": "uint256",
          "name": "balance",
          "type": "uint256"
        }
      ],
      "name": "Deposit",
      "type": "event"
    },
    {
      "anonymous": false,
      "inputs": [
        {
          "indexed": true,
          "internalType": "address",
          "name": "previousOwner",
          "type": "address"
        },
        {
          "indexed": true,
          "internalType": "address",
          "name": "newOwner",
          "type": "address"
        }
      ],
      "name": "OwnershipTransferred",
      "type": "event"
    },
    {
      "anonymous": false,
      "inputs": [
        {
          "indexed": true,
          "internalType": "address",
          "name": "from",
          "type": "address"
        },
        {
          "indexed": true,
          "internalType": "address",
          "name": "to",
          "type": "address"
        },
        {
          "indexed": false,
          "internalType": "uint256",
          "name": "value",
          "type": "uint256"
        }
      ],
      "name": "Transfer",
      "type": "event"
    },
    {
      "anonymous": false,
      "inputs": [
        {
          "indexed": false,
          "internalType": "address",
          "name": "user",
          "type": "address"
        },
        {
          "indexed": false,
          "internalType": "uint256",
          "name": "amount",
          "type": "uint256"
        },
        {
          "indexed": false,
          "internalType": "uint256",
          "name": "balance",
          "type": "uint256"
        }
      ],
      "name": "Withdraw",
      "type": "event"
    },
    {
      "inputs": [
        {
          "internalType": "address",
          "name": "owner",
          "type": "address"
        },
        {
          "internalType": "address",
          "name": "spender",
          "type": "address"
        }
      ],
      "name": "allowance",
      "outputs": [
        {
          "internalType": "uint256",
          "name": "",
          "type": "uint256"
        }
      ],
      "stateMutability": "view",
      "type": "function"
    },
    {
      "inputs": [
        {
          "internalType": "address",
          "name": "spender",
          "type": "address"
        },
        {
          "internalType": "uint256",
          "name": "amount",
          "type": "uint256"
        }
      ],
      "name": "approve",
      "outputs": [
        {
          "internalType": "bool",
          "name": "",
          "type": "bool"
        }
      ],
      "stateMutability": "nonpayable",
      "type": "function"
    },
    {
      "inputs": [
        {
          "internalType": "address",
          "name": "account",
          "type": "address"
        }
      ],
      "name": "balanceOf",
      "outputs": [
        {
          "internalType": "uint256",
          "name": "",
          "type": "uint256"
        }
      ],
      "stateMutability": "view",
      "type": "function"
    },
    {
      "inputs": [
        {
          "internalType": "address",
          "name": "",
          "type": "address"
        }
      ],
      "name": "checkpoints",
      "outputs": [
        {
          "internalType": "uint256",
          "name": "",
          "type": "uint256"
        }
      ],
      "stateMutability": "view",
      "type": "function"
    },
    {
      "inputs": [],
      "name": "decimals",
      "outputs": [
        {
          "internalType": "uint8",
          "name": "",
          "type": "uint8"
        }
      ],
      "stateMutability": "view",
      "type": "function"
    },
    {
      "inputs": [
        {
          "internalType": "address",
          "name": "spender",
          "type": "address"
        },
        {
          "internalType": "uint256",
          "name": "subtractedValue",
          "type": "uint256"
        }
      ],
      "name": "decreaseAllowance",
      "outputs": [
        {
          "internalType": "bool",
          "name": "",
          "type": "bool"
        }
      ],
      "stateMutability": "nonpayable",
      "type": "function"
    },
    {
      "inputs": [],
      "name": "end",
      "outputs": [
        {
          "internalType": "uint256",
          "name": "",
          "type": "uint256"
        }
      ],
      "stateMutability": "view",
      "type": "function"
    },
    {
      "inputs": [],
      "name": "feeAccount",
      "outputs": [
        {
          "internalType": "address",
          "name": "",
          "type": "address"
        }
      ],
      "stateMutability": "view",
      "type": "function"
    },
    {
      "inputs": [],
      "name": "feePercent",
      "outputs": [
        {
          "internalType": "uint256",
          "name": "",
          "type": "uint256"
        }
      ],
      "stateMutability": "view",
      "type": "function"
    },
    {
      "inputs": [
        {
          "internalType": "address",
          "name": "",
          "type": "address"
        }
      ],
      "name": "hasStaked",
      "outputs": [
        {
          "internalType": "bool",
          "name": "",
          "type": "bool"
        }
      ],
      "stateMutability": "view",
      "type": "function"
    },
    {
      "inputs": [
        {
          "internalType": "address",
          "name": "spender",
          "type": "address"
        },
        {
          "internalType": "uint256",
          "name": "addedValue",
          "type": "uint256"
        }
      ],
      "name": "increaseAllowance",
      "outputs": [
        {
          "internalType": "bool",
          "name": "",
          "type": "bool"
        }
      ],
      "stateMutability": "nonpayable",
      "type": "function"
    },
    {
      "inputs": [
        {
          "internalType": "address",
          "name": "",
          "type": "address"
        }
      ],
      "name": "isStaking",
      "outputs": [
        {
          "internalType": "bool",
          "name": "",
          "type": "bool"
        }
      ],
      "stateMutability": "view",
      "type": "function"
    },
    {
      "inputs": [
        {
          "internalType": "address",
          "name": "",
          "type": "address"
        }
      ],
      "name": "lockedStakingBalance",
      "outputs": [
        {
          "internalType": "uint256",
          "name": "",
          "type": "uint256"
        }
      ],
      "stateMutability": "view",
      "type": "function"
    },
    {
      "inputs": [],
      "name": "name",
      "outputs": [
        {
          "internalType": "string",
          "name": "",
          "type": "string"
        }
      ],
      "stateMutability": "view",
      "type": "function"
    },
    {
      "inputs": [],
      "name": "owner",
      "outputs": [
        {
          "internalType": "address",
          "name": "",
          "type": "address"
        }
      ],
      "stateMutability": "view",
      "type": "function"
    },
    {
      "inputs": [],
      "name": "renounceOwnership",
      "outputs": [],
      "stateMutability": "nonpayable",
      "type": "function"
    },
    {
      "inputs": [
        {
          "internalType": "uint256",
          "name": "",
          "type": "uint256"
        }
      ],
      "name": "stakers",
      "outputs": [
        {
          "internalType": "address",
          "name": "",
          "type": "address"
        }
      ],
      "stateMutability": "view",
      "type": "function"
    },
    {
      "inputs": [
        {
          "internalType": "address",
          "name": "",
          "type": "address"
        }
      ],
      "name": "stakingBalance",
      "outputs": [
        {
          "internalType": "uint256",
          "name": "",
          "type": "uint256"
        }
      ],
      "stateMutability": "view",
      "type": "function"
    },
    {
      "inputs": [],
      "name": "symbol",
      "outputs": [
        {
          "internalType": "string",
          "name": "",
          "type": "string"
        }
      ],
      "stateMutability": "view",
      "type": "function"
    },
    {
      "inputs": [],
      "name": "thothToken",
      "outputs": [
        {
          "internalType": "contract IERC20",
          "name": "",
          "type": "address"
        }
      ],
      "stateMutability": "view",
      "type": "function"
    },
    {
      "inputs": [
        {
          "internalType": "address",
          "name": "",
          "type": "address"
        },
        {
          "internalType": "address",
          "name": "",
          "type": "address"
        }
      ],
      "name": "tokens",
      "outputs": [
        {
          "internalType": "uint256",
          "name": "",
          "type": "uint256"
        }
      ],
      "stateMutability": "view",
      "type": "function"
    },
    {
      "inputs": [],
      "name": "totalSupply",
      "outputs": [
        {
          "internalType": "uint256",
          "name": "",
          "type": "uint256"
        }
      ],
      "stateMutability": "view",
      "type": "function"
    },
    {
      "inputs": [
        {
          "internalType": "address",
          "name": "recipient",
          "type": "address"
        },
        {
          "internalType": "uint256",
          "name": "amount",
          "type": "uint256"
        }
      ],
      "name": "transfer",
      "outputs": [
        {
          "internalType": "bool",
          "name": "",
          "type": "bool"
        }
      ],
      "stateMutability": "nonpayable",
      "type": "function"
    },
    {
      "inputs": [
        {
          "internalType": "address",
          "name": "sender",
          "type": "address"
        },
        {
          "internalType": "address",
          "name": "recipient",
          "type": "address"
        },
        {
          "internalType": "uint256",
          "name": "amount",
          "type": "uint256"
        }
      ],
      "name": "transferFrom",
      "outputs": [
        {
          "internalType": "bool",
          "name": "",
          "type": "bool"
        }
      ],
      "stateMutability": "nonpayable",
      "type": "function"
    },
    {
      "inputs": [
        {
          "internalType": "address",
          "name": "newOwner",
          "type": "address"
        }
      ],
      "name": "transferOwnership",
      "outputs": [],
      "stateMutability": "nonpayable",
      "type": "function"
    },
    {
      "inputs": [],
      "name": "underlyingToken",
      "outputs": [
        {
          "internalType": "contract UnderlyingToken",
          "name": "",
          "type": "address"
        }
      ],
      "stateMutability": "view",
      "type": "function"
    },
    {
      "inputs": [
        {
          "internalType": "uint256",
          "name": "amount",
          "type": "uint256"
        }
      ],
      "name": "deposit",
      "outputs": [],
      "stateMutability": "nonpayable",
      "type": "function"
    },
    {
      "inputs": [
        {
          "internalType": "uint256",
          "name": "amount",
          "type": "uint256"
        }
      ],
      "name": "lockedDeposit",
      "outputs": [],
      "stateMutability": "nonpayable",
      "type": "function"
    },
    {
      "inputs": [
        {
          "internalType": "uint256",
          "name": "amount",
          "type": "uint256"
        }
      ],
      "name": "withdraw",
      "outputs": [],
      "stateMutability": "nonpayable",
      "type": "function"
    },
    {
      "inputs": [
        {
          "internalType": "uint256",
          "name": "amount",
          "type": "uint256"
        }
      ],
      "name": "lockedWithdraw",
      "outputs": [],
      "stateMutability": "nonpayable",
      "type": "function"
    }
  ],
  "bytecode": "0x60a0604052600a60085560146009556032600b553480156200002057600080fd5b506040516200418c3803806200418c83398181016040528101906200004691906200033f565b6040518060400160405280600881526020017f4c7020546f6b656e0000000000000000000000000000000000000000000000008152506040518060400160405280600381526020017f4c544b00000000000000000000000000000000000000000000000000000000008152508160039080519060200190620000ca92919062000278565b508060049080519060200190620000e392919062000278565b5050506000620000f86200024560201b60201c565b905080600560006101000a81548173ffffffffffffffffffffffffffffffffffffffff021916908373ffffffffffffffffffffffffffffffffffffffff1602179055508073ffffffffffffffffffffffffffffffffffffffff16600073ffffffffffffffffffffffffffffffffffffffff167f8be0079c531659141344cd1fd0a4f28419497f9722a3daafe3b4186f6b6457e060405160405180910390a35081600660006101000a81548173ffffffffffffffffffffffffffffffffffffffff021916908373ffffffffffffffffffffffffffffffffffffffff16021790555080600760006101000a81548173ffffffffffffffffffffffffffffffffffffffff021916908373ffffffffffffffffffffffffffffffffffffffff160217905550620002366202a300426200024d60201b62001f3c1790919060201c565b608081815250505050620004c9565b600033905090565b60008082846200025e919062000380565b9050838110156200026e57600080fd5b8091505092915050565b82805462000286906200041b565b90600052602060002090601f016020900481019282620002aa5760008555620002f6565b82601f10620002c557805160ff1916838001178555620002f6565b82800160010185558215620002f6579182015b82811115620002f5578251825591602001919060010190620002d8565b5b50905062000305919062000309565b5090565b5b80821115620003245760008160009055506001016200030a565b5090565b6000815190506200033981620004af565b92915050565b600080604083850312156200035357600080fd5b6000620003638582860162000328565b9250506020620003768582860162000328565b9150509250929050565b60006200038d8262000411565b91506200039a8362000411565b9250827fffffffffffffffffffffffffffffffffffffffffffffffffffffffffffffffff03821115620003d257620003d162000451565b5b828201905092915050565b6000620003ea82620003f1565b9050919050565b600073ffffffffffffffffffffffffffffffffffffffff82169050919050565b6000819050919050565b600060028204905060018216806200043457607f821691505b602082108114156200044b576200044a62000480565b5b50919050565b7f4e487b7100000000000000000000000000000000000000000000000000000000600052601160045260246000fd5b7f4e487b7100000000000000000000000000000000000000000000000000000000600052602260045260246000fd5b620004ba81620003dd565b8114620004c657600080fd5b50565b608051613ca0620004ec60003960008181610caf0152611d2f0152613ca06000f3fe608060405234801561001057600080fd5b50600436106101da5760003560e01c80637fd6f15c11610104578063b6b55f25116100a2578063dd62ed3e11610071578063dd62ed3e146105a7578063efbe1c1c146105d7578063f2fde38b146105f5578063fd5e6dd114610611576101da565b8063b6b55f25146104fb578063b977f20d14610517578063c93c8f3414610547578063dbb51d6e14610577576101da565b8063a457c2d7116100de578063a457c2d714610461578063a53455a214610491578063a9059cbb146104ad578063b00e163b146104dd576101da565b80637fd6f15c146104075780638da5cb5b1461042557806395d89b4114610443576101da565b8063395093511161017c5780636743d0891161014b5780636743d089146103815780636f49712b1461039d57806370a08231146103cd578063715018a6146103fd576101da565b806339509351146102d357806345bc78ab14610303578063508493bc1461033357806365e17c9d14610363576101da565b806323b872dd116101b857806323b872dd1461024b5780632495a5991461027b5780632e1a7d4d14610299578063313ce567146102b5576101da565b806306fdde03146101df578063095ea7b3146101fd57806318160ddd1461022d575b600080fd5b6101e7610641565b6040516101f4919061373c565b60405180910390f35b61021760048036038101906102129190612ff3565b6106d3565b60405161022491906136eb565b60405180910390f35b6102356106f1565b604051610242919061391e565b60405180910390f35b61026560048036038101906102609190612fa4565b6106fb565b60405161027291906136eb565b60405180910390f35b6102836107fc565b6040516102909190613721565b60405180910390f35b6102b360048036038101906102ae9190613058565b610822565b005b6102bd610b95565b6040516102ca9190613939565b60405180910390f35b6102ed60048036038101906102e89190612ff3565b610b9e565b6040516102fa91906136eb565b60405180910390f35b61031d60048036038101906103189190612f3f565b610c4a565b60405161032a919061391e565b60405180910390f35b61034d60048036038101906103489190612f68565b610c62565b60405161035a919061391e565b60405180910390f35b61036b610c87565b6040516103789190613639565b60405180910390f35b61039b60048036038101906103969190613058565b610cad565b005b6103b760048036038101906103b29190612f3f565b611056565b6040516103c491906136eb565b60405180910390f35b6103e760048036038101906103e29190612f3f565b611076565b6040516103f4919061391e565b60405180910390f35b6104056110be565b005b61040f6111fb565b60405161041c919061391e565b60405180910390f35b61042d611201565b60405161043a9190613639565b60405180910390f35b61044b61122b565b604051610458919061373c565b60405180910390f35b61047b60048036038101906104769190612ff3565b6112bd565b60405161048891906136eb565b60405180910390f35b6104ab60048036038101906104a69190613058565b6113b1565b005b6104c760048036038101906104c29190612ff3565b6117e5565b6040516104d491906136eb565b60405180910390f35b6104e5611803565b6040516104f29190613706565b60405180910390f35b61051560048036038101906105109190613058565b611829565b005b610531600480360381019061052c9190612f3f565b611c56565b60405161053e919061391e565b60405180910390f35b610561600480360381019061055c9190612f3f565b611c6e565b60405161056e91906136eb565b60405180910390f35b610591600480360381019061058c9190612f3f565b611c8e565b60405161059e919061391e565b60405180910390f35b6105c160048036038101906105bc9190612f68565b611ca6565b6040516105ce919061391e565b60405180910390f35b6105df611d2d565b6040516105ec919061391e565b60405180910390f35b61060f600480360381019061060a9190612f3f565b611d51565b005b61062b60048036038101906106269190613058565b611efd565b6040516106389190613639565b60405180910390f35b60606003805461065090613b55565b80601f016020809104026020016040519081016040528092919081815260200182805461067c90613b55565b80156106c95780601f1061069e576101008083540402835291602001916106c9565b820191906000526020600020905b8154815290600101906020018083116106ac57829003601f168201915b5050505050905090565b60006106e76106e0611f64565b8484611f6c565b6001905092915050565b6000600254905090565b6000610708848484612137565b6000600160008673ffffffffffffffffffffffffffffffffffffffff1673ffffffffffffffffffffffffffffffffffffffff1681526020019081526020016000206000610753611f64565b73ffffffffffffffffffffffffffffffffffffffff1673ffffffffffffffffffffffffffffffffffffffff168152602001908152602001600020549050828110156107d3576040517f08c379a00000000000000000000000000000000000000000000000000000000081526004016107ca906137fe565b60405180910390fd5b6107f0856107df611f64565b85846107eb9190613a51565b611f6c565b60019150509392505050565b600660009054906101000a900473ffffffffffffffffffffffffffffffffffffffff1681565b6000600e60003373ffffffffffffffffffffffffffffffffffffffff1673ffffffffffffffffffffffffffffffffffffffff168152602001908152602001600020549050600081116108a9576040517f08c379a00000000000000000000000000000000000000000000000000000000081526004016108a09061385e565b60405180910390fd5b816108b333611076565b10156108f4576040517f08c379a00000000000000000000000000000000000000000000000000000000081526004016108eb9061381e565b60405180910390fd5b6000600e60003373ffffffffffffffffffffffffffffffffffffffff1673ffffffffffffffffffffffffffffffffffffffff168152602001908152602001600020819055506000601160003373ffffffffffffffffffffffffffffffffffffffff1673ffffffffffffffffffffffffffffffffffffffff16815260200190815260200160002060006101000a81548160ff0219169083151502179055506000601060003373ffffffffffffffffffffffffffffffffffffffff1673ffffffffffffffffffffffffffffffffffffffff16815260200190815260200160002060006101000a81548160ff0219169083151502179055506109f2336123b6565b600660009054906101000a900473ffffffffffffffffffffffffffffffffffffffff1673ffffffffffffffffffffffffffffffffffffffff1663a9059cbb33846040518363ffffffff1660e01b8152600401610a4f92919061368b565b602060405180830381600087803b158015610a6957600080fd5b505af1158015610a7d573d6000803e3d6000fd5b505050506040513d601f19601f82011682018060405250810190610aa1919061302f565b50610aac3383612538565b7ff279e6a1f5e320cca91135676d9cb6e44ca8a08c0b88342bcdb1144f6511b5683383600760009054906101000a900473ffffffffffffffffffffffffffffffffffffffff1673ffffffffffffffffffffffffffffffffffffffff166370a08231336040518263ffffffff1660e01b8152600401610b2a9190613639565b60206040518083038186803b158015610b4257600080fd5b505afa158015610b56573d6000803e3d6000fd5b505050506040513d601f19601f82011682018060405250810190610b7a9190613081565b604051610b89939291906136b4565b60405180910390a15050565b60006012905090565b6000610c40610bab611f64565b848460016000610bb9611f64565b73ffffffffffffffffffffffffffffffffffffffff1673ffffffffffffffffffffffffffffffffffffffff16815260200190815260200160002060008873ffffffffffffffffffffffffffffffffffffffff1673ffffffffffffffffffffffffffffffffffffffff16815260200190815260200160002054610c3b9190613970565b611f6c565b6001905092915050565b600e6020528060005260406000206000915090505481565b6012602052816000526040600020602052806000526040600020600091509150505481565b600a60009054906101000a900473ffffffffffffffffffffffffffffffffffffffff1681565b7f00000000000000000000000000000000000000000000000000000000000000004210611049576000600f60003373ffffffffffffffffffffffffffffffffffffffff1673ffffffffffffffffffffffffffffffffffffffff16815260200190815260200160002054905060008111610d5b576040517f08c379a0000000000000000000000000000000000000000000000000000000008152600401610d529061385e565b60405180910390fd5b81610d6533611076565b1015610da6576040517f08c379a0000000000000000000000000000000000000000000000000000000008152600401610d9d9061381e565b60405180910390fd5b6000600f60003373ffffffffffffffffffffffffffffffffffffffff1673ffffffffffffffffffffffffffffffffffffffff168152602001908152602001600020819055506000601160003373ffffffffffffffffffffffffffffffffffffffff1673ffffffffffffffffffffffffffffffffffffffff16815260200190815260200160002060006101000a81548160ff0219169083151502179055506000601060003373ffffffffffffffffffffffffffffffffffffffff1673ffffffffffffffffffffffffffffffffffffffff16815260200190815260200160002060006101000a81548160ff021916908315150217905550610ea43361270c565b600660009054906101000a900473ffffffffffffffffffffffffffffffffffffffff1673ffffffffffffffffffffffffffffffffffffffff1663a9059cbb33846040518363ffffffff1660e01b8152600401610f0192919061368b565b602060405180830381600087803b158015610f1b57600080fd5b505af1158015610f2f573d6000803e3d6000fd5b505050506040513d601f19601f82011682018060405250810190610f53919061302f565b50610f5e3383612538565b7ff279e6a1f5e320cca91135676d9cb6e44ca8a08c0b88342bcdb1144f6511b5683383600760009054906101000a900473ffffffffffffffffffffffffffffffffffffffff1673ffffffffffffffffffffffffffffffffffffffff166370a08231336040518263ffffffff1660e01b8152600401610fdc9190613639565b60206040518083038186803b158015610ff457600080fd5b505afa158015611008573d6000803e3d6000fd5b505050506040513d601f19601f8201168201806040525081019061102c9190613081565b60405161103b939291906136b4565b60405180910390a150611053565b6110528161289a565b5b50565b60116020528060005260406000206000915054906101000a900460ff1681565b60008060008373ffffffffffffffffffffffffffffffffffffffff1673ffffffffffffffffffffffffffffffffffffffff168152602001908152602001600020549050919050565b6110c6611f64565b73ffffffffffffffffffffffffffffffffffffffff166110e4611201565b73ffffffffffffffffffffffffffffffffffffffff161461113a576040517f08c379a00000000000000000000000000000000000000000000000000000000081526004016111319061383e565b60405180910390fd5b600073ffffffffffffffffffffffffffffffffffffffff16600560009054906101000a900473ffffffffffffffffffffffffffffffffffffffff1673ffffffffffffffffffffffffffffffffffffffff167f8be0079c531659141344cd1fd0a4f28419497f9722a3daafe3b4186f6b6457e060405160405180910390a36000600560006101000a81548173ffffffffffffffffffffffffffffffffffffffff021916908373ffffffffffffffffffffffffffffffffffffffff160217905550565b600b5481565b6000600560009054906101000a900473ffffffffffffffffffffffffffffffffffffffff16905090565b60606004805461123a90613b55565b80601f016020809104026020016040519081016040528092919081815260200182805461126690613b55565b80156112b35780601f10611288576101008083540402835291602001916112b3565b820191906000526020600020905b81548152906001019060200180831161129657829003601f168201915b5050505050905090565b600080600160006112cc611f64565b73ffffffffffffffffffffffffffffffffffffffff1673ffffffffffffffffffffffffffffffffffffffff16815260200190815260200160002060008573ffffffffffffffffffffffffffffffffffffffff1673ffffffffffffffffffffffffffffffffffffffff16815260200190815260200160002054905082811015611389576040517f08c379a0000000000000000000000000000000000000000000000000000000008152600401611380906138de565b60405180910390fd5b6113a6611394611f64565b8585846113a19190613a51565b611f6c565b600191505092915050565b6000600d60003373ffffffffffffffffffffffffffffffffffffffff1673ffffffffffffffffffffffffffffffffffffffff16815260200190815260200160002054141561143e5743600d60003373ffffffffffffffffffffffffffffffffffffffff1673ffffffffffffffffffffffffffffffffffffffff168152602001908152602001600020819055505b6114473361270c565b600660009054906101000a900473ffffffffffffffffffffffffffffffffffffffff1673ffffffffffffffffffffffffffffffffffffffff166323b872dd3330846040518463ffffffff1660e01b81526004016114a693929190613654565b602060405180830381600087803b1580156114c057600080fd5b505af11580156114d4573d6000803e3d6000fd5b505050506040513d601f19601f820116820180604052508101906114f8919061302f565b5061154b81600f60003373ffffffffffffffffffffffffffffffffffffffff1673ffffffffffffffffffffffffffffffffffffffff16815260200190815260200160002054611f3c90919063ffffffff16565b600f60003373ffffffffffffffffffffffffffffffffffffffff1673ffffffffffffffffffffffffffffffffffffffff168152602001908152602001600020819055506115983382612cfc565b601060003373ffffffffffffffffffffffffffffffffffffffff1673ffffffffffffffffffffffffffffffffffffffff16815260200190815260200160002060009054906101000a900460ff1661164d57600c339080600181540180825580915050600190039060005260206000200160009091909190916101000a81548173ffffffffffffffffffffffffffffffffffffffff021916908373ffffffffffffffffffffffffffffffffffffffff1602179055505b6001601060003373ffffffffffffffffffffffffffffffffffffffff1673ffffffffffffffffffffffffffffffffffffffff16815260200190815260200160002060006101000a81548160ff0219169083151502179055506001601160003373ffffffffffffffffffffffffffffffffffffffff1673ffffffffffffffffffffffffffffffffffffffff16815260200190815260200160002060006101000a81548160ff0219169083151502179055507f90890809c654f11d6e72a28fa60149770a0d11ec6c92319d6ceb2bb0a4ea1a153382600760009054906101000a900473ffffffffffffffffffffffffffffffffffffffff1673ffffffffffffffffffffffffffffffffffffffff166370a08231336040518263ffffffff1660e01b815260040161177b9190613639565b60206040518083038186803b15801561179357600080fd5b505afa1580156117a7573d6000803e3d6000fd5b505050506040513d601f19601f820116820180604052508101906117cb9190613081565b6040516117da939291906136b4565b60405180910390a150565b60006117f96117f2611f64565b8484612137565b6001905092915050565b600760009054906101000a900473ffffffffffffffffffffffffffffffffffffffff1681565b6000600d60003373ffffffffffffffffffffffffffffffffffffffff1673ffffffffffffffffffffffffffffffffffffffff1681526020019081526020016000205414156118b65743600d60003373ffffffffffffffffffffffffffffffffffffffff1673ffffffffffffffffffffffffffffffffffffffff168152602001908152602001600020819055505b6118bf336123b6565b600660009054906101000a900473ffffffffffffffffffffffffffffffffffffffff1673ffffffffffffffffffffffffffffffffffffffff166323b872dd3330846040518463ffffffff1660e01b815260040161191e93929190613654565b602060405180830381600087803b15801561193857600080fd5b505af115801561194c573d6000803e3d6000fd5b505050506040513d601f19601f82011682018060405250810190611970919061302f565b5080600e60003373ffffffffffffffffffffffffffffffffffffffff1673ffffffffffffffffffffffffffffffffffffffff168152602001908152602001600020546119bc9190613970565b600e60003373ffffffffffffffffffffffffffffffffffffffff1673ffffffffffffffffffffffffffffffffffffffff16815260200190815260200160002081905550611a093382612cfc565b601060003373ffffffffffffffffffffffffffffffffffffffff1673ffffffffffffffffffffffffffffffffffffffff16815260200190815260200160002060009054906101000a900460ff16611abe57600c339080600181540180825580915050600190039060005260206000200160009091909190916101000a81548173ffffffffffffffffffffffffffffffffffffffff021916908373ffffffffffffffffffffffffffffffffffffffff1602179055505b6001601060003373ffffffffffffffffffffffffffffffffffffffff1673ffffffffffffffffffffffffffffffffffffffff16815260200190815260200160002060006101000a81548160ff0219169083151502179055506001601160003373ffffffffffffffffffffffffffffffffffffffff1673ffffffffffffffffffffffffffffffffffffffff16815260200190815260200160002060006101000a81548160ff0219169083151502179055507f90890809c654f11d6e72a28fa60149770a0d11ec6c92319d6ceb2bb0a4ea1a153382600760009054906101000a900473ffffffffffffffffffffffffffffffffffffffff1673ffffffffffffffffffffffffffffffffffffffff166370a08231336040518263ffffffff1660e01b8152600401611bec9190613639565b60206040518083038186803b158015611c0457600080fd5b505afa158015611c18573d6000803e3d6000fd5b505050506040513d601f19601f82011682018060405250810190611c3c9190613081565b604051611c4b939291906136b4565b60405180910390a150565b600f6020528060005260406000206000915090505481565b60106020528060005260406000206000915054906101000a900460ff1681565b600d6020528060005260406000206000915090505481565b6000600160008473ffffffffffffffffffffffffffffffffffffffff1673ffffffffffffffffffffffffffffffffffffffff16815260200190815260200160002060008373ffffffffffffffffffffffffffffffffffffffff1673ffffffffffffffffffffffffffffffffffffffff16815260200190815260200160002054905092915050565b7f000000000000000000000000000000000000000000000000000000000000000081565b611d59611f64565b73ffffffffffffffffffffffffffffffffffffffff16611d77611201565b73ffffffffffffffffffffffffffffffffffffffff1614611dcd576040517f08c379a0000000000000000000000000000000000000000000000000000000008152600401611dc49061383e565b60405180910390fd5b600073ffffffffffffffffffffffffffffffffffffffff168173ffffffffffffffffffffffffffffffffffffffff161415611e3d576040517f08c379a0000000000000000000000000000000000000000000000000000000008152600401611e349061379e565b60405180910390fd5b8073ffffffffffffffffffffffffffffffffffffffff16600560009054906101000a900473ffffffffffffffffffffffffffffffffffffffff1673ffffffffffffffffffffffffffffffffffffffff167f8be0079c531659141344cd1fd0a4f28419497f9722a3daafe3b4186f6b6457e060405160405180910390a380600560006101000a81548173ffffffffffffffffffffffffffffffffffffffff021916908373ffffffffffffffffffffffffffffffffffffffff16021790555050565b600c8181548110611f0d57600080fd5b906000526020600020016000915054906101000a900473ffffffffffffffffffffffffffffffffffffffff1681565b6000808284611f4b9190613970565b905083811015611f5a57600080fd5b8091505092915050565b600033905090565b600073ffffffffffffffffffffffffffffffffffffffff168373ffffffffffffffffffffffffffffffffffffffff161415611fdc576040517f08c379a0000000000000000000000000000000000000000000000000000000008152600401611fd3906138be565b60405180910390fd5b600073ffffffffffffffffffffffffffffffffffffffff168273ffffffffffffffffffffffffffffffffffffffff16141561204c576040517f08c379a0000000000000000000000000000000000000000000000000000000008152600401612043906137be565b60405180910390fd5b80600160008573ffffffffffffffffffffffffffffffffffffffff1673ffffffffffffffffffffffffffffffffffffffff16815260200190815260200160002060008473ffffffffffffffffffffffffffffffffffffffff1673ffffffffffffffffffffffffffffffffffffffff168152602001908152602001600020819055508173ffffffffffffffffffffffffffffffffffffffff168373ffffffffffffffffffffffffffffffffffffffff167f8c5be1e5ebec7d5bd14f71427d1e84f3dd0314c0f7b2291e5b200ac8c7c3b9258360405161212a919061391e565b60405180910390a3505050565b600073ffffffffffffffffffffffffffffffffffffffff168373ffffffffffffffffffffffffffffffffffffffff1614156121a7576040517f08c379a000000000000000000000000000000000000000000000000000000000815260040161219e9061389e565b60405180910390fd5b600073ffffffffffffffffffffffffffffffffffffffff168273ffffffffffffffffffffffffffffffffffffffff161415612217576040517f08c379a000000000000000000000000000000000000000000000000000000000815260040161220e9061375e565b60405180910390fd5b612222838383612e50565b60008060008573ffffffffffffffffffffffffffffffffffffffff1673ffffffffffffffffffffffffffffffffffffffff168152602001908152602001600020549050818110156122a8576040517f08c379a000000000000000000000000000000000000000000000000000000000815260040161229f906137de565b60405180910390fd5b81816122b49190613a51565b6000808673ffffffffffffffffffffffffffffffffffffffff1673ffffffffffffffffffffffffffffffffffffffff16815260200190815260200160002081905550816000808573ffffffffffffffffffffffffffffffffffffffff1673ffffffffffffffffffffffffffffffffffffffff16815260200190815260200160002060008282546123449190613970565b925050819055508273ffffffffffffffffffffffffffffffffffffffff168473ffffffffffffffffffffffffffffffffffffffff167fddf252ad1be2c89b69c2b068fc378daa952ba7f163c4a11628f55a4df523b3ef846040516123a8919061391e565b60405180910390a350505050565b6000600d60008373ffffffffffffffffffffffffffffffffffffffff1673ffffffffffffffffffffffffffffffffffffffff168152602001908152602001600020549050600081436124089190613a51565b1115612534576000600854824361241f9190613a51565b61242885611076565b61243291906139f7565b61243c91906139c6565b9050600760009054906101000a900473ffffffffffffffffffffffffffffffffffffffff1673ffffffffffffffffffffffffffffffffffffffff1663a9059cbb84836040518363ffffffff1660e01b815260040161249b92919061368b565b602060405180830381600087803b1580156124b557600080fd5b505af11580156124c9573d6000803e3d6000fd5b505050506040513d601f19601f820116820180604052508101906124ed919061302f565b5043600d60008573ffffffffffffffffffffffffffffffffffffffff1673ffffffffffffffffffffffffffffffffffffffff16815260200190815260200160002081905550505b5050565b600073ffffffffffffffffffffffffffffffffffffffff168273ffffffffffffffffffffffffffffffffffffffff1614156125a8576040517f08c379a000000000000000000000000000000000000000000000000000000000815260040161259f9061387e565b60405180910390fd5b6125b482600083612e50565b60008060008473ffffffffffffffffffffffffffffffffffffffff1673ffffffffffffffffffffffffffffffffffffffff1681526020019081526020016000205490508181101561263a576040517f08c379a00000000000000000000000000000000000000000000000000000000081526004016126319061377e565b60405180910390fd5b81816126469190613a51565b6000808573ffffffffffffffffffffffffffffffffffffffff1673ffffffffffffffffffffffffffffffffffffffff16815260200190815260200160002081905550816002600082825461269a9190613a51565b92505081905550600073ffffffffffffffffffffffffffffffffffffffff168373ffffffffffffffffffffffffffffffffffffffff167fddf252ad1be2c89b69c2b068fc378daa952ba7f163c4a11628f55a4df523b3ef846040516126ff919061391e565b60405180910390a3505050565b6000600d60008373ffffffffffffffffffffffffffffffffffffffff1673ffffffffffffffffffffffffffffffffffffffff1681526020019081526020016000205490506000814361275e9190613a51565b111561289657600081436127729190613a51565b600954606461278086611076565b61278a91906139c6565b61279491906139f7565b61279e9190613970565b9050600760009054906101000a900473ffffffffffffffffffffffffffffffffffffffff1673ffffffffffffffffffffffffffffffffffffffff1663a9059cbb84836040518363ffffffff1660e01b81526004016127fd92919061368b565b602060405180830381600087803b15801561281757600080fd5b505af115801561282b573d6000803e3d6000fd5b505050506040513d601f19601f8201168201806040525081019061284f919061302f565b5043600d60008573ffffffffffffffffffffffffffffffffffffffff1673ffffffffffffffffffffffffffffffffffffffff16815260200190815260200160002081905550505b5050565b6000600f60003373ffffffffffffffffffffffffffffffffffffffff1673ffffffffffffffffffffffffffffffffffffffff168152602001908152602001600020549050600061290860646128fa600b5486612e5590919063ffffffff16565b612e9a90919063ffffffff16565b90506000821161294d576040517f08c379a00000000000000000000000000000000000000000000000000000000081526004016129449061385e565b60405180910390fd5b8261295733611076565b1015612998576040517f08c379a000000000000000000000000000000000000000000000000000000000815260040161298f9061381e565b60405180910390fd5b6000600f60003373ffffffffffffffffffffffffffffffffffffffff1673ffffffffffffffffffffffffffffffffffffffff168152602001908152602001600020819055506000601160003373ffffffffffffffffffffffffffffffffffffffff1673ffffffffffffffffffffffffffffffffffffffff16815260200190815260200160002060006101000a81548160ff0219169083151502179055506000601060003373ffffffffffffffffffffffffffffffffffffffff1673ffffffffffffffffffffffffffffffffffffffff16815260200190815260200160002060006101000a81548160ff021916908315150217905550612a963361270c565b600660009054906101000a900473ffffffffffffffffffffffffffffffffffffffff1673ffffffffffffffffffffffffffffffffffffffff1663a9059cbb33612ae88487612ec290919063ffffffff16565b6040518363ffffffff1660e01b8152600401612b0592919061368b565b602060405180830381600087803b158015612b1f57600080fd5b505af1158015612b33573d6000803e3d6000fd5b505050506040513d601f19601f82011682018060405250810190612b57919061302f565b50600660009054906101000a900473ffffffffffffffffffffffffffffffffffffffff1673ffffffffffffffffffffffffffffffffffffffff1663a9059cbb30836040518363ffffffff1660e01b8152600401612bb592919061368b565b602060405180830381600087803b158015612bcf57600080fd5b505af1158015612be3573d6000803e3d6000fd5b505050506040513d601f19601f82011682018060405250810190612c07919061302f565b50612c123384612538565b7ff279e6a1f5e320cca91135676d9cb6e44ca8a08c0b88342bcdb1144f6511b5683384600760009054906101000a900473ffffffffffffffffffffffffffffffffffffffff1673ffffffffffffffffffffffffffffffffffffffff166370a08231336040518263ffffffff1660e01b8152600401612c909190613639565b60206040518083038186803b158015612ca857600080fd5b505afa158015612cbc573d6000803e3d6000fd5b505050506040513d601f19601f82011682018060405250810190612ce09190613081565b604051612cef939291906136b4565b60405180910390a1505050565b600073ffffffffffffffffffffffffffffffffffffffff168273ffffffffffffffffffffffffffffffffffffffff161415612d6c576040517f08c379a0000000000000000000000000000000000000000000000000000000008152600401612d63906138fe565b60405180910390fd5b612d7860008383612e50565b8060026000828254612d8a9190613970565b92505081905550806000808473ffffffffffffffffffffffffffffffffffffffff1673ffffffffffffffffffffffffffffffffffffffff1681526020019081526020016000206000828254612ddf9190613970565b925050819055508173ffffffffffffffffffffffffffffffffffffffff16600073ffffffffffffffffffffffffffffffffffffffff167fddf252ad1be2c89b69c2b068fc378daa952ba7f163c4a11628f55a4df523b3ef83604051612e44919061391e565b60405180910390a35050565b505050565b600080831415612e685760009050612e94565b60008284612e7691906139f7565b9050828482612e8591906139c6565b14612e8f57600080fd5b809150505b92915050565b6000808211612ea857600080fd5b60008284612eb691906139c6565b90508091505092915050565b600082821115612ed157600080fd5b60008284612edf9190613a51565b90508091505092915050565b600081359050612efa81613c25565b92915050565b600081519050612f0f81613c3c565b92915050565b600081359050612f2481613c53565b92915050565b600081519050612f3981613c53565b92915050565b600060208284031215612f5157600080fd5b6000612f5f84828501612eeb565b91505092915050565b60008060408385031215612f7b57600080fd5b6000612f8985828601612eeb565b9250506020612f9a85828601612eeb565b9150509250929050565b600080600060608486031215612fb957600080fd5b6000612fc786828701612eeb565b9350506020612fd886828701612eeb565b9250506040612fe986828701612f15565b9150509250925092565b6000806040838503121561300657600080fd5b600061301485828601612eeb565b925050602061302585828601612f15565b9150509250929050565b60006020828403121561304157600080fd5b600061304f84828501612f00565b91505092915050565b60006020828403121561306a57600080fd5b600061307884828501612f15565b91505092915050565b60006020828403121561309357600080fd5b60006130a184828501612f2a565b91505092915050565b6130b381613a85565b82525050565b6130c281613a97565b82525050565b6130d181613ada565b82525050565b6130e081613afe565b82525050565b60006130f182613954565b6130fb818561395f565b935061310b818560208601613b22565b61311481613c14565b840191505092915050565b600061312c60238361395f565b91507f45524332303a207472616e7366657220746f20746865207a65726f206164647260008301527f65737300000000000000000000000000000000000000000000000000000000006020830152604082019050919050565b600061319260228361395f565b91507f45524332303a206275726e20616d6f756e7420657863656564732062616c616e60008301527f63650000000000000000000000000000000000000000000000000000000000006020830152604082019050919050565b60006131f860268361395f565b91507f4f776e61626c653a206e6577206f776e657220697320746865207a65726f206160008301527f64647265737300000000000000000000000000000000000000000000000000006020830152604082019050919050565b600061325e60228361395f565b91507f45524332303a20617070726f766520746f20746865207a65726f20616464726560008301527f73730000000000000000000000000000000000000000000000000000000000006020830152604082019050919050565b60006132c460268361395f565b91507f45524332303a207472616e7366657220616d6f756e742065786365656473206260008301527f616c616e636500000000000000000000000000000000000000000000000000006020830152604082019050919050565b600061332a60288361395f565b91507f45524332303a207472616e7366657220616d6f756e742065786365656473206160008301527f6c6c6f77616e63650000000000000000000000000000000000000000000000006020830152604082019050919050565b600061339060148361395f565b91507f6e6f7420656e6f756768204c5020546f6b656e730000000000000000000000006000830152602082019050919050565b60006133d060208361395f565b91507f4f776e61626c653a2063616c6c6572206973206e6f7420746865206f776e65726000830152602082019050919050565b600061341060148361395f565b91507f696e73756666696369656e742062616c616e63650000000000000000000000006000830152602082019050919050565b600061345060218361395f565b91507f45524332303a206275726e2066726f6d20746865207a65726f2061646472657360008301527f73000000000000000000000000000000000000000000000000000000000000006020830152604082019050919050565b60006134b660258361395f565b91507f45524332303a207472616e736665722066726f6d20746865207a65726f20616460008301527f64726573730000000000000000000000000000000000000000000000000000006020830152604082019050919050565b600061351c60248361395f565b91507f45524332303a20617070726f76652066726f6d20746865207a65726f2061646460008301527f72657373000000000000000000000000000000000000000000000000000000006020830152604082019050919050565b600061358260258361395f565b91507f45524332303a2064656372656173656420616c6c6f77616e63652062656c6f7760008301527f207a65726f0000000000000000000000000000000000000000000000000000006020830152604082019050919050565b60006135e8601f8361395f565b91507f45524332303a206d696e7420746f20746865207a65726f2061646472657373006000830152602082019050919050565b61362481613ac3565b82525050565b61363381613acd565b82525050565b600060208201905061364e60008301846130aa565b92915050565b600060608201905061366960008301866130aa565b61367660208301856130aa565b613683604083018461361b565b949350505050565b60006040820190506136a060008301856130aa565b6136ad602083018461361b565b9392505050565b60006060820190506136c960008301866130aa565b6136d6602083018561361b565b6136e3604083018461361b565b949350505050565b600060208201905061370060008301846130b9565b92915050565b600060208201905061371b60008301846130c8565b92915050565b600060208201905061373660008301846130d7565b92915050565b6000602082019050818103600083015261375681846130e6565b905092915050565b600060208201905081810360008301526137778161311f565b9050919050565b6000602082019050818103600083015261379781613185565b9050919050565b600060208201905081810360008301526137b7816131eb565b9050919050565b600060208201905081810360008301526137d781613251565b9050919050565b600060208201905081810360008301526137f7816132b7565b9050919050565b600060208201905081810360008301526138178161331d565b9050919050565b6000602082019050818103600083015261383781613383565b9050919050565b60006020820190508181036000830152613857816133c3565b9050919050565b6000602082019050818103600083015261387781613403565b9050919050565b6000602082019050818103600083015261389781613443565b9050919050565b600060208201905081810360008301526138b7816134a9565b9050919050565b600060208201905081810360008301526138d78161350f565b9050919050565b600060208201905081810360008301526138f781613575565b9050919050565b60006020820190508181036000830152613917816135db565b9050919050565b6000602082019050613933600083018461361b565b92915050565b600060208201905061394e600083018461362a565b92915050565b600081519050919050565b600082825260208201905092915050565b600061397b82613ac3565b915061398683613ac3565b9250827fffffffffffffffffffffffffffffffffffffffffffffffffffffffffffffffff038211156139bb576139ba613b87565b5b828201905092915050565b60006139d182613ac3565b91506139dc83613ac3565b9250826139ec576139eb613bb6565b5b828204905092915050565b6000613a0282613ac3565b9150613a0d83613ac3565b9250817fffffffffffffffffffffffffffffffffffffffffffffffffffffffffffffffff0483118215151615613a4657613a45613b87565b5b828202905092915050565b6000613a5c82613ac3565b9150613a6783613ac3565b925082821015613a7a57613a79613b87565b5b828203905092915050565b6000613a9082613aa3565b9050919050565b60008115159050919050565b600073ffffffffffffffffffffffffffffffffffffffff82169050919050565b6000819050919050565b600060ff82169050919050565b6000613ae582613aec565b9050919050565b6000613af782613aa3565b9050919050565b6000613b0982613b10565b9050919050565b6000613b1b82613aa3565b9050919050565b60005b83811015613b40578082015181840152602081019050613b25565b83811115613b4f576000848401525b50505050565b60006002820490506001821680613b6d57607f821691505b60208210811415613b8157613b80613be5565b5b50919050565b7f4e487b7100000000000000000000000000000000000000000000000000000000600052601160045260246000fd5b7f4e487b7100000000000000000000000000000000000000000000000000000000600052601260045260246000fd5b7f4e487b7100000000000000000000000000000000000000000000000000000000600052602260045260246000fd5b6000601f19601f8301169050919050565b613c2e81613a85565b8114613c3957600080fd5b50565b613c4581613a97565b8114613c5057600080fd5b50565b613c5c81613ac3565b8114613c6757600080fd5b5056fea2646970667358221220ed1e9705bca76d77bd0e26358a65ccbbd2978391ebe720e31cdc7bb822038ea564736f6c63430008000033",
  "immutableReferences": {
    "35": [
      {
        "length": 32,
        "start": 3247
      },
      {
        "length": 32,
        "start": 7471
      }
    ]
  },
  "source": "pragma solidity ^0.8.0;\r\n\r\nimport './UnderlyingToken.sol';\r\nimport './LpToken.sol';\r\nimport '@openzeppelin/contracts/token/ERC20/IERC20.sol';\r\nimport \"openzeppelin-solidity/contracts/math/SafeMath.sol\";\r\nimport '@openzeppelin/contracts/access/Ownable.sol';\r\n\r\n\r\n\r\ncontract LiquidityPool is LpToken, Ownable {\r\n\tusing SafeMath for uint;\r\n\r\n\tUnderlyingToken public underlyingToken;\r\n\tIERC20 public thothToken;\r\n\t// uint constant public REWARD_PER_BLOCK = 1;\r\n\tuint private REWARD_PERCENTAGE = 10;\r\n\tuint private LOCKED_REWARD_PERCENTAGE = 20;\r\n\taddress public feeAccount; // account for exchange fees\r\n\tuint256 public feePercent = 50; // percent for the exchange\r\n\r\n\r\n\tuint private constant duration = 2 days;\r\n\tuint public immutable end;\r\n\r\n\r\n\taddress[] public stakers;\r\n\tmapping(address => uint) public checkpoints;\r\n    mapping(address => uint) public stakingBalance;\r\n    mapping(address => uint) public lockedStakingBalance;\r\n    mapping(address => bool) public hasStaked;\r\n    mapping(address => bool) public isStaking;\r\n    mapping(address => mapping(address => uint256)) public tokens;\r\n\r\n    // Events\r\n\r\n    event Deposit (address user, uint amount, uint balance);\r\n    event Withdraw (address user, uint amount, uint balance);\r\n\r\n\r\n\r\n\r\n\r\n\tconstructor(address _underlyingToken, address _governanceToken) {\r\n\t\tunderlyingToken = UnderlyingToken(_underlyingToken);\r\n\t\tthothToken = IERC20(_governanceToken);\r\n\t\tend = block.timestamp.add(duration);\r\n\t}\r\n\r\n\r\n\r\n\r\n\tfunction deposit(uint amount) external {\r\n\t\tif(checkpoints[msg.sender] == 0) {\r\n\t\t\tcheckpoints[msg.sender] = block.number;\r\n\t\t}\r\n\r\n\t\t_distributeRewards(msg.sender);\r\n\t\tunderlyingToken.transferFrom(msg.sender, address(this), amount);\r\n\r\n\t\t// update staking balance\r\n        stakingBalance[msg.sender] = stakingBalance[msg.sender] + amount;\r\n\r\n\t\t_mint(msg.sender, amount);\r\n\r\n\t\t// add user to stakers array only if they haven\"t staked\r\n        if(!hasStaked[msg.sender]) {\r\n            stakers.push(msg.sender);\r\n        }\r\n\r\n        // update staking staus\r\n        hasStaked[msg.sender] = true;\r\n        isStaking[msg.sender] = true;\r\n\r\n        emit Deposit (msg.sender, amount, thothToken.balanceOf(msg.sender));\r\n\t}\r\n\r\n\tfunction lockedDeposit(uint amount) external {\r\n\t\tif(checkpoints[msg.sender] == 0) {\r\n\t\t\tcheckpoints[msg.sender] = block.number;\r\n\t\t}\r\n\r\n\t\t_distributeRewardsForlockedStaking(msg.sender);\r\n\t\tunderlyingToken.transferFrom(msg.sender, address(this), amount);\r\n\r\n\t\t// update staking balance\r\n        lockedStakingBalance[msg.sender] = lockedStakingBalance[msg.sender].add(amount);\r\n\r\n\t\t_mint(msg.sender, amount);\r\n\r\n\t\t// add user to stakers array only if they haven\"t staked\r\n        if(!hasStaked[msg.sender]) {\r\n            stakers.push(msg.sender);\r\n        }\r\n\r\n        // update staking staus\r\n        hasStaked[msg.sender] = true;\r\n        isStaking[msg.sender] = true;\r\n\r\n        emit Deposit (msg.sender, amount, thothToken.balanceOf(msg.sender));\r\n\r\n\t}\r\n\r\n\tfunction withdraw(uint amount) external {\r\n\t\t// fetch staking balance\r\n        uint balance = stakingBalance[msg.sender];\r\n\r\n        require( balance > 0, \"insufficient balance\");\r\n\t\trequire(balanceOf(msg.sender) >= amount, 'not enough LP Tokens');\r\n\r\n\t\t// reset staking balance\r\n        stakingBalance[msg.sender] = 0;\r\n\r\n        // update staking status\r\n        isStaking[msg.sender] = false;\r\n        hasStaked[msg.sender] = false;\r\n        \r\n\t\t_distributeRewards(msg.sender);\r\n\t\tunderlyingToken.transfer(msg.sender, amount);\r\n\t\t_burn(msg.sender, amount);\r\n\t\temit Withdraw (msg.sender, amount, thothToken.balanceOf(msg.sender));\r\n\r\n\t}\r\n\r\n\tfunction _withdrawBeforeTimelockexpires(uint amount) internal {\r\n\t\t// fetch staking balance\r\n        uint balance = lockedStakingBalance[msg.sender];\r\n        uint256 _feeAmount = amount.mul(feePercent).div(100);\r\n\r\n        \r\n\r\n        require( balance > 0, \"insufficient balance\");\r\n\t\trequire(balanceOf(msg.sender) >= amount, 'not enough LP Tokens');\r\n\r\n\t\t// reset staking balance\r\n        lockedStakingBalance[msg.sender] = 0;\r\n\r\n        // update staking status\r\n        isStaking[msg.sender] = false;\r\n        hasStaked[msg.sender] = false;\r\n        \r\n\t\t_distributeRewardsForlockedStaking(msg.sender);\r\n\t\tunderlyingToken.transfer(msg.sender, amount.sub(_feeAmount));\r\n\t\tunderlyingToken.transfer(address(this), _feeAmount);\r\n\t\t_burn(msg.sender, amount);\r\n\t\temit Withdraw (msg.sender, amount, thothToken.balanceOf(msg.sender));\r\n\r\n\t}\r\n\r\n\tfunction lockedWithdraw(uint amount) external {\r\n\t\tif(block.timestamp >= end) {\r\n\t\t\t// fetch staking balance\r\n\t        uint balance = lockedStakingBalance[msg.sender];\r\n\t        require( balance > 0, \"insufficient balance\");\r\n\t\t\trequire(balanceOf(msg.sender) >= amount, 'not enough LP Tokens');\r\n\r\n\t\t\t// reset staking balance\r\n\t        lockedStakingBalance[msg.sender] = 0;\r\n\r\n\t        // update staking status\r\n\t        isStaking[msg.sender] = false;\r\n\t        hasStaked[msg.sender] = false;\r\n\t        \r\n\t\t\t_distributeRewardsForlockedStaking(msg.sender);\r\n\t\t\tunderlyingToken.transfer(msg.sender, amount);\r\n\t\t\t_burn(msg.sender, amount);\r\n\t\t\temit Withdraw (msg.sender, amount, thothToken.balanceOf(msg.sender));\r\n\t\t} \r\n\t\telse {\r\n\t\t\t_withdrawBeforeTimelockexpires(amount);\r\n\t\t}\r\n\t\t\r\n\t\t\r\n\r\n\t}\r\n\r\n\tfunction _distributeRewardsForlockedStaking(address beneficiary) internal {\r\n\t\tuint checkpoint = checkpoints[beneficiary];\r\n\t\tif(block.number - checkpoint > 0 ) {\r\n\t\t\tuint distributionAmount = (balanceOf(beneficiary) / 100 * LOCKED_REWARD_PERCENTAGE ) + (block.number-checkpoint) ;\r\n\r\n\t\t\tthothToken.transfer(beneficiary, distributionAmount);\r\n\t\t\tcheckpoints[beneficiary] = block.number;\r\n\t\t}\r\n\t}\r\n\r\n\r\n\tfunction _distributeRewards(address beneficiary) internal {\r\n\t\tuint checkpoint = checkpoints[beneficiary];\r\n\t\tif(block.number - checkpoint > 0 ) {\r\n\t\t\tuint distributionAmount = balanceOf(beneficiary) * (block.number - checkpoint ) / REWARD_PERCENTAGE;\r\n\r\n\t\t\tthothToken.transfer(beneficiary, distributionAmount);\r\n\t\t\tcheckpoints[beneficiary] = block.number;\r\n\t\t}\r\n\t}\r\n}",
  "sourcePath": "/mnt/c/pr0/liquidity-pool/liquidity-mining/contracts/LiquidityPool.sol",
  "compiler": {
    "name": "solc",
    "version": "0.8.0+commit.c7dfd78e.Emscripten.clang"
  },
  "schemaVersion": "3.4.0",
  "updatedAt": "2021-07-13T11:33:26.521Z",
  "devdoc": {
    "kind": "dev",
    "methods": {
      "allowance(address,address)": {
        "details": "See {IERC20-allowance}."
      },
      "approve(address,uint256)": {
        "details": "See {IERC20-approve}. Requirements: - `spender` cannot be the zero address."
      },
      "balanceOf(address)": {
        "details": "See {IERC20-balanceOf}."
      },
      "decimals()": {
        "details": "Returns the number of decimals used to get its user representation. For example, if `decimals` equals `2`, a balance of `505` tokens should be displayed to a user as `5,05` (`505 / 10 ** 2`). Tokens usually opt for a value of 18, imitating the relationship between Ether and Wei. This is the value {ERC20} uses, unless this function is overridden; NOTE: This information is only used for _display_ purposes: it in no way affects any of the arithmetic of the contract, including {IERC20-balanceOf} and {IERC20-transfer}."
      },
      "decreaseAllowance(address,uint256)": {
        "details": "Atomically decreases the allowance granted to `spender` by the caller. This is an alternative to {approve} that can be used as a mitigation for problems described in {IERC20-approve}. Emits an {Approval} event indicating the updated allowance. Requirements: - `spender` cannot be the zero address. - `spender` must have allowance for the caller of at least `subtractedValue`."
      },
      "increaseAllowance(address,uint256)": {
        "details": "Atomically increases the allowance granted to `spender` by the caller. This is an alternative to {approve} that can be used as a mitigation for problems described in {IERC20-approve}. Emits an {Approval} event indicating the updated allowance. Requirements: - `spender` cannot be the zero address."
      },
      "name()": {
        "details": "Returns the name of the token."
      },
      "owner()": {
        "details": "Returns the address of the current owner."
      },
      "renounceOwnership()": {
        "details": "Leaves the contract without owner. It will not be possible to call `onlyOwner` functions anymore. Can only be called by the current owner. NOTE: Renouncing ownership will leave the contract without an owner, thereby removing any functionality that is only available to the owner."
      },
      "symbol()": {
        "details": "Returns the symbol of the token, usually a shorter version of the name."
      },
      "totalSupply()": {
        "details": "See {IERC20-totalSupply}."
      },
      "transfer(address,uint256)": {
        "details": "See {IERC20-transfer}. Requirements: - `recipient` cannot be the zero address. - the caller must have a balance of at least `amount`."
      },
      "transferFrom(address,address,uint256)": {
        "details": "See {IERC20-transferFrom}. Emits an {Approval} event indicating the updated allowance. This is not required by the EIP. See the note at the beginning of {ERC20}. Requirements: - `sender` and `recipient` cannot be the zero address. - `sender` must have a balance of at least `amount`. - the caller must have allowance for ``sender``'s tokens of at least `amount`."
      },
      "transferOwnership(address)": {
        "details": "Transfers ownership of the contract to a new account (`newOwner`). Can only be called by the current owner."
      }
    },
    "version": 1
  },
  "userdoc": {
    "kind": "user",
    "methods": {},
    "version": 1
  }
}